:040000001FEF00F0FE
:100008005D82FACF01F0FBCF02F0F2AA0EEF00F00A
:1000180010EF00F019EF00F0F2A415EF00F017EF61
:1000280000F019EF00F064EC15F002C0FBFF01C00E
:10003800FAFF5D92110001EF14F0000E0001EC6F61
:10004800000EED6F000EEE6F000EEF6FFEEC16F077
:10005800000E046E000E036EB3EC17F0F294F2A4D7
:1000680038EF00F03AEF00F033EF00F08A8889901B
:100078008A9A8B9A220E0001CC6F7B0ECD6FB5EC5D
:1000880016F0D00E0001CC6F7F0ECD6FB5EC16F0D8
:10009800880E0001CC6F7E0ECD6FB5EC16F0550EB4
:1000A8000001CC6F7F0ECD6FB5EC16F0DF0E0001AE
:1000B800CC6F7F0ECD6FB5EC16F05AEC17F0000937
:1000C800D8B469EF00F06BEF00F061EF00F076EC68
:1000D80016F00001E56F730ECC6F7F0ECD6FE5C093
:1000E800CEF0CF6BB5EC16F0BDEF04F0580ECC6F28
:1000F8007A0ECD6FB5EC16F0AB0E0001CC6F7F0E0B
:10010800CD6FB5EC16F0F30E0001CC6F7E0ECD6FFF
:10011800B5EC16F0160E0001CC6F7E0ECD6FB5EC67
:1001280016F0980E0001CC6F7D0ECD6FB5EC16F071
:10013800580E0001CC6F7A0ECD6FB5EC16F0FE0E9E
:100148000001CC6F7D0ECD6FB5EC16F09B0E000153
:10015800CC6F7C0ECD6FB5EC16F0B00E0001CC6FF5
:100168007B0ECD6F020ECF6F000ECE6FB5EC16F082
:10017800580E0001CC6F7A0ECD6FB5EC16F0CD0E8F
:100188000001CC6F7D0ECD6FB5EC16F0570E000157
:10019800CC6F7B0ECD6FB5EC16F0EB0E0001CC6F7B
:1001A800790ECD6FB5EC16F08C0E0001CC6F7A0E7F
:1001B800CD6FB5EC16F0C00E0001CC6F7A0ECD6F86
:1001C800B5EC16F0DB0E0001CC6F7B0ECD6FB5ECF5
:1001D80016F0580E0001CC6F7A0ECD6FB5EC16F004
:1001E800050E0001CC6F7D0ECD6FB5EC16F0260E16
:1001F8000001CC6F7D0ECD6FB5EC16F0580E0001E6
:10020800CC6F7A0ECD6FB5EC16F0DF0E0001CC6F17
:100218007F0ECD6FB5EC16F061EF00F0000EF26FB7
:10022800000EF16F220ECC6F7B0ECD6FB5EC16F081
:100238000001F14BF22BF25109E1280EF15DD8A033
:1002480028EF01F02AEF01F016EF01F0DF0ECC6F76
:100258007F0ECD6FB5EC16F0FF0061EF00F0000ED9
:10026800F26F000EF16F220ECC6F7B0ECD6FB5ECE6
:1002780016F00001F14BF22BF25109E1280EF15D65
:10028800D8A049EF01F04BEF01F037EF01F0DF0E96
:10029800CC6F7F0ECD6FB5EC16F061EF00F0E40E79
:1002A800CC6F7C0ECD6FB5EC16F04F0E0001CC6F05
:1002B8007C0ECD6FB5EC16F0750E0001CC6F7C0E80
:1002C800CD6FB5EC16F0030E0001CC6F7C0ECD6F30
:1002D800B5EC16F0290E0001CC6F7C0ECD6FB5EC95
:1002E80016F0DF0E0001CC6F7F0ECD6FB5EC16F067
:1002F80061EF00F001EC18F0000EBBEC11F0010EFC
:100308002FEC10F0720E0001CC6F7E0ECD6FB5ECA5
:1003180016F0DF0E0001CC6F7F0ECD6FB5EC16F036
:1003280061EF00F02D0EE519D8A49DEF01F09FEFC5
:1003380001F0AFEF01F0000EEC5F020EED5B000E76
:10034800EE5B000EEF5BBA0ECC6F7F0ECD6FB5EC97
:1003580016F0BDEF01F0000EEC27020EED23000EA3
:10036800EE23000EEF23C50ECC6F7F0ECD6FB5ECDC
:1003780016F0420E0001CC6F7F0ECD6FB5EC16F073
:10038800E40E0001CC6F7F0ECD6FEEC0CEF0EFC053
:10039800CFF0D06BD16BB5EC16F0FD0E0001CC6F31
:1003A8007F0ECD6FB5EC16F0E40E0001CC6F7F0E1A
:1003B800CD6FFF0EEC15CE6FFF0EED15CF6F000E53
:1003C800EE15D06F000EEF15D16FB5EC16F0DF0EFD
:1003D8000001CC6F7F0ECD6FB5EC16F061EF00F029
:1003E800ECC004F0EDC005F0EEC006F0EFC007F079
:1003F800FC0E086E020E096ED7EC10F0080E000114
:10040800CC6F7F0ECD6FB5EC16F0E40E0001CC6F0B
:100418007F0ECD6FEEC0CEF0EFC0CFF0D06BD16BBA
:10042800B5EC16F0FD0E0001CC6F7F0ECD6FB5EC6C
:1004380016F0E40E0001CC6F7F0ECD6FFF0EEC15A9
:10044800CE6FFF0EED15CF6F000EEE15D06F000EBC
:10045800EF15D16FB5EC16F0220E0001CC6F7B0EB4
:10046800CD6FB5EC16F0FC0E0001D46F020ED56FFF
:1004780084EC0AF0DF0E0001CC6F7F0ECD6FB5EC77
:1004880016F061EF00F064EC17F0010EA0EC16F026
:10049800010E8BEC16F081EC17F01C0E0001CC6FEE
:1004A8007F0ECD6FB5EC16F0DF0E0001CC6F7F0E1E
:1004B800CD6FB5EC16F061EF00F0000EF26F000E94
:1004C800F16FF1C003F0F2C004F0000E066E140ED6
:1004D800056EC8EC16F0930E03240001E26F770E48
:1004E8000420E36F9E0ECC6F7E0ECD6F710EF1254A
:1004F800F66E770EF221F76E0800F550CE6FCF6BCF
:10050800E2C0D0F0E3C0D1F0710EF125F66E770E9F
:10051800F221F76E0800F5CF12F0680EC8EC12F061
:100528000001DE6FDE51D26FD36BB5EC16F000011F
:10053800F14BF22BF25109E11E0EF15DD8A0A7EFA5
:1005480002F0A9EF02F065EF02F0DF0ECC6F7F0E2C
:10055800CD6FB5EC16F061EF00F0F29E450ECC6F52
:100568007E0ECD6FB5EC16F03B0E126E680EC8EC21
:1005780012F00001DE6FDE51E06FDF6B3C0E126E91
:10058800680EC8EC12F00001E16FE151DF11E66F6F
:10059800E051E76F3D0E126E680EC8EC12F00001D4
:1005A800DE6FDE51E06FDF6B3E0E126E680EC8EC38
:1005B80012F00001E16FE151DF11E86FE051E96FDE
:1005C8003F0E126E680EC8EC12F00001DE6FDE51AD
:1005D800E06FDF6B400E126E680EC8EC12F000017F
:1005E800E16FE151DF11EA6FE051EB6F780ECC6FEC
:1005F8007F0ECD6FE6C0CEF0E7C0CFF0E6C0D0F0FA
:10060800E7C0D1F0B5EC16F0890E0001CC6F7F0E73
:10061800CD6FE8C0CEF0E9C0CFF0E8C0D0F0E9C0B7
:10062800D1F0B5EC16F09A0E0001CC6F7F0ECD6FAD
:10063800EAC0CEF0EBC0CFF0EAC0D0F0EBC0D1F00A
:10064800B5EC16F0F28EDF0E0001CC6F7F0ECD6F89
:10065800B5EC16F061EF00F02F0ECC6F7F0ECD6F6A
:10066800B5EC16F0430E126E680EC8EC12F00001DD
:10067800DE6FDE51E06FDF6B440E126E680EC8EC61
:1006880012F00001E16FE151DF11E66FE051E76F11
:10069800450E126E680EC8EC12F00001DE6FDE51D6
:1006A800E06FDF6B460E126E680EC8EC12F00001A8
:1006B800E16FE151DF11E86FE051E96F470E126E0B
:1006C800680EC8EC12F00001DE6FDE51E06FDF6BE0
:1006D800480E126E680EC8EC12F00001E16FE1518D
:1006E800DF11EA6FE051EB6F780ECC6F7F0ECD6FA4
:1006F800E6C0CEF0E7C0CFF0E6C0D0F0E7C0D1F05A
:10070800B5EC16F0890E0001CC6F7F0ECD6FE8C0F6
:10071800CEF0E9C0CFF0E8C0D0F0E9C0D1F0B5EC38
:1007280016F09A0E0001CC6F7F0ECD6FEAC0CEF0A6
:10073800EBC0CFF0EAC0D0F0EBC0D1F0B5EC16F0CA
:10074800DF0E0001CC6F7F0ECD6FB5EC16F061EFB8
:1007580000F0840ECC6F7B0ECD6FB5EC16F084ECF8
:100768000EF00001F06F220ECC6F7B0ECD6FB5EC52
:1007780016F0220E0001CC6F7A0ECD6FF0C0CEF0CD
:10078800CF6BB5EC16F084EC0EF00001E46F220E8E
:10079800CC6F7B0ECD6FB5EC16F0F29EF0C012F068
:1007A800E4C013F0680E02EC13F0F30E0001CC6FF6
:1007B8007A0ECD6F000ECF6F680ECE6FF0C0D0F0FE
:1007C800D16BE4C0D2F0D36BB5EC16F0F28EDF0E2D
:1007D8000001CC6F7F0ECD6FB5EC16F061EF00F025
:1007E800840ECC6F7B0ECD6FB5EC16F084EC0EF05A
:1007F8000001F06F220ECC6F7B0ECD6FB5EC16F0BA
:10080800F29E250E0001CC6F7B0ECD6F000ECF6FD0
:10081800680ECE6FF0C0D0F0D16BF0C012F0680E49
:10082800C8EC12F00001DE6FDE51D26FD36BB5EC6D
:1008380016F0F28EDF0E0001CC6F7F0ECD6FB5EC97
:1008480016F061EF00F0C90ECC6F7E0ECD6FB5ECDF
:1008580016F059EF04F080BC34EF04F036EF04F0E2
:1008680044EF04F0DE0E0001CC6F7E0ECD6FB5ECC8
:1008780016F080AC42EF04F044EF04F03DEF04F0D2
:1008880080BE49EF04F04BEF04F059EF04F0E60E98
:100898000001CC6F7D0ECD6FB5EC16F080AE57EF32
:1008A80004F059EF04F052EF04F05AEC17F0000985
:1008B800D8B461EF04F063EF04F02FEF04F076ECA6
:1008C80016F061EF00F0C90ECC6F7E0ECD6FB5EC5F
:1008D80016F09FEF04F0000E046E000E036EB3ECEA
:1008E80017F0F294F2A47BEF04F07DEF04F076EFBA
:1008F80004F089808A8A8B8A000E046E000E036ECB
:10090800B3EC17F0F294F2A48CEF04F08EEF04F03D
:1009180087EF04F089908A9A8B9A000E046E000E75
:10092800036EB3EC17F0F294F2A49DEF04F09FEF7E
:1009380004F098EF04F05AEC17F00009D8B4A7EFC8
:1009480004F0A9EF04F06FEF04F063EF04F0670E12
:10095800CC6F7F0ECD6FE5C0CEF0CF6BB5EC16F047
:10096800DF0E0001CC6F7F0ECD6FB5EC16F061EF96
:1009780000F00001E551DE6FDF6BDF51000AD8B4EB
:10098800C8EF04F0ABEF04F0DE512B0AD8B496EFB1
:1009980001F0060AD8B496EF01F0120AD8B47AEF3B
:1009A80000F07E0AD8B461EF02F0130AD8B4F4EF6D
:1009B80003F0050AD8B4ADEF03F00D0AD8B412EF6E
:1009C80001F03B0AD8B4B1EF02F0030AD8B427EF1C
:1009D80004F0060AD8B453EF01F0030AD8B430EF94
:1009E80003F00E0AD8B47EEF01F0050AD8B467EF19
:1009F80004F0030AD8B447EF02F01D0AD8B4F4EFA4
:100A080001F0080AD8B433EF01F0ABEF04F01FEFA0
:100A180000F049C0D9FF4AC0DAFFDECFF6FFDDCFCC
:100A2800F7FF0800F550250AD8A41DEF05F01FEFC1
:100A380005F08FEF07F049C0D9FF4AC0DAFFDE2A78
:100A4800000EDD22000E0001876F000E866F86C043
:100A58005BF087C05CF088698969000EC86F000E7A
:100A6800C76F7DEF05F05B8049C0D9FF4AC0DAFF48
:100A7800DE2A000EDD227DEF05F05B8238EF05F0FF
:100A88005B8438EF05F05B8638EF05F05B8838EF5C
:100A980005F0000EC86F010EC76F7DEF05F049C065
:100AA800D9FF4AC0DAFFDECFF6FFDDCFF7FF080037
:100AB800F5504D6E4E6A4E50000AD8B466EF05F0F8
:100AC8004DEF05F04D50200AD8B447EF05F0030A62
:100AD800D8B44AEF05F0080AD8B444EF05F0060A7E
:100AE800D8B437EF05F01D0AD8B441EF05F04DEF43
:100AF80005F0C751C811D8B484EF05F086EF05F0AA
:100B080053EF05F05BA08BEF05F08DEF05F08EEF4E
:100B180005F05B9249C0D9FF4AC0DAFFDECFF6FF85
:100B2800DDCFF7FF0800F5502A0AD8A49EEF05F09C
:100B3800A0EF05F0C9EF05F049C0D9FF4AC0DAFFB8
:100B4800DE2A000EDD224BC0D9FF4CC0DAFFDFCF12
:100B58004DF0020EDE26DFCF4EF0000EDD224DC036
:100B6800D9FF4EC0DAFFDECF86F0DDCF87F087BF32
:100B7800C2EF05F0C0EF05F00DEF06F05B80866D63
:100B8800871FD8B0872B0DEF06F049C0D9FF4AC0A0
:100B9800DAFFDECF0AF0DDCF0BF046EC0CF00AC02E
:100BA80086F00BC087F0E0EF05F049C0D9FF4AC0D6
:100BB800DAFFDE2A000EDD22D00E4D6EFF0E4E6EDD
:100BC80049C0D9FF4AC0DAFFDECFF6FFDDCFF7FF15
:100BD8000800F5504F6E506A4D504F264E50502227
:100BE80050500AE10A0E4F5CD8A0FDEF05F000EF67
:100BF80006F0010E01EF06F0000E0001C96FCA6B86
:100C0800C951CA11D8A40BEF06F00DEF06F0D9EFC1
:100C180005F049C0D9FF4AC0DAFFDECFF6FFDDCFC5
:100C2800F7FF0800F550630AD8A41DEF06F01FEF80
:100C380006F046EF06F049C0D9FF4AC0DAFFDE2ABF
:100C4800000EDD224BC0D9FF4CC0DAFFDFCF4DF0DC
:100C5800020EDE26DFCF4EF0000EDD224DC0D9FF9A
:100C68004EC0DAFFDF50CB6F47C00EF048C00FF020
:100C7800CBC010F0FFEC0EF00EC047F00FC048F0EC
:100C8800AAEF07F049C0D9FF4AC0DAFFDECFF6FF66
:100C9800DDCFF7FF0800F550640AD8B456EF06F028
:100CA80058EF06F06AEF06F049C0D9FF4AC0DAFFEC
:100CB800DECFF6FFDDCFF7FF0800F550690AD8A4AC
:100CC80068EF06F06AEF06F0AAEF06F049C0D9FF10
:100CD8004AC0DAFFDE2A000EDD224BC0D9FF4CC025
:100CE800DAFFDFCF4DF0020EDE26DFCF4EF0000E2A
:100CF800DD224DC0D9FF4EC0DAFFDECFB5F0DDCF23
:100D0800B6F0000EB6BFFF0EB76FB86FB96FBA6F07
:100D1800BB6FBC6F47C020F048C021F0B5C022F0BF
:100D2800B6C023F0B7C024F0B8C025F0B9C026F08B
:100D3800BAC027F0BBC028F0BCC029F0ABEC07F064
:100D480020C047F021C048F0AAEF07F049C0D9FFFA
:100D58004AC0DAFFDECFF6FFDDCFF7FF0800F55017
:100D6800730AD8A4BAEF06F0BCEF06F0E7EF06F076
:100D780049C0D9FF4AC0DAFFDE2A000EDD224BC087
:100D8800D9FF4CC0DAFFDFCF4DF0020EDE26DFCFF1
:100D98004EF0000EDD224DC0D9FF4EC0DAFFDECF87
:100DA800C5F0DDCFC6F047C00EF048C00FF0C5C093
:100DB80010F0C6C011F07AEC0BF00EC047F00FC06F
:100DC80048F0AAEF07F049C0D9FF4AC0DAFFDECFE2
:100DD800F6FFDDCFF7FF0800F550780AD8B4F7EF33
:100DE80006F0F9EF06F00BEF07F049C0D9FF4AC04B
:100DF800DAFFDECFF6FFDDCFF7FF0800F550580A1F
:100E0800D8A409EF07F00BEF07F059EF07F049C036
:100E1800D9FF4AC0DAFFDECFF6FFDDCFF7FF0800C3
:100E2800F5CFCBF049C0D9FF4AC0DAFFDE2A000E61
:100E3800DD224BC0D9FF4CC0DAFFDFCF4DF0020EE8
:100E4800DE26DFCF4EF0000EDD224DC0D9FF4EC0AA
:100E5800DAFFDECF4FF0DDCF50F04FC0BDF050C00D
:100E6800BEF0BF6BC06BC16BC26BC36BC46B47C0BA
:100E780020F048C021F0BDC022F0BEC023F0BFC0A2
:100E880024F0C0C025F0C1C026F0C2C027F0C3C0FE
:100E980028F0C4C029F0CBC02AF01AEC09F020C011
:100EA80047F021C048F0AAEF07F049C0D9FF4AC06F
:100EB800DAFFDECFF6FFDDCFF7FF0800F550250A91
:100EC800D8A469EF07F06BEF07F082EF07F049C08D
:100ED800D9FF4AC0DAFFDE2A000EDD22000E066EB8
:100EE800250E056E47C007F048C008F070EC11F0F9
:100EF800000E486E010E476EAAEF07F049C0D9FFF1
:100F08004AC0DAFFDE2A000EDD22000E486E000E0F
:100F1800476EAAEF07F049C0D9FF4AC0DAFFDECF13
:100F2800F6FFDDCFF7FF0800F550056E066A47C0EB
:100F380007F048C008F070EC11F049C0D9FF4AC06A
:100F4800DAFFDE2A000EDD227CEF07F0120022C055
:100F58003AF023C03BF024C03CF025C03DF026C049
:100F68003EF027C03FF028C040F029C041F041BE04
:100F7800C0EF07F0C3EF07F0010EC4EF07F0000E53
:100F8800386E396A38503910D8B4CDEF07F0CFEF42
:100F980007F0DFEF07F0411E401E3F1E3E1E3D1EBC
:100FA8003C1E3B1E3A6C000E3B223C223D223E2258
:100FB8003F2240224122000189BFE5EF07F0E7EF19
:100FC80007F0E8EF07F05B9289BFF5EF07F089516A
:100FD80006E18805D8B0F3EF07F0F5EF07F0FBEF6F
:100FE80007F0000E356E010E346EFFEF07F088C073
:100FF80034F089C035F086C036F087C037F03850F5
:101008003910D8A40AEF08F00CEF08F013EF08F035
:101018005BA411EF08F013EF08F016EF08F036069E
:10102800D8A03706000E436E1F0E426E000EB46F36
:101038009AEF08F04206D8A04306950E4224D96ECE
:10104800000E4320DA6E3AC003F03BC004F03CC007
:1010580005F03DC006F03EC007F03FC008F040C0B4
:1010680009F041C00AF00A0E0B6E000E0C6E000E5D
:101078000D6E000E0E6E000E0F6E000E106E000E3E
:10108800116E000E126ED2EC0DF003C02AF004C0EF
:101098002BF005C02CF006C02DF007C02EF008C0BC
:1010A8002FF009C030F00AC031F02AC015F02CC06A
:1010B80016F006EC15F01550300FDF6E3406D8A088
:1010C80035063606D8A037063AC003F03BC004F010
:1010D8003CC005F03DC006F03EC007F03FC008F038
:1010E80040C009F041C00AF00A0E0B6E000E0C6EEB
:1010F800000E0D6E000E0E6E000E0F6E000E106EBE
:10110800000E116E000E126E0EEC0DF003C03AF0D8
:1011180004C03BF005C03CF006C03DF007C03EF0FF
:1011280008C03FF009C040F00AC041F043BEA5EF37
:1011380008F0435008E14204D8A0A5EF08F0A7EF53
:1011480008F0D7EF08F03A503B103C103D103E1025
:101158003F1040104110D8A4B4EF08F0B6EF08F0E3
:101168001EEF08F035BEC3EF08F0355006E1340431
:10117800D8B0C1EF08F0C3EF08F01EEF08F037BE93
:10118800CEEF08F0375008E13604D8A0CEEF08F0CB
:10119800D0EF08F0D7EF08F05BB2D5EF08F0D7EF43
:1011A80008F01EEF08F038503910D8A4DEEF08F028
:1011B800E0EF08F0E7EF08F05BA4E5EF08F0E7EFF1
:1011C80008F005EF09F04206D8A043063850391058
:1011D800D8A4F1EF08F0F3EF08F0F9EF08F0000EEB
:1011E800336E2B0E326EFDEF08F0000E336E2D0EAF
:1011F800326E950E4224D96E000E4320DA6E32C04C
:10120800DFFF20C015F021C016F0950E4224176E9E
:10121800000E4320186E36C019F037C01AF0CEEC15
:101228000FF015C020F016C021F01200000189BF90
:1012380020EF09F022EF09F023EF09F05B9289BF54
:1012480030EF09F0895106E18805D8B02EEF09F092
:1012580030EF09F036EF09F0000E386E010E376EE8
:101268003AEF09F088C037F089C038F086C039F005
:1012780087C03AF05BA843EF09F045EF09F049EF62
:1012880009F0FE0E3926FF0E3A2222C03BF023C099
:101298003CF024C03DF025C03EF026C03FF027C0FA
:1012A80040F028C041F029C042F0000E446E1F0EE5
:1012B800436E000EB46F14EF0AF04306D8A044063C
:1012C8000F0E3B14456E466A46BE74EF09F0465051
:1012D80009E10A0E455CD8A074EF09F076EF09F031
:1012E8007EEF09F0570E4524456E000E4620466EE7
:1012F80084EF09F0300E4524456E000E4620466EF8
:10130800BF0E2B6EFF0E2C6E2A502D6E2E6A2B50A0
:101318002D262C502E222E500AE11A0E2D5CD8A014
:1013280098EF09F09BEF09F0010E9CEF09F0000E11
:10133800336E346A33503410D8B4A5EF09F0A7EFF0
:1013480009F0D7EF09F09F0E2B6EFF0E2C6E200EC2
:1013580045102D6E000E46102E6E2B502D262C504B
:101368002E222E500AE11A0E2D5CD8A0BEEF09F0ED
:10137800C1EF09F0010EC2EF09F0000E356E366AB2
:1013880035503610D8B4CBEF09F0CDEF09F0D7EFD0
:1013980009F045C009F046C00AF0D2EC13F009C0C4
:1013A80045F00AC046F0950E4324D96E000E44203D
:1013B800DA6E45C0DFFF3706D8A038063906D8A050
:1013C8003A063BC02BF03CC02CF03DC02DF03EC08F
:1013D8002EF03FC02FF040C030F041C031F042C085
:1013E80032F0050E01EF0AF0D89032323132303245
:1013F8002F322E322D322C322B32E82EF8EF09F014
:101408002BC03BF02CC03CF02DC03DF02EC03EF070
:101418002FC03FF030C040F031C041F032C042F040
:1014280044BE20EF0AF0445009E1020E435CD8A004
:1014380020EF0AF022EF0AF052EF0AF03B503C107E
:101448003D103E103F10401041104210D8A42FEF1D
:101458000AF031EF0AF061EF09F038BE3EEF0AF00A
:10146800385006E13704D8B03CEF0AF03EEF0AF0F6
:1014780061EF09F03ABE49EF0AF03A5008E1390441
:10148800D8A049EF0AF04BEF0AF052EF0AF05BB22E
:1014980050EF0AF052EF0AF061EF09F05BA857EF3E
:1014A8000AF059EF0AF06FEF0AF04306D8A0440695
:1014B800950E4324D96E000E4420DA6E2AC0DFFF51
:1014C8004306D8A04406950E4324D96E000E442046
:1014D800DA6E300EDF6E20C015F021C016F0950EC2
:1014E8004324176E000E4420186E39C019F03AC014
:1014F8001AF0CEEC0FF015C020F016C021F0120043
:10150800E90E0001CC6F7F0ECD6FB5EC16F0000E22
:101518000001DD6F000EDC6FDC51DD11D8B497EFF0
:101528000AF099EF0AF0AEEF0AF0070EDC15D66F55
:10153800000EDD15D76FD651D711D8A4A6EF0AF043
:10154800A8EF0AF0AEEF0AF0EF0ECC6F7F0ECD6F6A
:10155800B5EC16F00001DC51DD11D8B4B6EF0AF095
:10156800B8EF0AF011EF0BF00F0EDC15D66F000E76
:10157800DD15D76FD651D711D8A4C5EF0AF0C7EF3C
:101588000AF011EF0BF0EE0ECC6F7F0ECD6FB5ECBD
:1015980016F0F00E0001DC25D86FFF0EDD21D96FA3
:1015A80000EF0BF0D851D425D96ED951D521DA6E78
:1015B800200EDF60E2EF0AF0E4EF0AF0ECEF0AF049
:1015C800FB0ECC6F7F0ECD6FB5EC16F0FDEF0AF079
:1015D800F80ECC6F7F0ECD6FD851D425D96ED95166
:1015E800D521DA6EDF50D66FD651CE6FCF6BB5EC02
:1015F80016F00001D84BD92BDC51D85DDD51D959F3
:10160800D8A009EF0BF00BEF0BF0D6EF0AF0220E83
:10161800CC6F7B0ECD6FB5EC16F0D90E0001CC6FF8
:101628007F0ECD6FDC51D425D96EDD51D521DA6E10
:10163800DF50D66FD651CE6FCF6BB5EC16F00001E8
:10164800DC4BDD2B020EDD5DD8A02DEF0BF02FEF6C
:101658000BF090EF0AF0ED0ECC6F7F0ECD6FB5EC6E
:1016680016F0F00E0001DC25DA6FFF0EDD21DB6FCE
:1016780068EF0BF0DA51D425D96EDB51D521DA6E3B
:10168800200EDF604AEF0BF04CEF0BF054EF0BF03D
:10169800FB0ECC6F7F0ECD6FB5EC16F065EF0BF03F
:1016A800F80ECC6F7F0ECD6FDA51D425D96EDB5191
:1016B800D521DA6EDF50D66FD651CE6FCF6BB5EC31
:1016C80016F00001DA4BDB2BDC51DA5DDD51DB591A
:1016D800D8A071EF0BF073EF0BF03EEF0BF0220E7A
:1016E800CC6F7B0ECD6FB5EC16F0120020EEF3F048
:1016F80010EE13F0060EDBCFE3FFE806FCE210C0A5
:101708001EF011C01FF01E501F10D8A48EEF0BF052
:1017180090EF0BF094EF0BF0130E1E6E000E1F6E81
:101728001EC003F01FC004F07BEC14F003C022F0CD
:1017380004C023F088C020F089C021F021BEA7EFA3
:101748000BF0A9EF0BF0BEEF0BF02250205C2150FC
:10175800800A126E2350800A1258D8A0B6EF0BF0F8
:10176800B8EF0BF0BAEF0BF0BEEF0BF020C022F091
:1017780021C023F022C020F023C021F086C01CF035
:1017880087C01DF05BB0CBEF0BF0CDEF0BF0EAEFAD
:101798000BF0DBEF0BF0000E066E200E056E0EC090
:1017A80007F00FC008F070EC11F0224A232A1C50F1
:1017B800225C2350800A126E1D50800A1258D8A04D
:1017C800E8EF0BF0EAEF0BF0CFEF0BF0000E1B6E1B
:1017D800000E1A6E0EEF0CF01EC0F6FF1FC0F7FFCA
:1017E800F86A050EF76403D00800F55005D0F6CF67
:1017F800E9FFF7CFEAFFEF50126E1250056E066A46
:101808000EC007F00FC008F070EC11F01E4A1F2A36
:101818001A4A1B2A20501A5C1B50800A126E21504B
:10182800800A1258D8A01BEF0CF01DEF0CF0F0EF57
:101838000BF05BA022EF0CF024EF0CF041EF0CF062
:1018480032EF0CF0000E066E200E056E0EC007F08B
:101858000FC008F070EC11F0224A232A1C50225CB9
:101868002350800A126E1D50800A1258D8A03FEFEC
:101878000CF041EF0CF026EF0CF022C00EF023C064
:101888000FF01200000E186E000E176E000E116E8B
:10189800000E106E52EF0CF00A4A0B2A010E166E5B
:1018A8000AC0F6FF0BC0F7FF0800F550200AD8B4AD
:1018B80060EF0CF062EF0CF07FEF0CF0F70E0C6E9F
:1018C800FF0E0D6E0AC0F6FF0BC0F7FF0800F550BB
:1018D8000E6E0F6A0C500E260D500F220F5009E1A4
:1018E800050E0E5CD8A07BEF0CF07DEF0CF07FEFBF
:1018F8000CF0000E166E16C012F0136A1250131078
:10190800D8A489EF0CF08BEF0CF050EF0CF095EFAA
:101918000CF0000E116E010E106E0A4A0B2ACAEF67
:101928000CF00AC0F6FF0BC0F7FF0800F5500C6E6C
:101938000D6A0D50000AD8B4A4EF0CF0CAEF0CF0F1
:101948000C502B0AD8B491EF0CF0060AD8B48DEFDE
:101958000CF0CAEF0CF017C003F018C004F0000E2A
:10196800066E0A0E056EC8EC16F00AC0F6FF0BC02C
:10197800F7FF0800F550035E000E045A300E0324EA
:10198800176E000E0420186E91EF0CF0D00E0C6E3E
:10199800FF0E0D6E0AC0F6FF0BC0F7FF0800F550EA
:1019A8000E6E0F6A0C500E260D500F220F500AE1D2
:1019B8000A0E0E5CD8A0E3EF0CF0E6EF0CF0010E77
:1019C800E7EF0CF0000E146E156A14501510D8A429
:1019D800F0EF0CF0F2EF0CF0AFEF0CF0105011102C
:1019E800D8A4F9EF0CF0FBEF0CF009EF0DF017C0DD
:1019F8000CF018C00DF00C1E0D1E0C4A0D2A0CC060
:101A08000AF00DC00BF00DEF0DF017C00AF018C06A
:101A18000BF01200000E146E12BE17EF0DF015EF4A
:101A28000DF029EF0DF0121E111E101E0F1E0E1EB6
:101A38000D1E0C1E0B6C000E0C220D220E220F2206
:101A4800102211221222010E146E0ABE30EF0DF080
:101A58002EEF0DF042EF0DF00A1E091E081E071E9C
:101A6800061E051E041E036C000E04220522062213
:101A78000722082209220A22010E141A20EE15F064
:101A8800070EDE6AE806FDE20B500C100D100E1072
:101A98000F10101011101210D8B455EF0DF057EFA9
:101AA8000DF0A9EF0DF0010E136E65EF0DF0D89053
:101AB8000B360C360D360E360F36103611361236FA
:101AC800132A12AE6AEF0DF06CEF0DF05BEF0DF01C
:101AD800D890153616361736183619361A361B3674
:101AE8001C360B50035C0C5004580D5005580E5012
:101AF80006580F50075810500858115009581250DE
:101B08000A58D8A08AEF0DF08CEF0DF09DEF0DF07C
:101B18000B50035E0C50045A0D50055A0E50065ACD
:101B28000F50075A1050085A1150095A12500A5AA1
:101B38001580D8901232113210320F320E320D3217
:101B48000C320B32132E6CEF0DF01450D8B4AFEFEB
:101B58000DF0B1EF0DF0C1EF0DF01C1E1B1E1A1E8B
:101B6800191E181E171E161E156C000E1622172297
:101B7800182219221A221B221C2215C003F016C093
:101B880004F017C005F018C006F019C007F01AC015
:101B980008F01BC009F01CC00AF01200000E146EF9
:101BA8000ABEDBEF0DF0D9EF0DF0EDEF0DF00A1ED8
:101BB800091E081E071E061E051E041E036C000EC5
:101BC8000422052206220722082209220A22010EDF
:101BD800146E12BEF4EF0DF0F2EF0DF004EF0EF0FC
:101BE800121E111E101E0F1E0E1E0D1E0C1E0B6C3B
:101BF800000E0C220D220E220F2210221122122278
:101C08000B500C100D100E100F1010101110121098
:101C1800D8B411EF0EF013EF0EF05BEF0EF0010EDB
:101C2800136E21EF0EF0D8900B360C360D360E36AB
:101C38000F36103611361236132A12AE26EF0EF072
:101C480028EF0EF017EF0EF00B50035C0C50045801
:101C58000D5005580E5006580F5007581050085888
:101C68001150095812500A58D8A03DEF0EF03FEF16
:101C78000EF04FEF0EF00B50035E0C50045A0D504F
:101C8800055A0E50065A0F50075A1050085A11504C
:101C9800095A12500A5AD8901232113210320F32A1
:101CA8000E320D320C320B32132E28EF0EF0145078
:101CB800D8B461EF0EF063EF0EF073EF0EF00A1E6A
:101CC800091E081E071E061E051E041E036C000EB4
:101CD8000422052206220722082209220A2203C01A
:101CE80003F004C004F005C005F006C006F007C004
:101CF80007F008C008F009C009F00AC00AF012008D
:101D0800F10E0001CC6F7F0ECD6FB5EC16F05AECDA
:101D180017F00009D8A493EF0EF095EF0EF08BEFB3
:101D28000EF0000E0001D46FF0EF0EF02F0ED56507
:101D3800A0EF0EF0A2EF0EF0BAEF0EF03A0ED5615A
:101D4800A8EF0EF0AAEF0EF0BAEF0EF0F80ECC6F77
:101D58007F0ECD6FD5C0CEF0CF6BB5EC16F000017D
:101D6800D451100DF350D525D00FD46FD5C009F03C
:101D78000A6AD2EC13F00A5009E1410E095CD8A0B6
:101D8800C8EF0EF0CAEF0EF0F0EF0EF0D5C009F074
:101D98000A6AD2EC13F00A5007E1470E095CD8B082
:101DA800D8EF0EF0DAEF0EF0F0EF0EF0F80E0001BB
:101DB800CC6F7F0ECD6FD5C0CEF0CF6BB5EC16F0E3
:101DC800D5C009F00A6AD2EC13F00001D451100D05
:101DD800F3500924C90FD46F76EC16F00001D56FC3
:101DE8000D0ED519D8A4FBEF0EF0FDEF0EF09AEF0B
:101DF8000EF0D4511200000186518711D8A407EFC4
:101E08000FF009EF0FF00FEF0FF086C014F087C046
:101E180015F015EF0FF0FF0E8625146EFF0E8721C3
:101E2800156E5BA01AEF0FF01CEF0FF025EF0FF007
:101E380010C005F0066A0EC007F00FC008F070EC7D
:101E480011F015BE2AEF0FF02CEF0FF02EEF0FF068
:101E580032EF0FF0000E156E000E146E000E136EAA
:101E6800000E126E44EF0FF0000E066E200E056E87
:101E78000EC007F00FC008F070EC11F0124A132AD8
:101E88001450125C1350800A116E1550800A1158B4
:101E9800D8A051EF0FF053EF0FF038EF0FF05BB011
:101EA80058EF0FF05AEF0FF063EF0FF010C005F086
:101EB800066A0EC007F00FC008F070EC11F0010EB2
:101EC80012240E6E000E13200F6E12006EEC17F027
:101ED8000009D8B472EF0FF074EF0FF0B1EF0FF004
:101EE80082EF0FF0EDEC17F0CDEF0FF0E9EC17F003
:101EF800CDEF0FF0E1EC17F0CDEF0FF072C00CF062
:101F080073C00DF020EE66F002D895EF0FF00500D3
:101F1800FA6EDE50FD6EDE50FE6EF850FF6EFA501F
:101F280012000E6E0F6A0F50000AD8B49EEF0FF021
:101F38007EEF0FF00E50010AD8B47EEF0FF0030ABF
:101F4800D8B476EF0FF0010AD8B47AEF0FF0070A89
:101F5800D8B47EEF0FF07EEF0FF0000183917DC0C3
:101F6800D9FF7EC0DAFF7D4B7E2BDF50F1EC17F0F6
:101F780000017F07D8A080077F518011D8A4C7EF40
:101F88000FF0C9EF0FF0CCEF0FF0060ECDEF0FF00A
:101F9800030E12005BA0D3EF0FF0D5EF0FF0DFEFC9
:101FA8000FF017C00EF018C00FF015C010F016C0D3
:101FB80011F0A2EC14F01ABEE4EF0FF0E6EF0FF008
:101FC800ECEF0FF019C01EF01AC01FF0F0EF0FF081
:101FD800000E1F6E000E1E6E000E1D6E000E1C6E93
:101FE80002EF10F0000E066E200E056E15C007F009
:101FF80016C008F070EC11F01C4A1D2A1E501C5C1B
:102008001D50800A1B6E1F50800A1B58D8A00FEF66
:1020180010F011EF10F0F6EF0FF05BB016EF10F0C4
:1020280018EF10F022EF10F017C00EF018C00FF0E4
:1020380015C010F016C011F0A2EC14F017C003F090
:1020480018C004F07BEC14F01E500324156E1F50CA
:102058000420166E12000001D86F0001D85124EC3C
:1020680011F08A98FF0E2AEC17F0410E2AEC17F0AF
:10207800000E2AEC17F0000E2AEC17F0000E2AECDE
:1020880017F0000E2AEC17F0FF0E2AEC17F0FF0EDF
:102098002AEC17F0FF0E2AEC17F00001D96F8A8896
:1020A800D951D8A45AEF10F05CEF10F035EF10F0CA
:1020B800D805D8A462EF10F064EF10F06DEF10F0BF
:1020C800B30ECC6F7D0ECD6FD9C0CEF0CF6BB5EC13
:1020D80016F053EC14F00001D96FD805D8A477EFA7
:1020E80010F079EF10F082EF10F0610ECC6F7D0EDA
:1020F800CD6FD9C0CEF0CF6BB5EC16F0120005EC61
:1021080018F07DC0D9FF7EC0DAFFDF6E00017D4B7D
:102118007E2B7F07D8A080077F518011D8B497EF16
:1021280010F099EF10F09EEF10F0F9EC17F0050E93
:10213800D6EF10F08387A9EF10F0D5EC17F0D6EFA3
:1021480010F0D9EC17F0D6EF10F06CC00CF06DC0A1
:102158000DF002D8BAEF10F00500FA6E6051FD6E6E
:102168006151FE6EF850FF6EFA5012000E6E0F6A43
:102178000F50000AD8B4C3EF10F0A5EF10F00E50BE
:10218800010AD8B4A5EF10F0030AD8B4A1EF10F0F3
:10219800010AD8B4A1EF10F0070AD8B4A5EF10F0DF
:1021A800A5EF10F012008A98FF0E2AEC17F0510ED6
:1021B8002AEC17F007502AEC17F006502AEC17F013
:1021C80005502AEC17F004502AEC17F0FF0E2AEC01
:1021D80017F0FF0E2AEC17F0FF0AD8B4F6EF10F04C
:1021E800F8EF10F0EDEF10F0FF0E2AEC17F0FF0AF1
:1021F800D8B401EF11F003EF11F0F8EF10F0000E72
:102208000B6E000E0A6E0A500824D96E0B50092076
:10221800DA6EFF0E2AEC17F0DF6E0A4A0B2A020E5E
:102228000B5CD8A01AEF11F01CEF11F007EF11F0BA
:10223800FF0E2AEC17F0FF0E2AEC17F08A8812001E
:102248000001D46F000E0001D76F000ED66FFF0E8D
:102258002AEC17F00001D64BD72BD7BF3DEF11F072
:10226800D75109E10A0ED65DD8A03DEF11F03FEF36
:1022780011F02BEF11F08A98FF0E2AEC17F0400EA0
:102288002AEC17F0000E2AEC17F0000E2AEC17F0D3
:10229800000E2AEC17F0000E2AEC17F0950E2AEC27
:1022A80017F0FF0E2AEC17F0FF0E2AEC17F00001CA
:1022B800D56F8A88D405D8A464EF11F066EF11F0C1
:1022C8006FEF11F07D0ECC6F7D0ECD6FD5C0CEF0C7
:1022D800CF6BB5EC16F0120007500810D8B477EFA2
:1022E80011F079EF11F082EF11F007500810D8A41F
:1022F80080EF11F082EF11F087EF11F00550CCEC70
:1023080017F0BAEF11F020EE04F00750D926085064
:10231800DA22DE50DE10D8B494EF11F096EF11F007
:10232800B1EF11F020EE04F00750D9260850DA2258
:1023380010EE02F00750E1260850E222DE50E65C7B
:10234800E650800A0D6EDE50800A0D58D8B0AFEF07
:1023580011F0B1EF11F0BAEF11F020EE02F00750D2
:10236800D9260850DA22DE2A000EDD221200046E79
:102378006CBAC1EF11F0C3EF11F004EF12F0045082
:10238800040D010EF326000EF4228F0EF324F66ED0
:10239800770EF420F76E0800F5CF6DFF0450040D9A
:1023A8008F0EF324F66E770EF420F76E0800F5CF43
:1023B8006CFF000E6B6E0450040D020EF326000E27
:1023C800F4228F0EF324F66E770EF420F76E0800D1
:1023D800F5CF6EFF0450040D030EF326000EF42211
:1023E8008F0EF324F66E770EF420F76E0800F5CF03
:1023F80003F0034693500318FD0B0318936E6C8A81
:102408001200036E010E046E000183B50EEF12F088
:1024180010EF12F04AEF12F003C07CF0839383852B
:1024280083910E0E816F010E7B6FF40E7A6F838796
:10243800160E606F300E616F000E6C6F000E6D6FC0
:10244800160E626F300E636F000E6E6F000E6F6FA8
:10245800160E646F300E656F000E706F000E716F90
:10246800160E666F300E676F000E726F000E736F78
:10247800120E686F300E696F000E746F000E756F64
:1024880017EC18F0EDEC16F0000E046E0450120074
:10249800000183875DEF12F0E5EC17F08AEF12F088
:1024A80003EC18F0030E8AEF12F0E1EC17F08AEF54
:1024B80012F06CC00CF06DC00DF002D86EEF12F087
:1024C8000500FA6E6051FD6E6151FE6EF850FF6EA8
:1024D800FA5012000E6E0F6A0F50000AD8B477EF48
:1024E80012F059EF12F00E50010AD8B459EF12F059
:1024F800030AD8B450EF12F0010AD8B450EF12F022
:10250800070AD8B454EF12F059EF12F01200076E10
:1025180003500410D8B493EF12F095EF12F0AFEF18
:1025280012F00750020D600EF324D96E000EF4204D
:10253800DA6E03C0DEFF04C0DDFF0750020D6C0E2B
:10254800F324D96E000EF420DA6E05C0DEFF06C053
:10255800DDFFC7EF12F00750020D600EF324D96EAD
:10256800000EF420DA6E160EDE6E300EDD6E0750A9
:10257800020D6C0EF324D96E000EF420DA6E000EF4
:10258800DE6E000EDD6E1200136E000E146E135018
:1025980005EC12F00009D8B4D4EF12F0D6EF12F01F
:1025A800CBEF12F0680E086E2C0E096E140E0A6E30
:1025B800000E0B6E43EC17F0120E036E000E046E45
:1025C800000E066E010E056EDBEC16F0000E086EAE
:1025D800000E096E000E0A6E000E0B6E37EC17F037
:1025E800D1EC17F060EC16F0E806D8B4FEEF12F064
:1025F80000EF13F0F6EF12F014501200146E14509E
:1026080005EC12F00009D8B40CEF13F00EEF13F03C
:1026180003EF13F0100E086E2C0E096E130E0A6EDF
:10262800000E0B6E43EC17F0120E036E000E046ED4
:10263800000E066E010E056EDBEC16F0000E086E3D
:10264800000E096E000E0A6E000E0B6E37EC17F0C6
:10265800D1EC17F060EC16F0E806D8B436EF13F0BA
:1026680038EF13F02EEF13F0120000018391020EE1
:10267800826F47EF13F0E5EC17F06EEF13F0E1EC23
:1026880017F06EEF13F070C00CF071C00DF020EE73
:1026980064F002D85AEF13F00500FA6EDE50FD6EB2
:1026A800DE50FE6EF850FF6EFA5012000E6E0F6A82
:1026B8000F50000AD8B463EF13F043EF13F00E5035
:1026C800020AD8B43FEF13F0010AD8B43FEF13F071
:1026D80043EF13F0120017EC18F0000183A177EF15
:1026E80013F079EF13F086EF13F06EEC17F0000992
:1026F800D8B481EF13F083EF13F086EF13F00F0EC9
:102708000001816F00018151020D510EF324F66E14
:10271800770EF420F76E02D89EEF13F00500FA6EDC
:102728000900F550FD6E0900F550FE6EF850FF6E79
:10273800FA5012000001816F120053C057F054C0C4
:1027480058F0000E0001856F000E846FBFEF13F084
:1027580051C047F052C048F0570E496E000E4A6EFD
:1027680055C04BF056C04CF00DEC05F04750000139
:1027780084274850852357C0F6FF58C0F7FF080044
:10278800F5500009D8A4CBEF13F0CDEF13F0ACEF60
:1027980013F084C051F085C052F012009F0E0B6EEA
:1027A800FF0E0C6E09C00DF00AC00EF00B500D267E
:1027B8000C500E220E500AE11A0E0D5CD8A0E7EF5D
:1027C80013F0EAEF13F0010EEBEF13F0000E0F6EAB
:1027D800106A0F501010D8B4F4EF13F0F6EF13F09E
:1027E800FCEF13F05F0E0914096E0A6A00EF14F08B
:1027F80009C009F00AC00AF01200EA0EF66E2F0EA0
:10280800F76E000EF86E00EEF3F010EE07F0090018
:10281800F5CFEEFFE550E150FAE100EEFAF014EEE4
:1028280002F0EE6AE550E150FCE1E250FAE100EE18
:1028380060F0550EEE6AE806FDE15C6A5B6A5D9041
:102848005D92000EF86E000121EF00F0010E096E96
:10285800200E03180410D8B434EF14F036EF14F037
:102868004FEF14F0F70E056EFF0E066E03C007F06B
:1028780004C008F00550072606500822085009E150
:10288800050E075CD8A04BEF14F04DEF14F04FEF96
:1028980014F0000E096E09C003F0046A12008A9849
:1028A800FF0E2AEC17F0500E2AEC17F0000E2AEC57
:1028B80017F0000E2AEC17F0020E2AEC17F0000EA3
:1028C8002AEC17F0FF0E2AEC17F0FF0E2AEC17F08F
:1028D800FF0E2AEC17F0046E8A880428D8B477EF24
:1028E80014F079EF14F053EF14F00450120003C001
:1028F80005F004C006F083EF14F0034A042A03C06D
:10290800F6FF04C0F7FFF86A050EF76403D0080065
:10291800F55005D0F6CFE9FFF7CFEAFFEF500009F1
:10292800D8A499EF14F09BEF14F081EF14F0055040
:10293800035C036E06500458046E1200000E146EF9
:10294800000E136EB3EF14F012C005F0066A10C043
:1029580007F011C008F070EC11F0134A142A135054
:102968000E24D96E14500F20DA6EDF50126E1250FA
:10297800D8A4C1EF14F0C3EF14F0A8EF14F01200BC
:10298800106E010E116E000183B3CDEF14F0CFEF7E
:1029980014F0E4EF14F08383000E116E1050D8B4D5
:1029A800D8EF14F0DAEF14F0DEEF14F0010E816FB7
:1029B800E0EF14F0020E816F11EC18F00DEC17F037
:1029C80011501200080EB86E900EAB6E240EAC6E4D
:1029D800820EAF6E060EB06E000E036E000E046E11
:1029E800C2EC17F0000E036E000E046EBDEC17F07B
:1029F800000E036E000E046EC7EC17F0000E000107
:102A0800946F120016BE13EF15F0165006E1150468
:102A1800D8B011EF15F013EF15F021EF15F015C030
:102A280017F016C018F0171E181E174A182A17C0D4
:102A380015F018C016F025EF15F015C015F016C0E2
:102A480016F0120020EE02F00C50D9260D50DA22B2
:102A5800DECF03F0DDCF04F00CC0D9FF0DC0DAFFE4
:102A6800DECF05F0DDCF06F0DBEC16F0000E086EC9
:102A7800000E096E000E0A6E000E0B6E43EC17F086
:102A8800020E12009F0E056EFF0E066E200E03103A
:102A9800076E000E0410086E05500726065008221F
:102AA80008500AE11A0E075CD8A05DEF15F060EF38
:102AB80015F0010E61EF15F0000E036E046A1200A6
:102AC800F29400019151D76E90C0D6FF92519311A4
:102AD800D8B471EF15F073EF15F080EF15F002D848
:102AE80080EF15F00500FA6E9251FD6E9351FE6E5F
:102AF800F850FF6EFA5012001200D59C020ED76EE5
:102B0800170ED66ED650D7CF05F0066A05C006F068
:102B1800056A05100001906F0650916FF294F28AD1
:102B2800320E036E300E046EB8EC17F0930ED56EAD
:102B380012009F0E056EFF0E066E03C007F004C05C
:102B480008F0055007260650082208500AE11A0E18
:102B5800075CD8A0B2EF15F0B5EF15F0010EB6EF8F
:102B680015F0000E036E046A1200BF0E056EFF0E0C
:102B7800066E03C007F004C008F00550072606508B
:102B8800082208500AE11A0E075CD8A0CEEF15F00B
:102B9800D1EF15F0010ED2EF15F0000E036E046AA6
:102BA8001200D00E056EFF0E066E03C007F004C0BB
:102BB80008F0055007260650082208500AE10A0EB8
:102BC800075CD8A0EAEF15F0EDEF15F0010EEEEF77
:102BD80015F0000E036E046A1200000E896E000ED6
:102BE8008A6E000E8B6EFE0E926EC50E936E9F0E51
:102BF800946E000E0F013A6F210E396F2E0E386F4A
:102C0800000E616EF18E12000CC003F00DC004F0CE
:102C1800000E066E010E056EDBEC16F0000E086E57
:102C2800000E096E000E0A6E000E0B6E43EC17F0D4
:102C3800040E12000CC003F00DC004F0000E066E66
:102C4800020E056EDBEC16F0000E086E000E096E23
:102C5800000E0A6E000E0B6E43EC17F0020E120007
:102C68000CC003F00DC004F0000E066E010E056ED8
:102C7800DBEC16F0000E086E000E096E000E0A6EF0
:102C8800000E0B6E43EC17F0020E12000CC003F09E
:102C98000DC004F0000E066E020E056EDBEC16F099
:102CA800000E086E000E096E000E0A6E000E0B6E06
:102CB80043EC17F0040E1200010E036E000183B3FB
:102CC80068EF16F06AEF16F074EF16F083957C69DA
:102CD80017EC18F013EC18F015EC18F082C003F09C
:102CE800035012009EAA7BEF16F07DEF16F076EFE8
:102CF80016F0000E0001946FABA285EF16F087EF77
:102D080016F089EF16F0AB98AB88AE501200156E2E
:102D18001B0E126E680EC8EC12F0166EE70E161631
:102D28001538E842F80B16121B0E126E16C013F077
:102D3800680E02EC13F01200156E1C0E126E680E6F
:102D4800C8EC12F0166EE70E16161538E842F80BA6
:102D580016121C0E126E16C013F0680E02EC13F059
:102D68001200CE0E596E000E5A6E000E516E000EF5
:102D7800526ECCC053F0CDC054F0590E556E000EB3
:102D8800566EA1EC13F0120003500502F3CF07F0C2
:102D9800F4CF08F003500602F35008260450050249
:102DA800F350082607C003F008C004F01200000121
:102DB80083A7E1EF16F0E3EF16F0ECEF16F003C08F
:102DC8007DF004C07EF005C07FF006C080F08397D8
:102DD8001200C6BAF2EF16F0F4EF16F0FDEF16F097
:102DE800000EC76E080EC66E000EC56E270EC86EA2
:102DF800C68A1200FFEC17F064EC17F078EC17F0B5
:102E0800F1EC15F01CEC17F081EC15F0E6EC14F081
:102E1800120013EF17F089EC17F06FEC13F00001B4
:102E280083B319EF17F01BEF17F00FEF17F012002D
:102E3800700ED36E040ED26E400E9B6ED2AE27EF8C
:102E480017F029EF17F022EF17F01200036E03C0F6
:102E58006FFFA4AE32EF17F034EF17F02DEF17F035
:102E6800A49E6F50120008C003F009C004F00AC005
:102E780005F00BC006F0020E8BEC12F0120008C031
:102E880003F009C004F00AC005F00BC006F0000EFC
:102E98008BEC12F01200036E9EA855EF17F057EF57
:102EA80017F050EF17F003C0ADFF12009EBA5FEFA6
:102EB80017F062EF17F0010E63EF17F0000E120023
:102EC800000EC76E080EC66E000EC56E270EC86EC1
:102ED800C69A1200C5BC73EF17F076EF17F0010E13
:102EE80077EF17F0000E1200400E6D6E010E6C6E3B
:102EF800010E6E6E93926C9A12006B0E126E000E9B
:102F0800136E680E02EC13F012009EA68EEF17F0F7
:102F180090EF17F089EF17F01200000183817C51C0
:102F28007C25F1EC17F0030E120000018381D88094
:102F38007C35F1EC17F0050E120000018393000EAA
:102F4800826F0E0E12000001839107EC18F0040E38
:102F5800120000018393000E826F0E0E12000450BF
:102F6800D76E03C0D6FF120003C092F004C093F0DE
:102F7800120003C08CF004C08DF0120003C08EF064
:102F880004C08FF0120003C08AF004C08BF0120056
:102F9800046E04504FEC17F01200000EC4EC14F04D
:102FA8001200FCEC17F0090E1200FCEC17F00A0EE8
:102FB8001200F9EC17F0050E12000DEC18F0000ED7
:102FC80012000FEC18F0010E12000FEC18F0020EB0
:102FD80012000FEC18F0010E1200036E03C0C9FFB7
:092FE8001200286E756C6C2900C2
:102FF200C59AC5881200C58AC5881200D09E1200E3
:103002006C9A12009E861200C9501200C5861200E8
:10301200050E1200010E1200C5841200C5821200B4
:10302200C58012009D961200C69A12009E9612004A
:0230320012008A
:10775000005A2F322F222FD41E06214E2F9824DAC2
:107760002FD22FCA2FC22FBA2FB22FAA2F422F7279
:10777000260D0E0F10191A1B1C2337383A3B3C3DBF
:107780003E3F4041424344454647486A6B6C750161
:1077900040010053454C465F544553545F58000028
:1077A0000000000000000053454C465F5445535410
:1077B0005F5900000000000000000053454C465F88
:1077C000544553545F5A000000000000000000536D
:1077D000454C465F544553545F4100000000000093
:1077E000000000534D504C52545F44495600000075
:1077F00000000000000000434F4E464947000000D3
:1078000000000000000000000000004759524F5FD8
:10781000434F4E4649470000000000000000004171
:107820004343454C5F434F4E46494700000000002C
:107830000000004649464F5F454E00000000000032
:1078400000000000000000494E545F50494E5F4365
:107850004647000000000000000000494E545F450C
:107860004E41424C4500000000000000000000496D
:107870004E545F5354415455530000000000000023
:10788000000000414343454C5F584F55545F48004A
:1078900000000000000000414343454C5F584F5535
:1078A000545F4C0000000000000000414343454C81
:1078B0005F594F55545F4800000000000000004130
:1078C0004343454C5F594F55545F4C000000000046
:1078D000000000414343454C5F5A4F55545F4800F8
:1078E00000000000000000414343454C5F5A4F55E3
:1078F000545F4C000000000000000054454D505FF4
:107900004F55545F48000000000000000000005484
:10791000454D505F4F55545F4C0000000000000083
:107920000000004759524F5F584F55545F480000C0
:10793000000000000000004759524F5F584F555457
:107940005F4C0000000000000000004759524F5FEC
:10795000594F55545F4800000000000000000047E8
:1079600059524F5F594F55545F4C000000000000C2
:107970000000004759524F5F5A4F55545F4800006E
:10798000000000000000004759524F5F5A4F555405
:107990005F4C000000000000000000555345525F9E
:1079A0004354524C00000000000000000000005052
:1079B00057525F4D474D545F3100000000000000FA
:1079C0000000005057525F4D474D545F3200000099
:1079D0000000000000000057484F5F414D5F495FC5
:1079E0004D50553630353000000000613A20726548
:1079F000616420616363656C65726174696F6E2098
:107A0000646174612072656769737465727320665E
:107A1000726F6D20746865204D5055363035300DCD
:107A20000A00456E7465722031206F722032206426
:107A3000696769742076616C756520746F20777250
:107A400069746520746F206164647265737320309B
:107A500078253032780D0A002D2D2D2D2D2D2D2D30
:107A60002D2D2D2D2D2D2D2D2D2D2D2D2D2D2D2D46
:107A70002D2D2D2D2D2D2D2D2D2D2D2D2D2D2D2D36
:107A80002D2D2D2D2D2D2D2D2D0D0A00673A207217
:107A9000656164206779726F73636F7065206461DC
:107AA0007461207265676973746572732066726FA2
:107AB0006D20746865204D5055363035300D0A0004
:107AC000573A20577269746520616E20617262694D
:107AD0007472617279204D505536303530207265A0
:107AE00067697374657220616E642076616C756578
:107AF0000D0A00493243315F57726974653142792A
:107B00007465526567697374657228307825303200
:107B1000782C203078253032782C2030782530327F
:107B200078290D0A00493243315F52656164314260
:107B30007974655265676973746572283078253089
:107B400032782C2030782530327829203D2030784A
:107B5000253032780D0A00413A2072656164206157
:107B60006C6C2074686520726567697374657273E4
:107B70002066726F6D20746865204D505536303523
:107B8000300D0A00456E7465722031206F7220320C
:107B9000206469676974206164647265737320741A
:107BA00068656E2068697420456E7465720D0A0000
:107BB000723A2072656164206120626C6F636B2091
:107BC0006F662025642062797465732066726F6D1C
:107BD00020534420636172640D0A00523A205265BA
:107BE000616420616E2061726269747261727920D1
:107BF0004D50553630353020726567697374657243
:107C00000D0A0020202020436F6E6E6563742047AC
:107C1000593532312053434C202020202020205041
:107C20004943205243330D0A0020202020436F6E29
:107C30006E6563742047593532312053444120200A
:107C40002020202020504943205243340D0A002098
:107C5000202020436F6E6E656374204759353231A2
:107C600020564343202020202020205049432056E6
:107C700043430D0A0020202020436F6E6E6563741D
:107C800020475935323120474E44202020202020E3
:107C90002050494320474E440D0A002D2F2B3A20F7
:107CA00064656372656173652F696E637265617384
:107CB00065207265616420616464726573730D0A86
:107CC000005375636365737366756C6C7920496ED8
:107CD000697469616C697A656420534420436172F8
:107CE000640D0A00496E6C616220636F6E6E65639D
:107CF00074696F6E20696E737472756374696F6EE8
:107D0000733A0D0A00623A207465737420646175D9
:107D1000676874657220626F617264204275747462
:107D20006F6E730D0A006C3A207465737420646181
:107D300075676874657220626F617264204C454497
:107D4000730D0A004572726F7220496E6974696121
:107D50006C697A696E6720534420436172640D0A2E
:107D600000426C6F636B204C656E677468205265CF
:107D700073706F6E73653A2025780D0A00434D4489
:107D8000302C20526573657420526573706F6E736A
:107D9000653A2025780D0A00643A2050726F6772A8
:107DA000616D20646F63756D656E746174696F6E6B
:107DB0000D0A00434D44312C20496E6974205265F0
:107DC00073706F6E73653A2025780D0A006F3A2044
:107DD000726573657420616363656C65726F6D6550
:107DE0007465720D0A00424F54544F4D2042555451
:107DF000544F4E20505245535345440D0A00693AA2
:107E000020496E697469616C697A65205344206306
:107E10006172640D0A007A3A20436C6561722074C5
:107E20006865207465726D696E616C0D0A0041436E
:107E30004D4420343120526573706F6E73653A2063
:107E400025780D0A00416363656C65726F6D65741A
:107E500065722076616C7565730D0A00434D442090
:107E6000353520526573706F6E73653A2025780D35
:107E70000A005344206361726420696E6974616C06
:107E8000697A65642E0D0A004461756768746572CD
:107E900020626F61726420746573740D0A0025306E
:107EA0003278202020202573202009202025303200
:107EB000780D0A00434D44203820526573706F6E70
:107EC00073653A2025780D0A00507265737320613E
:107ED0006E7920746F20657869742E0D0A00544FF6
:107EE0005020425554544F4E205052455353454410
:107EF0000D0A005A3A2052657365742070726F63E0
:107F00006573736F720D0A00526561642066726F4B
:107F10006D20616464726573733A20004D5055366C
:107F200030353020656E61626C65642E0D0A004745
:107F300079726F73636F70652076616C7565730D10
:107F40000A00534420636172642061646472657343
:107F5000733A202000466F72205049433138463230
:107F6000354B32320D0A00556E6B6E6F776E206B9B
:107F700065792025630D0A00583A20202530347891
:107F80002020202025640D0A00593A202025303475
:107F9000782020202025640D0A005A3A2020253020
:107FA00034782020202025640D0A003F3A204865BF
:107FB0006C70206D656E750D0A00446563726561B5
:107FC0007365642000496E637265617365642000A7
:107FD0004C61622031340D0A002530327820000DCA
:107FE0000A3E200025303478000D0A0A00202020A7
:107FF000003E3078002578002563002E003A00000E
:020000040020DA
:08000000FFFFFFFFFFFFFFFF00
:020000040030CA
:0E000000FF281F3CFFBF85FF0FC00FE00F4021
:00000001FF
