:0400000026EF00F0F7
:100008005282FACF03F0FBCF04F0F2AC0EEF00F00F
:1000180010EF00F020EF00F07DA215EF00F017EFD1
:1000280000F020EF00F07EA21CEF00F01EEF00F0C1
:1000380020EF00F00BEC11F004C0FBFF03C0FAFF47
:100048005292110052EF0FF0390EF66E750EF76EE0
:1000580021EE40F0200E0900F5CFDEFFE806FBE2B6
:1000680020EEA0F011EEA7F0290EDBCFE3FFE806A3
:10007800FCE2020E0101E06F000EDF6F20EE60F07F
:1000880011EE00F03F0EDBCFE3FFE806FCE221EEC5
:10009800E7F011EEA1F0050EDBCFE3FFE806FCE286
:1000A80029EC11F0C00E056E1F0E066E77EC13F0EA
:1000B800F28EF28C8A88A192000E066E000E056EF2
:1000C8004DEC12F0A1A26BEF00F06DEF00F066EFBF
:1000D80000F0770E116E7F0E126E6DEC09F0860E31
:1000E800116E7F0E126E6DEC09F0A40E116E7F0E6C
:1000F800126E6DEC09F0950E116E7A0E126E6DECA3
:1001080009F0030E066E0568E0EC11F0000E066EAD
:10011800000E056EC8EC11F0030E066E0568AFEC14
:1001280011F0030E066E056896EC11F047EC13F01B
:100138000009D8B4A2EF00F0A4EF00F09AEF00F0A5
:1001480061EC12F00101E36F30EF09F0000EE66F89
:10015800130EE665B2EF00F0B4EF00F0B6EF00F072
:10016800C0EF00F0B80E116E770E126E6DEC09F04C
:100178000101E62BACEF00F03A0E116E770E126E0D
:100188006DEC09F0950E116E7F0E126E6DEC09F094
:10019800D60E116E7F0E126E6DEC09F0AB0E116E5D
:1001A8007E0E126E6DEC09F0100E116E7E0E126E40
:1001B8006DEC09F0110E116E7F0E126E6DEC09F0E8
:1001C8006A0E116E7B0E126E6DEC09F0810E116EC7
:1001D8007E0E126E6DEC09F03F0E116E7E0E126EE1
:1001E8006DEC09F0C00E116E7E0E126E6DEC09F00A
:1001F800960E116E7E0E126E6DEC09F0EA0E116EFF
:100208007B0E126E6DEC09F0080E116E7C0E126EEC
:100218006DEC09F0AF0E116E7D0E126E6DEC09F0EB
:10022800960E116E7D0E126E6DEC09F03A0E116E7F
:10023800770E126E6DEC09F0C90E116E7F0E126EFC
:100248006DEC09F09AEF00F0BF0E116E7F0E126E82
:100258006DEC09F0C90E116E7F0E126E6DEC09F08F
:100268009AEF00F0000EE66F270EE6653EEF01F00C
:1002780040EF01F042EF01F04CEF01F0E50E116E96
:100288007F0E126E6DEC09F00101E62B38EF01F0DC
:10029800FF00C80E116E7F0E126E6DEC09F09AEF1A
:1002A80000F0000EE66F270EE6655DEF01F05FEFE8
:1002B80001F061EF01F06BEF01F0E50E116E7F0EBA
:1002C800126E6DEC09F00101E62B57EF01F0C70E35
:1002D800116E7F0E126E6DEC09F09AEF00F0E70ECA
:1002E800116E7F0E126E6DEC09F0D50E116E7E0E3A
:1002F800126E6DEC09F0BA0E116E7C0E126E6DEC7A
:1003080009F0FB0E116E770E126E6DEC09F0A00E5F
:10031800116E780E126E6DEC09F07B0E116E770E71
:10032800126E6DEC09F0360E116E780E126E6DECD1
:1003380009F0BB0E116E770E126E6DEC09F0BA0E55
:10034800116E7C0E126E6DEC09F0000E0101E66F65
:10035800F9EF01F080B4B3EF01F0B5EF01F0F9EF78
:1003680001F0E3EF01F00101E651020DA10EF324C3
:10037800D96E010EF420DA6EDECF35F0DDCF36F01F
:10038800351C056E361C066E4DEC12F0A192A1A22A
:10039800D0EF01F0D2EF01F0CBEF01F08BB8D7EF3F
:1003A80001F0DAEF01F0010EDBEF01F0000EFF0AB9
:1003B800356E353A8B503518EF0B35188B6E80A497
:1003C800E8EF01F0EAEF01F0B7EF01F08B980101D7
:1003D800E629E66F030EE619D8A4F5EF01F0F7EF6A
:1003E80001F0F9EF01F0A9EF01F047EC13F0000973
:1003F800D8B401EF02F003EF02F0AEEF01F061ECC8
:1004080012F0C90E116E7F0E126E6DEC09F09AEFA4
:1004180000F0820E116E7F0E126E6DEC09F06B0EFD
:10042800116E7E0E126E6DEC09F0450E116E7A0E8D
:10043800126E6DEC09F0BA0E116E7C0E126E6DEC38
:1004480009F0000E0101E66F0F0EE6652EEF02F0CF
:1004580030EF02F032EF02F04DEF02F0E651020DFC
:10046800810EF324D96E010EF420DA6E000EDE6ED2
:10047800000EDD6EE651020D610EF324E16E010EF1
:10048800F420E26EDECFE6FFDDCFE5FFE62B28EFB6
:1004980002F082B052EF02F054EF02F04DEF02F09A
:1004A800000E066E000E056E4DEC12F0A19282B0A1
:1004B80060EF02F062EF02F069EF02F0A1A267EFCD
:1004C80002F069EF02F05BEF02F0BEEC12F005C03B
:1004D80081F106C082F1000E0101626F000E616FAA
:1004E800A192010EE66F0F0EE6657DEF02F07FEF39
:1004F80002F081EF02F0CCEF02F0000E066E000E63
:10050800056E4DEC12F0A19282A08DEF02F08FEFF4
:1005180002F096EF02F0A1A294EF02F096EF02F03B
:1005280088EF02F0BEEC12F00101E651020D610EF7
:10053800F324D96E010EF420DA6E05C0DEFF06C082
:10054800DDFF000E066E000E056E4DEC12F0A19256
:1005580082B0B1EF02F0B3EF02F0BAEF02F0A1A25D
:10056800B8EF02F0BAEF02F0ACEF02F0BEEC12F016
:100578000101E651020D810EF324D96E010EF4201B
:10058800DA6E05C0DEFF06C0DDFFE62B77EF02F06E
:10059800EA0E116E7E0E126E6DEC09F0000E01016E
:1005A800E66F0F0EE665DBEF02F0DDEF02F0DFEF3E
:1005B80002F004EF03F0570E116E7F0E126EE6C1C3
:1005C80013F0146AE651020D610EF324D96E010E80
:1005D800F420DA6EDECF15F0DDCF16F0E651020D0D
:1005E800810EF324D96E010EF420DA6EDECF17F0F7
:1005F800DDCF18F06DEC09F00101E62BD5EF02F024
:10060800CB0E116E7B0E126E6DEC09F0C90E116ED9
:100618007F0E126E6DEC09F09AEF00F0530E116E1A
:100628007F0E126E6DEC09F0FE0E116E7E0E126ECC
:100638006DEC09F0F80E116E7D0E126E6DEC09F07E
:10064800E00E116E7D0E126E6DEC09F0C80E116E83
:100658007D0E126E6DEC09F0610E116E7D0E126E3C
:100668006DEC09F0C6EF04F0000E0101E66F050E0F
:10067800E66541EF03F043EF03F045EF03F0C6EF03
:1006880004F0E651060D060EF326000EF422A70E1E
:10069800F324D96E010EF420DA6EE651060DA70E8A
:1006A800F324E16E010EF420E26EDE50E65CDE50CB
:1006B800E658D8B062EF03F064EF03F06AEF03F096
:1006C800000ED86F040ED76F6EEF03F0FF0ED86FD1
:1006D800FC0ED76FE651060DA70EF324D96E010E56
:1006E800F420DA6EE651060D060EF326000EF4220B
:1006F800A70EF324E16E010EF420E26EDE50E61838
:1007080007E1DE50E618D8A48CEF03F08EEF03F073
:1007180092EF03F0000ED86F000ED76FE651060D6A
:10072800080EF326000EF422A70EF324D96E010E4C
:10073800F420DA6EE651060D020EF326000EF422BE
:10074800A70EF324E16E010EF420E26EDE50E65CA3
:10075800DE50E658D8B0B3EF03F0B5EF03F0BBEFC7
:1007680003F0000EDA6F040ED96FBFEF03F0FF0E2F
:10077800DA6FFC0ED96FE651060D020EF326000E55
:10078800F422A70EF324D96E010EF420DA6EE65196
:10079800060D080EF326000EF422A70EF324E16ED0
:1007A800010EF420E26EDE50E61807E1DE50E6188E
:1007B800D8A4E1EF03F0E3EF03F0E7EF03F0000E56
:1007C800DA6F000ED96FE651060D0A0EF326000EF9
:1007D800F422A70EF324D96E010EF420DA6EE65146
:1007E800060D040EF326000EF422A70EF324E16E84
:1007F800010EF420E26EDE50E65CDE50E658D8B01A
:1008080008EF04F00AEF04F010EF04F0000EDC6FBC
:10081800040EDB6F14EF04F0FF0EDC6FFC0EDB6FD1
:10082800E651060D040EF326000EF422A70EF3245B
:10083800D96E010EF420DA6EE651060D0A0EF32683
:10084800000EF422A70EF324E16E010EF420E26EEE
:10085800DE50E61807E1DE50E618D8A436EF04F0BB
:1008680038EF04F03CEF04F0000EDC6F000EDB6F95
:10087800E651060DA70EF324D96E010EF420DA6EA8
:10088800DECFD1F1DDCFD2F1E651060D020EF3260F
:10089800000EF422A70EF324D96E010EF420DA6EAE
:1008A800DECFD3F1DDCFD4F1E651060D040EF326E9
:1008B800000EF422A70EF324D96E010EF420DA6E8E
:1008C800DECFD5F1DDCFD6F1000EDE6FDE29D8A45C
:1008D80070EF04F072EF04F074EF04F0C2EF04F06C
:1008E80047EC13F00009D8B47CEF04F07EEF04F075
:1008F80080EF04F0C2EF04F00101D751D127D8519D
:10090800D223D951D327DA51D423DB51D527DC514F
:10091800D623D1C105F0D2C106F0E0EC11F0D3C165
:1009280005F0D4C106F096EC11F0D5C105F0D6C19A
:1009380006F0AFEC11F0A192D00E066E000E056E17
:100948004DEC12F0A1A2ABEF04F0ADEF04F0A6EF6E
:1009580004F08BB8B2EF04F0B5EF04F0010EB6EF77
:1009680004F0000EFF0A356E353A8B503518EF0B40
:1009780035188B6E0101DE2B6AEF04F00101E62BBE
:100988003BEF03F047EC13F00009D8B4CEEF04F0C6
:10099800D0EF04F038EF03F0010E066E0568E0ECC6
:1009A80011F0010E066E056896EC11F0010E066E48
:1009B8000568AFEC11F061EC12F0280E116E7E0E96
:1009C800126E6DEC09F0C90E116E7F0E126E6DEC91
:1009D80009F09AEF00F0040E11EC13F0910E116E6D
:1009E8007F0E126E6DEC09F0550E116E7E0E126EB2
:1009F8006DEC09F0D30E116E780E126E6DEC09F0E5
:100A080047EC13F00009D8B40CEF05F00EEF05F031
:100A180004EF05F0000E0101E66F0F0EE66517EF13
:100A280005F019EF05F01BEF05F04AEF05F097EC1C
:100A380013F051EC13F00009D8B425EF05F027EFB7
:100A480005F01DEF05F05BEC13F00101E651020D16
:100A5800810EF324D96E010EF420DA6E05C0DEFF94
:100A680006C0DDFF8B88A192FF0E066E600E056E34
:100A78004DEC12F0A1A243EF05F045EF05F03EEF73
:100A880005F08B980101E62B11EF05F0460E116E6B
:100A98007D0E126E6DEC09F0670E116E7F0E126EF0
:100AA8006DEC09F0000E0101E66F0F0EE6655FEFD1
:100AB80005F061EF05F063EF05F07CEF05F0F70E48
:100AC800116E7F0E126EE651020D810EF324D96E5F
:100AD800010EF420DA6EDECF35F0DDCF36F0365079
:100AE800136E146A6DEC09F00101E62B59EF05F05D
:100AF80061EC12F0C70E116E7F0E126E6DEC09F0EC
:100B08009AEF00F0240E116E7E0E126E6DEC09F055
:100B18008B0E116E7B0E126E6DEC09F06D0E116E60
:100B2800780E126E6DEC09F0C60E116E750E126E0F
:100B38006DEC09F0700E116E750E126E6DEC09F009
:100B4800F30E116E7C0E126E6DEC09F0C30E116E71
:100B5800790E126E6DEC09F0360E116E790E126E6A
:100B68006DEC09F0060E116E790E126E6DEC09F03F
:100B7800610E116E7D0E126E6DEC09F0000E010112
:100B8800E56F000EE46F000E066E800E056EE0EC59
:100B980011F034EF06F080B4D4EF05F0D6EF05F08D
:100BA800EBEF05F080A4DBEF05F0DDEF05F0D6EF05
:100BB80005F0400E0101E05DD8B0E5EF05F0E7EF84
:100BC80005F0EBEF05F0200EDF27000EE02380B6DE
:100BD800F0EF05F0F2EF05F009EF06F080A6F7EF69
:100BE80005F0F9EF05F0F2EF05F00101E05109E138
:100BF800210EDF5DD8A003EF06F005EF06F009EF40
:100C080006F0200EDF5F000EE05BA1A20EEF06F0FB
:100C180010EF06F034EF06F0000E066E000E056EBB
:100C28004DEC12F0A1920101E551E66F000EE625A8
:100C3800D96EDA6A010EDA22DF50356E3550056E4C
:100C4800066AE0EC11F00101DF51E425356EE05150
:100C5800E521366EFF0E3514E46F3F0E3614E56F4E
:100C680047EC13F00009D8B43CEF06F03EEF06F06D
:100C7800CFEF05F0000E066E000E056EE0EC11F0E9
:100C880061EC12F0AC0E116E7B0E126E6DEC09F079
:100C9800C90E116E7F0E126E6DEC09F09AEF00F01E
:100CA800A80E116E7B0E126E6DEC09F0440E116EDB
:100CB8007C0E126E6DEC09F0000E066E000E056ECD
:100CC800C8EC11F06D0E116E7A0E126E6DEC09F013
:100CD800190E116E760E126E6DEC09F01C0E116E67
:100CE8007A0E126E6DEC09F06C0E116E760E126EA5
:100CF8006DEC09F0000E0101E66F090EE66587EF5D
:100D080006F089EF06F08BEF06F0A0EF06F0B20EC2
:100D1800116E7F0E126EE6C113F0146AE6510A0DC9
:100D2800000EF324156E020EF420166E6DEC09F019
:100D38000101E62B81EF06F047EC13F00009D8A477
:100D4800A8EF06F0AAEF06F0A0EF06F061EC12F0AB
:100D58000101E36F2F0EE365B4EF06F0B6EF06F07E
:100D6800D7EF06F03A0EE361BCEF06F0BEEF06F0EF
:100D7800D7EF06F0D00EE325096E0A6AFF0E0A22A5
:100D88002CEC0DF09D0E116E7C0E126E0101E351DC
:100D98000A0D200EF324136E000EF420146E6DEC71
:100DA80009F0E0EF06F0F00E116E790E126EE3C155
:100DB80013F0146A6DEC09F0C90E116E7F0E126EF5
:100DC8006DEC09F09AEF00F0EF0E116E7F0E126EC7
:100DD8006DEC09F0620E116E7C0E126E6DEC09F06E
:100DE800B30E116E760E126E6DEC09F0BA0E116E1E
:100DF8007C0E126E6DEC09F0010E11EC13F092EFFF
:100E080007F097EC13F051EC13F00009D8B40FEF8A
:100E180007F011EF07F007EF07F05BEC13F0070E90
:100E2800356ED89006320532352E15EF07F005C01D
:100E3800E1F106C0E2F10101E25107E1580EE15D7E
:100E4800D8B029EF07F02BEF07F059EF07F0E00EC5
:100E5800116E7A0E126E6DEC09F04DEF07F097ECFB
:100E680013F051EC13F00009D8B43DEF07F03FEF51
:100E780007F035EF07F05BEC13F0070E356ED890EE
:100E880006320532352E43EF07F005C0E1F106C002
:100E9800E2F10101E25109E1590EE15DD8A057EFF5
:100EA80007F059EF07F033EF07F0E25109E1A90E17
:100EB800E15DD8A062EF07F064EF07F092EF07F06A
:100EC800BB0E116E7A0E126E6DEC09F086EF07F00C
:100ED80097EC13F051EC13F00009D8B476EF07F053
:100EE80078EF07F06EEF07F05BEC13F0070E356E46
:100EF800D89006320532352E7CEF07F005C0E1F1B7
:100F080006C0E2F10101E25107E1A80EE15DD8B0A7
:100F180090EF07F092EF07F06CEF07F047EC13F053
:100F28000009D8B49AEF07F09CEF07F005EF07F037
:100F380061EC12F0C90E116E7F0E126E6DEC09F0A5
:100F48009AEF00F0EB0E116E7F0E126E6DEC09F049
:100F5800230E116E7F0E126E6DEC09F0BA0E116E33
:100F68007C0E126E6DEC09F0660E116E790E126E23
:100F78006DEC09F014EF08F080B4C5EF07F0C7EF87
:100F880007F0EAEF07F0800E116E7C0E126E6DEC22
:100F980009F0E3EF07F080B6D4EF07F0D6EF07F0DB
:100FA800E3EF07F0050E116E7B0E126E6DEC09F083
:100FB80080A6E1EF07F0E3EF07F0DCEF07F080A48D
:100FC800E8EF07F0EAEF07F0CFEF07F080B6EFEFB2
:100FD80007F0F1EF07F014EF08F00F0E116E7D0E19
:100FE800126E6DEC09F00DEF08F080B4FEEF07F01B
:100FF80000EF08F00DEF08F0050E116E7B0E126E73
:101008006DEC09F080A40BEF08F00DEF08F006EF87
:1010180008F080A612EF08F014EF08F0F9EF07F0D7
:1010280047EC13F00009D8B41CEF08F01EEF08F0E5
:10103800C0EF07F061EC12F0C90E116E7F0E126E50
:101048006DEC09F09AEF00F0F30E116E7F0E126E40
:101058006DEC09F0270E116E7B0E126E6DEC09F027
:10106800950E116E790E126E6DEC09F0F80E116E78
:10107800760E126E6DEC09F0490E116E7B0E126E33
:101088006DEC09F095EC13F0000EC0EC0EF047EC97
:1010980013F00009D8B453EF08F055EF08F04BEF00
:1010A80008F061EC12F0010E23EC0EF0C70E116E81
:1010B8007F0E126E6DEC09F09AEF00F0BB0E116E08
:1010C8007F0E126E6DEC09F0260E116E7C0E126EFC
:1010D8006DEC09F0400E056E010E066E62EC11F023
:1010E80005500101DD6F000EE56F000EE46FB8EFEB
:1010F80008F0E4C10CF0E5C10DF0DDC10EF00F6A97
:1011080092EC10F0400E0C24D96E010E0D20DA6E10
:10111800640E0101E425E16E020EE521E26EDFCFE7
:10112800E7FFE44BE52BE4C10CF0E5C10DF0DDC1B0
:101138000EF00F6A92EC10F0400E0C24D96E010EDE
:101148000D20DA6EDF50D8B4ACEF08F0AEEF08F03F
:10115800B8EF08F0020E0101E55DD8A0B6EF08F07F
:10116800B8EF08F07DEF08F0020E0101E55DD8A0A8
:10117800C0EF08F0C2EF08F097EF08F0000E066E17
:10118800000E076E000E086E000E096E640E0A6EE1
:10119800020E0B6E99EC0FF046EC11F0FF0AD8B472
:1011A800D8EF08F0DAEF08F0D0EF08F0000E066E7E
:1011B800000E056E4DEC12F0A1923DEC13F0000903
:1011C800D8B4E9EF08F0EBEF08F0E1EF08F0000E13
:1011D8000101E56F000EE46F640EE425D96E020E7E
:1011E800E521DA6E000EDF6EE44BE52B020EE55DBD
:1011F800D8A001EF09F003EF09F0F0EF08F0000EB6
:10120800066E000E076E000E086E000E096E640E64
:101218000A6E020E0B6E73EC0EF0640E2B6E020E4D
:101228002C6E3FEC0CF0C70E116E7F0E126E6DEC3B
:1012380009F09AEF00F0460E116E7F0E126EE3C1B0
:1012480013F0146A6DEC09F0C90E116E7F0E126E60
:101258006DEC09F09AEF00F0E3513F0AD8B4AAEF19
:1012680000F0650AD8B436EF01F03B0AD8B473EF42
:1012780001F0030AD8B4A6EF07F0010AD8B412EFB8
:1012880003F0070AD8B40DEF02F00C0AD8B4E8EF5F
:1012980006F0010AD8B428EF08F0050AD8B486EF9A
:1012A80005F0010AD8B4EFEF04F0020AD8B428EF29
:1012B80001F01C0AD8B462EF08F0070AD8B454EF5A
:1012C80006F00E0AD8B455EF01F01FEF09F026EF2B
:1012D80000F0130E236E000E246E2DEF0CF0250E79
:1012E8002A18D8B47AEF09F07CEF09F081EF09F0F9
:1012F8002A508BEC13F02DEF0CF0000E296E000E27
:10130800286E000E276E8CEF09F02784114A122AE6
:1013180011C0F6FF12C0F7FF0800F550300AD8B424
:1013280089EF09F098EF09F011C0F6FF12C0F7FF36
:101338000800F5507DEC11F0D8A0A5EF09F0A7EF53
:1013480009F086EF0AF0000E296E000E286E28C0FC
:1013580005F029C006F0000E086E0A0E076E75EC3F
:1013680012F005C028F006C029F0D00E196EFF0E45
:101378001A6E11C0F6FF12C0F7FF0800F5501B6E79
:101388001C6A19501B261A501C221B5028261C5058
:101398002922114A122A11C0F6FF12C0F7FF0800CD
:1013A800F5507DEC11F0D8B0DCEF09F0DEEF09F074
:1013B800ABEF09F086EF0AF0278EAEEF0AF023C0F4
:1013C800D9FF24C0DAFFDECF1FF0DDCF20F0020EF8
:1013D8002326000E24221F502010D8A4F6EF09F06F
:1013E800F8EF09F0FCEF09F0CF0E1F6E7F0E206EAC
:1013F800000E226E000E216E04EF0AF0214A222A06
:1014080021501F24196E225020201A6E19C0F6FF91
:101418001AC0F7FFF86A050EF76403D00800F55004
:1014280005D0F6CFE9FFF7CFEAFFEF500009D8A4BF
:1014380020EF0AF022EF0AF002EF0AF02850215CB0
:1014480029502258D8B02BEF0AF02DEF0AF033EFCD
:101458000AF02150285E2250295A3CEF0AF0000E6B
:10146800296E000E286E3CEF0AF0200E8BEC13F06C
:101478002806D8A02906282806E12928D8A447EF55
:101488000AF049EF0AF039EF0AF05FEF0AF01FC0DF
:10149800F6FF20C0F7FFF86A050EF76403D00800CE
:1014A800F55005D0F6CFE9FFF7CFEAFFEF508BEC08
:1014B80013F01F4A202A2106D8A02206212806E177
:1014C8002228D8A46AEF0AF06CEF0AF04BEF0AF072
:1014D8002DEF0CF023C0D9FF24C0DAFFDF502A6EAD
:1014E800020E2326000E24222A0E1F6E000E206EE6
:1014F800000E226E010E216E22EF0AF0C00E271296
:10150800AEEF0AF011C0F6FF12C0F7FF114A122A17
:101518000800F5CF2AF02A50000AD8B43EEF0CF0A4
:10152800630AD8B46EEF0AF0070AD8B4AEEF0AF02F
:101538000D0AD8B4AEEF0AF01A0AD8B4E3EF09F0EE
:10154800060AD8B482EF0AF00D0AD8B4E0EF09F021
:1015580078EF0AF027C019F0C00E1916D8A4B7EF13
:101568000AF0B9EF0AF0D4EF0AF023C0D9FF24C07B
:10157800DAFFDECF25F0DDCF26F0020E2326000E9F
:10158800242226BECCEF0AF0CAEF0AF030EF0BF0A7
:10159800030E2712256C261ED8B0262A30EF0BF032
:1015A80023C0D9FF24C0DAFFDECF25F0DDCF26F037
:1015B800020E2326000E242230EF0BF0010E2A6EB5
:1015C800050E2A18D8A4EBEF0AF0EDEF0AF0EFEFBA
:1015D8000AF040EF0BF02A50020D5A0EF324F66E73
:1015E800750EF420F76E0900F550255C0900F550DA
:1015F8002658D8B002EF0BF004EF0BF006EF0BF013
:1016080040EF0BF02A2AE4EF0AF0010E2A6E040ECE
:101618002A18D8A412EF0BF014EF0BF016EF0BF00A
:1016280040EF0BF02A50020D640EF324F66E750E8F
:10163800F420F76E0900F550255C0900F55026588E
:10164800D8B029EF0BF02BEF0BF02DEF0BF040EF9C
:101658000BF02A2A0BEF0BF02750C00B000AD8B466
:10166800E2EF0AF0800AD8B409EF0BF0400AD8B4C8
:10167800E2EF0AF040EF0BF028502910D8B447EFFA
:101688000BF049EF0BF057EF0BF027C019F0030EE2
:101698001916D8B452EF0BF054EF0BF057EF0BF0CC
:1016A8002806D8A029062A50196E1A6A2850195CEB
:1016B8001A50800A1B6E2950800A1B58D8B067EF51
:1016C8000BF069EF0BF06FEF0BF02A50285E000E5D
:1016D800295A73EF0BF0000E296E000E286E27A40E
:1016E80078EF0BF07AEF0BF0A2EF0BF027C019F0B0
:1016F800030E1916D8B483EF0BF085EF0BF088EFC3
:101708000BF02D0E8BEC13F028502910D8B48FEF66
:101718000BF091EF0BF0C8EF0BF0300E8BEC13F0E1
:101728002806D8A0290628502910D8A49EEF0BF027
:10173800A0EF0BF091EF0BF0C8EF0BF02850291039
:10174800D8B4A9EF0BF0ABEF0BF0BAEF0BF0200E0B
:101758008BEC13F02806D8A0290628502910D8A405
:10176800B8EF0BF0BAEF0BF0ABEF0BF027C019F0A6
:10177800030E1916D8B4C3EF0BF0C5EF0BF0C8EF82
:101788000BF02D0E8BEC13F02AC01EF024EF0CF09A
:101798001E50020D5A0EF324F66E750EF420F76EE5
:1017A8000900F5CF07F00A00F5CF08F025C005F0CD
:1017B80026C006F026EC10F005C00CF006C00DF0AF
:1017C800000E0F6E0A0E0E6E92EC10F00C50300FD9
:1017D8002A6E21EF0CF025C005F026C006F01E5039
:1017E800020D640EF324F66E750EF420F76E0900F0
:1017F800F5CF07F00A00F5CF08F026EC10F00550F9
:101808000F0B1D6E350E1D24F66EF76A7F0EF7223C
:101818000800F5CF2AF021EF0CF02750C00B000A82
:10182800D8B4CCEF0BF0800AD8B4EFEF0BF0400A35
:10183800D8B4CCEF0BF021EF0CF02A508BEC13F05E
:101848001E061E28D8A42BEF0CF02DEF0CF011EF7C
:101858000CF011C0F6FF12C0F7FF114A122A080057
:10186800F5CF2AF02A50D8A43CEF0CF03EEF0CF04C
:1018780073EF09F01200E30E116E7F0E126E6DEC1D
:1018880009F0000E346E000E336E33503410D8B4A5
:1018980050EF0CF052EF0CF067EF0CF0070E33141A
:1018A8002D6E000E34142E6E2D502E10D8A45FEF1E
:1018B8000CF061EF0CF067EF0CF0FC0E116E7E0E71
:1018C800126E6DEC09F033503410D8B46EEF0CF092
:1018D80070EF0CF0C7EF0CF00F0E33142D6E000EE6
:1018E80034142E6E2D502E10D8A47DEF0CF07FEFFF
:1018F8000CF0C7EF0CF0740E116E7F0E126E6DECCB
:1019080009F0F00E33242F6EFF0E3420306EB6EF40
:101918000CF02F502B24D96E30502C20DA6E200E6C
:10192800DF6099EF0CF09BEF0CF0A3EF0CF0430E87
:10193800116E7A0E126E6DEC09F0B4EF0CF0FB0E1E
:10194800116E7F0E126E2F502B24D96E30502C2022
:10195800DA6EDF502D6E2D50136E146A6DEC09F09F
:101968002F4A302A33502F5C34503058D8A0BFEF5C
:101978000CF0C1EF0CF08DEF0CF0B80E116E770E75
:10198800126E6DEC09F0DD0E116E7F0E126E335083
:101998002B24D96E34502C20DA6EDF502D6E2D504A
:1019A800136E146A6DEC09F0334A342A020E345C63
:1019B800D8A0E1EF0CF0E3EF0CF049EF0CF0730E58
:1019C800116E7F0E126E6DEC09F0F00E3324316E3D
:1019D800FF0E3420326E1AEF0DF031502B24D96EE1
:1019E80032502C20DA6E200EDF60FDEF0CF0FFEF96
:1019F8000CF007EF0DF0430E116E7A0E126E6DECBF
:101A080009F018EF0DF0FB0E116E7F0E126E3150BB
:101A18002B24D96E32502C20DA6EDF502D6E2D50CB
:101A2800136E146A6DEC09F0314A322A3350315C76
:101A380034503258D8A023EF0DF025EF0DF0F1EF18
:101A48000CF0B80E116E770E126E6DEC09F01200E4
:101A5800720E066E480E056E39EC12F09E90000E5E
:101A6800066E2A0E056EC8EC11F033EC13F000096F
:101A7800D8B441EF0DF043EF0DF039EF0DF0BA0E89
:101A8800066E000E056E39EC12F09E90000E066E82
:101A9800000E056EC8EC11F033EC13F00009D8B451
:101AA80058EF0DF05AEF0DF050EF0DF0CA0E0B6E17
:101AB800000E0C6ED8900934D96E0A34DA6ED890BC
:101AC800D936DA360B50D9260C50DA22DECF0FF091
:101AD800DECF10F0DECF11F0DECF12F0000E146E64
:101AE800000E136E12AE7BEF0DF07DEF0DF083EF5D
:101AF8000DF0190E0E6EC80E0D6E87EF0DF0080E64
:101B08000E6E300E0D6EF60E066EE00E056E39EC9A
:101B180012F09E90000E066E2A0E056EC8EC11F0AB
:101B280033EC13F00009D8B49CEF0DF09EEF0DF0E4
:101B380094EF0DF00D500008056E0E50D8A0E82A5D
:101B48000008066E39EC12F09E90000E066E000E2C
:101B5800056EC8EC11F033EC13F00009D8B4B7EFF8
:101B68000DF0B9EF0DF0AFEF0DF0D8900F340F6E08
:101B78001034106E1134116E1234126E134A142A76
:101B880014BED0EF0DF0145009E1210E135CD8A05B
:101B9800D0EF0DF0D2EF0DF076EF0DF01200808D42
:101BA80099A5B1BDC8D2DBE3EBF1F6FAFDFFFFFE64
:101BB800FCF8F4EEE7DFD6CDC2B7AB9F93867A6D1B
:101BC8006155493E332A2119120C08040201010308
:101BD800060A0F151D252E38434F5B6773800000DA
:101BE800FF03FF0300000000FF03FF030000FF03E3
:101BF800FF0300000000FF03FF0300000000FF03D5
:101C080000000000FF03FF03D7289718EF1097186C
:101C18006E9197181DE29718AB549718AE51971804
:101C28002BD497189D629718E21D9718827D9718F4
:101C3800070A0A0C0A0A0C0B0C0C0B0D0D0D2F6E63
:101C48002F500AEC0FF08A98FF0EF8EC12F0410EB4
:101C5800F8EC12F0000EF8EC12F0000EF8EC12F0AE
:101C6800000EF8EC12F0000EF8EC12F0FF0EF8EC93
:101C780012F0FF0EF8EC12F0FF0EF8EC12F0306ED6
:101C88008A883050D8A44BEF0EF04DEF0EF027EFB6
:101C98000EF02F04D8A453EF0EF055EF0EF05EEFC0
:101CA8000EF07C0E116E7D0E126E30C013F0146AA9
:101CB8006DEC09F0C4EC10F0306E2F04D8A467EF77
:101CC8000EF069EF0EF072EF0EF0D70E116E7C0E6B
:101CD800126E30C013F0146A6DEC09F012008A9885
:101CE800FF0EF8EC12F0510EF8EC12F00950F8EC77
:101CF80012F00850F8EC12F00750F8EC12F0065009
:101D0800F8EC12F0FF0EF8EC12F0FF0EF8EC12F0FF
:101D1800FF0AD8B492EF0EF094EF0EF089EF0EF0B0
:101D2800FF0EF8EC12F0FF0AD8B49DEF0EF09FEF0B
:101D38000EF094EF0EF0000E0D6E000E0C6E0C50AF
:101D48000A24D96E0D500B20DA6EFF0EF8EC12F053
:101D5800DF6E0C4A0D2A020E0D5CD8A0B6EF0EF00D
:101D6800B8EF0EF0A3EF0EF0FF0EF8EC12F0FF0E36
:101D7800F8EC12F08A881200066E6CBAC6EF0EF004
:101D8800C8EF0EF009EF0FF00650040D010EF32610
:101D9800000EF4226C0EF324F66E750EF420F76E26
:101DA8000800F5CF6DFF0650040D6C0EF324F66E97
:101DB800750EF420F76E0800F5CF6CFF000E6B6E01
:101DC8000650040D020EF326000EF4226C0EF324C6
:101DD800F66E750EF420F76E0800F5CF6EFF06500C
:101DE800040D030EF326000EF4226C0EF324F66E97
:101DF800750EF420F76E0800F5CF05F005469350F0
:101E08000518FD0B0518936E6C8A12002B6E000ED8
:101E18002E6E000E2D6EFF0EF8EC12F02D4A2E2AB3
:101E28002EBE20EF0FF02E5009E10A0E2D5CD8A02F
:101E380020EF0FF022EF0FF00FEF0FF08A98FF0E50
:101E4800F8EC12F0400EF8EC12F0000EF8EC12F07C
:101E5800000EF8EC12F0000EF8EC12F0000EF8ECA0
:101E680012F0950EF8EC12F0FF0EF8EC12F0FF0EDF
:101E7800F8EC12F02C6E8A882B04D8A446EF0FF0E9
:101E880048EF0FF051EF0FF02B0E116E7D0E126E12
:101E98002CC013F0146A6DEC09F01200C00EF66E37
:101EA800200EF76E000EF86E02EE00F010EE64F0F1
:101EB8000900F5CFEEFFE550E150FAE1200EF66E8D
:101EC800270EF76E000EF86E01EEE7F010EE06F042
:101ED8000900F5CFEEFFE550E150FAE1A60EF66EE7
:101EE8001B0EF76E000EF86E00EE60F010EEA0F01C
:101EF8000900F5CFEEFFE550E150FAE102EE64F09B
:101F080012EE00F0EE6AE550E150FCE1E250FAE131
:101F180000EE39F0190EEE6AE806FDE15290529291
:101F2800000EF86E000128EF00F08A98FF0EF8EC1A
:101F380012F0580EF8EC12F00950F8EC12F00850B4
:101F4800F8EC12F00750F8EC12F00650F8EC12F02A
:101F5800FF0EF8EC12F0FF0EF8EC12F0FF0AD8B4FE
:101F6800B8EF0FF0BAEF0FF0AFEF0FF0FF0EF8EC8D
:101F780012F0FF0EF8EC12F0FF0EF8EC12F0FE0E65
:101F8800F8EC12F0000E0D6E000E0C6E0C500A24C8
:101F9800D96E0D500B20DA6EDF50F8EC12F00C4AB7
:101FA8000D2A020E0D5CD8A0DCEF0FF0DEEF0FF06B
:101FB800CAEF0FF08A8812003B4A3C2A080E3B18E9
:101FC8003C10D8A4EAEF0FF0ECEF0FF002EF10F09E
:101FD8008ABEF1EF0FF0F4EF0FF0010EF5EF0FF0FE
:101FE800000EFF0A016E013201328A5001187F0B80
:101FF80001188A6E000E3C6E000E3B6E394A3A2A72
:10200800510E39183A10D8A40CEF10F00EEF10F05A
:1020180025EF10F0000E3A6E000E396E8ABC17EFED
:1020280010F01AEF10F0010E1BEF10F0000EFF0A6F
:10203800016E013A014601468A500118BF0B01188A
:102048008A6E1200000E0A6E000E096E0750081004
:10205800D8B431EF10F033EF10F05BEF10F0010E51
:102068000B6E3BEF10F0D890073608360B2A08AEF7
:1020780040EF10F042EF10F037EF10F0D89009362B
:102088000A360750055C08500658D8A04EEF10F0E5
:1020980050EF10F055EF10F00750055E0850065A43
:1020A8000980D890083207320B2E42EF10F009C091
:1020B80005F00AC006F012004F4646000000000076
:1020C80000004F4E00000000000000004D41472B6B
:1020D800000000000000504943204D5554450000C1
:1020E800504720555000000000004D41472D00008A
:1020F80000000000504720444F574E0000004D4557
:102108004E5500000000000055500000000000007F
:1021180000004C4546540000000000000E500F100F
:10212800D8B499EF10F09BEF10F0BFEF10F0010E4C
:10213800106EA3EF10F0D8900E360F36102A0FAE9F
:10214800A8EF10F0AAEF10F09FEF10F00E500C5C03
:102158000F500D58D8A0B3EF10F0B5EF10F0B9EF4D
:1021680010F00E500C5E0F500D5AD8900F320E32F0
:10217800102EAAEF10F00CC00CF00DC00DF01200DC
:102188008A98FF0EF8EC12F0500EF8EC12F0000EE0
:10219800F8EC12F0000EF8EC12F0020EF8EC12F067
:1021A800000EF8EC12F0FF0EF8EC12F0FF0EF8EC4F
:1021B80012F0FF0EF8EC12F0066E8A880628D8B4E2
:1021C800E8EF10F0EAEF10F0C4EF10F0065012003C
:1021D800080EB86E900EAB6E240EAC6E820EAF6E0B
:1021E800060EB06E000E056E000E066E81EC13F042
:1021F800000E056E000E066E7CEC13F0000E056EE8
:10220800000E066E86EC13F0000E516E12007E92E0
:102218004BC001F04CC002F024EC12F049504A10B7
:10222800D8B419EF11F01BEF11F028EF11F002D814
:1022380028EF11F00500FA6E4950FD6E4A50FE6E07
:10224800F850FF6EFA501200120093EC13F06EEC87
:1022580013F00EEC12F0EAEC12F09AEC12F065ECC6
:1022680013F005EC13F088EC12F01DEC13F0ACEC55
:1022780012F0CEEC12F0F8EC11F0DCEC12F0ECEC11
:1022880010F012008A980D0EF8EC12F0066E8A888B
:102298000628D8A452EF11F054EF11F057EF11F0BF
:1022A800FF0E61EF11F0FF0EF8EC12F0FF0EF8ECE4
:1022B80012F0FF0EF8EC12F00650120005C007F0FD
:1022C80006C008F06AEF11F0074A082A07C0D9FFCC
:1022D80008C0DAFFDF50D8A474EF11F076EF11F0E0
:1022E80068EF11F00550075C056E06500858066E39
:1022F8001200076E000E066E3A0E076086EF11F0A8
:1023080088EF11F092EF11F02F0E07648EEF11F0A5
:1023180090EF11F092EF11F0010E066E06C005F075
:102328000530120005C007F006C008F0D890083242
:102338000732D8900832073207500F01586F05C08E
:1023480007F0030E0716073AF00E07165751CF0B82
:102358000710576F120005C007F006C008F0D890A4
:1023680008320732D8900832073207500F015E6FE3
:1023780005C007F0030E0716073AF00E07165D5161
:10238800CF0B07105D6F120005C007F006C008F0FC
:10239800D89008320732D890083207320750676E53
:1023A80005C007F0030E0716073AF00E0716665029
:1023B800CF0B0710666E120005C007F006C008F0C4
:1023C800D89008320732D890083207320750BE6ECC
:1023D80005C007F0030E0716073AF00E0716BD50A2
:1023E800CF0B0710BD6E1200000E0F014D6F506924
:1023F800600E4F6F4FCF4BF050CF4CF07E927D82E6
:10240800320E056E270E066E77EC13F0010E0F01E3
:102418004E6F1200000E896E000E8A6E000E8B6ED3
:102428009268040E936EA90E946E280E0F013A6FEF
:10243800000E396F220E386F000E616EF18E120099
:102448000F014EA52AEF12F02CEF12F034EF12F024
:102458004E910250506F01C04FFF4E8138EF12F07D
:102468000250506F01C04FFF1200CDA43EEF12F092
:1024780040EF12F048EF12F0CD900650CF6E05C035
:10248800CEFFCD804CEF12F00650CF6E05C0CEFFC8
:102498001200B1A452EF12F054EF12F05CEF12F0F8
:1024A800B1900650B36E05C0B2FFB18060EF12F074
:1024B8000650B36E05C0B2FF12009EAA66EF12F076
:1024C80068EF12F061EF12F0000E516EABA26FEFE1
:1024D80012F071EF12F073EF12F0AB98AB88AE50B8
:1024E800120005500702F3CF09F0F4CF0AF00550A7
:1024F8000802F3500A2606500702F3500A2609C0BC
:1025080005F00AC006F012001C0E0F015D6F000EE8
:102518005B6F800E5C6F010E5A6F000E5F6F340E9A
:102528005E6F49513F0B4009496F12001C0E666EE1
:10253800000E646E800E656E010E636E000E686E8E
:10254800340E676E0F014951E70B0809496F1200F5
:102558001C0EBD6E000EB66E800EB76E010EB96E03
:10256800000EBF6E340EBE6E0F014951FC0B0109FF
:10257800496F1200B182B2CF0CF0B3CF0BF00B5001
:10258800076E0C50096E07C00AF009C005F00AC0B2
:1025980006F01200000EB46EE00EB36E000EB26EBE
:1025A800B2CF4FF0B3CF50F0A192310EB16E1200FE
:1025B800000ECC6EC00ECF6E000ECE6ECECF4DF09C
:1025C800CFCF4EF09E90210ECD6E1200700ED36EBE
:1025D800040ED26E400E9B6ED2AEF5EF12F0F7EFFE
:1025E80012F0F0EF12F01200056E05C06FFFA4AEF6
:1025F80000EF13F002EF13F0FBEF12F0A49E6F5000
:1026080012000C0E0F01576F000E586F000E596F15
:102618004851FC0B0109486F1200066E06C005F010
:1026280005460546C2500518830B0518C26EC280C0
:102638001200000EC16E060EC06E000EC36E000EB4
:10264800C46E110EC26E1200056E9EA82EEF13F016
:1026580030EF13F029EF13F005C0ADFF12009EB064
:1026680038EF13F03BEF13F0010E3CEF13F0000EC0
:102678001200A1B242EF13F045EF13F0010E46EF3E
:1026880013F0000E12009EBA4CEF13F04FEF13F048
:10269800010E50EF13F0000E1200C2A256EF13F015
:1026A80059EF13F0010E5AEF13F0000E1200C45048
:1026B800086E076AC3500724056E000E0820066ED0
:1026C8001200680E0F01526F000E536F7E90050EB8
:1026D800516F1200400E6D6E010E6C6E010E6E6E23
:1026E80093926C9A120005C049F006C04AF0120095
:1026F80005C043F006C044F0120005C045F006C00E
:1027080046F0120005C041F006C042F01200066E05
:10271800065028EC13F01200EC07E008F809D09EE8
:0C27280012006C9A1200C2821200120013
:107538000045454E4720333833202D2053442043FF
:10754800617264205465737420506173736564219B
:10755800210001000A006400E80310270100100060
:10756800000100100140010020202020436F6E6EB2
:10757800656374206F7363696C6C6F73636F706598
:10758800206368616E6E656C203220746F204C50E9
:10759800466F75742070696E206F6E20686561642F
:1075A80065722028766572746963616C2073636103
:1075B8006C652031762F646976292E0D0A0020200B
:1075C8002020436F6E6E656374206F7363696C6C03
:1075D8006F73636F7065206368616E6E656C2031D0
:1075E80020746F205049432068656164657220707B
:1075F800696E2043322028766572746963616C2055
:107608007363616C652032762F646976292E0D0AC2
:107618000020202020436F6E6E656374206F7363B3
:10762800696C6C6F73636F7065206368616E6E65FB
:107638006C203120746F205049432068656164656F
:10764800722070696E2043342028766572746963ED
:10765800616C207363616C652032762F64697629CA
:107668002E0D0A002020202053656C656374207459
:10767800686520696E646578206F66207468652087
:10768800636F6D6D616E6420746F2073656E642026
:1076980066726F6D2074686520666F6C6C6F7769B1
:1076A8006E67206C6973743A0D0A002020202057F9
:1076B800617665206E6F72746820616E6420736FE6
:1076C80075746820706F6C6573206F66206D6167D4
:1076D8006E65742061626F76652048616C6C206508
:1076E80066666563742073656E736F722E0D0A008B
:1076F80020202020496620796F75206861766520F2
:107708006E6F7420696E7374616C6C656420746844
:1077180065205344206361726420686F6C646572ED
:107728002C20726573657420746865205049430D78
:107738000A003D3D3D3D3D3D3D3D3D3D3D3D3D3DE1
:107748003D3D3D3D3D3D3D3D3D3D3D3D3D3D3D3D61
:107758003D3D3D3D3D3D3D3D3D3D3D3D3D3D3D3D51
:107768003D3D3D3D3D3D3D3D3D3D3D3D3D3D3D3D41
:107778000D0A0020202020506C6163652061206A7A
:10778800756D706572206F766572204A5031206E73
:10779800657874202869742773206E65787420745E
:1077A8006F207468652055534220706F7274292EBB
:1077B8000D0A0020202020507265737320746865BC
:1077C80020757070657220627574746F6E20746FA6
:1077D80020706C617920746865206E657874206EFD
:1077E8006F74652066726F6D206120736F6E672EEF
:1077F8000D0A0020202020436F6E6E6563742050B0
:1078080049432070696E20433420746F204C5046E1
:10781800696E2070696E207573696E672061206AD1
:10782800756D70657220776972652E0D0A002020CB
:107838002020436F6E6E65637420746865207370D2
:1078480065616B657220746F207468652067726566
:10785800656E207465726D696E616C20626C6F6311
:107868006B2E0D0A0020202020496E7374616C6C09
:10787800206A756D706572206F766572205243328A
:1078880020616E64204C5046696E206F6E206865DA
:10789800616465722E0D0A0020202020506C6163FF
:1078A800652061206A756D706572206F766572203B
:1078B800746865204C50466F75742F414D50696E41
:1078C800206A756D7065722E0D0A002020202057E1
:1078D80068696C652077686973746C696E67206E77
:1078E80065617220746865206D69632C207072650B
:1078F800737320616E79206B65792E0D0A00202044
:1079080020205072657373206C6F776572206275E2
:1079180074746F6E20746F2064656372656173653B
:10792800206672657175656E63792E0D0A002020D8
:1079380020205072657373207570706572206275AF
:1079480074746F6E20746F20696E637265617365FD
:10795800206672657175656E63792E0D0A002020A8
:107968002020507265737320746865207570706587
:10797800722C206C6F7765722C206F7220626F7486
:107988006820627574746F6E732E0D0A00202020B3
:10799800204D616B652073757265205344206361C7
:1079A80072642069732070726F7065726C792069D7
:1079B8006E7365727465642E0D0A002020202053B2
:1079C80065742074686520686F72697A6F6E746177
:1079D8006C207363616C6520746F203235306D7371
:1079E8002F6469762E0D0A0020202020496E7661CA
:1079F8006C696420646967697420256320656E7406
:107A0800657265642E2020456E74657220302D39AC
:107A18002E0D0A00202020205365742074686520EC
:107A2800686F72697A6F6E74616C207363616C65DC
:107A380020746F20356D732F6469762E0020202006
:107A480020507265737320612049522072656D6FF2
:107A5800746520636F6E74726F6C20627574746FD6
:107A68006E2E0D0A0020202020436F6E6E65637411
:107A7800206A756D706572206F7665722049525F55
:107A88005458206865616465722E0D0A00436F6C56
:107A98006F7261646F205363686F6F6C206F66202C
:107AA8004D696E6573202D2045454E472033383388
:107AB8000D0A00202020204E6F727468206D6167C7
:107AC8006E65746963206669656C642064657465B5
:107AD800637465642E0D0A0020202020536F75748E
:107AE80068206D61676E65746963206669656C649A
:107AF8002064657465637465642E0D0A0020202077
:107B080020426F746820627574746F6E73206265AA
:107B1800696E6720707265737365642E0D0A0020A4
:107B28002020205344206361726420696E6974695F
:107B3800616C697A6174696F6E20746573740D0A7B
:107B48000020202020507265737320616E79206BAD
:107B5800657920746F20636F6E74696E75652E0D7C
:107B68000A006C3A204C6F77207061737320666945
:107B78006C74657220284C50462920746573742EE5
:107B88000D0A00202020204C6F772070617373202D
:107B980066696C74657220284C5046292074657398
:107BA800740D0A0020202020446F6E65206C6F77CA
:107BB800206672657175656E637920776176652ECA
:107BC8000D0A0020202020446F6E65206465636FD5
:107BD80064696E67204952207061636B65742E0D6D
:107BE8000A00743A206972206C6564205472616ED0
:107BF800736D697474657220746573742E0D0A0050
:107C0800683A2048616C6C20656666656374207309
:107C1800656E736F7220746573742E0D0A002020D0
:107C280020205344206361726420726561642F7759
:107C38007269746520746573740D0A002020202011
:107C48004952204C4544207472616E736D69747496
:107C5800657220746573740D0A0020202020486125
:107C68006C6C206566666563742073656E736F72ED
:107C780020746573740D0A002020202055707070E0
:107C8800657220627574746F6E20707265737365A7
:107C9800642E0D0A00202020204A75737420736515
:107CA8006E7420636F6D6D616E643A2025732E0DBE
:107CB8000A0020202020507265737320616E79209D
:107CC8006B657920746F20657869742E0D0A0042FF
:107CD8006C6F636B204C656E6774682052657370B7
:107CE8006F6E73653A2025780D0A002020202054F5
:107CF800726967676572206F6E206368616E6E6572
:107D08006C20322E0D0A00202020204C6F776572DF
:107D180020627574746F6E20707265737365642E5B
:107D28000D0A00434D44302C20526573657420526F
:107D38006573706F6E73653A2025780D0A002020F0
:107D4800202053616D706C656420657665727920BA
:107D580031303075532E0D0A0020202020486974D8
:107D680020616E79206B657920746F20657869745D
:107D78002E0D0A00434D44312C20496E697420525F
:107D88006573706F6E73653A2025780D0A00733A33
:107D980020726561642F777269746520534420638B
:107DA8006172642E0D0A00693A20496E697469612E
:107DB8006C697A6520736420636172642E0D0A0011
:107DC80020202020436F6E6E656374205242352058
:107DD800746F20422E0D0A0020202020436F6E6E03
:107DE8006563742052423020746F20472E0D0A00BC
:107DF80020202020436F6E6E65637420524332202A
:107E0800746F20522E0D0A007A3A20636C656172F5
:107E180020746865207465726D696E616C0D0A0066
:107E280020202020446F6E6520636F6C6F72207471
:107E38006F75722E0D0A00643A20697220446563DA
:107E48006F64657220746573742E0D0A00202020FB
:107E5800204D6963726F70686F6E65207465737406
:107E68000D0A00202020204952206465636F646554
:107E78007220746573740D0A00612020416D706C66
:107E8800696669657220746573742E0D0A00633A19
:107E98002072676220436F6C6F7220746573742E52
:107EA8000D0A005A3A2072657365742070726F6308
:107EB8006573736F720D0A006D3A204D6963726FB6
:107EC80070686F6E6520746573740D0A0020202039
:107ED80020416D706C696669657220746573740DF4
:107EE8000A00202020206269740968696768096CA3
:107EF8006F770D0A200020202020524742204C4551
:107F08004420746573740D0A00623A2042757474D3
:107F18006F6E20746573742E0D0A00202020204295
:107F28007574746F6E20746573740D0A0030313285
:107F38003334353637383961626364656600556EA7
:107F48006B6E6F776E206B65792025630D0A0020B4
:107F580020202025643A0925780925780D0A002073
:107F68002020204D49433A200D0A2020202000449B
:107F7800657627323120426F6172640D0A005465BC
:107F880073742050726F6772616D0D0A003F3A205A
:107F980068656C70206D656E750D0A0053707269A6
:107FA8006E6720323032310D0A00202020202564EF
:107FB800202025730D0A006F3A096F6B0D0A000D1A
:107FC8000A434D443E2000286E756C6C29006F3AB8
:107FD800206B0D0A002530327820000D0A0A006156
:107FE8000D0A00620D0A00680D0A00690D0A0025D5
:077FF8007520002563000065
:020000040020DA
:08000000FFFFFFFFFFFFFFFF00
:020000040030CA
:0E000000FF281F3CFFBF85FF0FC00FE00F4021
:00000001FF
