:0400000047EF00F0D6
:100008004082FACF16F0FBCF17F0E1CF18F0E2CF1D
:1000180019F0D9CF1AF0DACF1BF0F3CF1CF0F4CFD8
:100028001DF0F6CF1EF0F7CF1FF0F8CF20F0F5CF78
:1000380021F0F2AA22EF00F024EF00F02DEF00F0FB
:10004800F2A429EF00F02BEF00F02DEF00F093EC75
:1000580025F021C0F5FF20C0F8FF1FC0F7FF1EC024
:10006800F6FF1DC0F4FF1CC0F3FF1BC0DAFF1AC067
:10007800D9FF19C0E2FF18C0E1FF17C0FBFF16C087
:10008800FAFF40921100FCEF21F0000E01014D6FC4
:10009800000E546F000E556F000E566F000E576F0E
:1000A800000E496F000E486F34EC27F0000E000177
:1000B800616F000E606FE5EC28F0F294F2A467EF30
:1000C80000F069EF00F062EF00F08A8889808A9A70
:1000D8008B9A2EEC28F0520E0001606F260E616F8D
:1000E80002EC29F0F28EF28C000E0101616F000E15
:1000F800606F615109E1140E605DD8A086EF00F0D1
:1001080088EF00F08AEF00F09FEF00F0200E00016A
:10011800CD6F6E0ECE6FC6EC26F00101604B612BE1
:10012800615109E1140E605DD8A09DEF00F09FEFCA
:1001380000F08AEF00F0020E0001CD6F7D0ECE6F49
:10014800C6EC26F0000E0001E96F000E346E5BEC81
:1001580029F0000EA9EC1EF0010EC3EC1CF0DF0E16
:100168000001CD6F700ECE6FC6EC26F0F29E0B0E1E
:1001780003EC28F0E3EC25F00C0E03EC28F0C9ECB6
:1001880025F00E0E03EC28F0FDEC25F068EC28F0C5
:10019800E0EF00F0C30E3E6E500E3D6EFCEF00F037
:1001A800130E3E6E880E3D6EFCEF00F0010E3E6EA3
:1001B800F40E3D6EFCEF00F00F0E03EC28F000018A
:1001C800E16FE26BE251000AD8B4EDEF00F0D4EF32
:1001D80000F0E151000AD8B4CEEF00F0010AD8B41B
:1001E800D4EF00F0030AD8B4DAEF00F0D4EF00F04F
:1001F800F28E050ECD6F770ECE6FC6EC26F080BC62
:1002080008EF01F00AEF01F00CEF02F0BB0E00015D
:10021800CD6F6E0ECE6FC6EC26F080BE16EF01F0E5
:1002280018EF01F011EF01F080AE1DEF01F01FEFA4
:1002380001F018EF01F0860E0001CD6F730ECE6F3E
:10024800C6EC26F089908B9A000E01015B6F000EB8
:100258005C6F000E5D6F000E5E6F000EE8CF63F3FB
:10026800000EE8CF62F1010E346E010E4E6FB3EF4F
:1002780001F080BC42EF01F044EF01F047EF01F0DC
:10028800000E01014E6F23EE63F0DF50D8B44FEF3C
:1002980001F051EF01F03DEF01F05BC161F05CC18D
:1002A80062F05DC163F05EC164F0640E0001656FC9
:1002B800030E666F5CEC1EF0AAEC24F001014C6F93
:1002C8004C29D8B46AEF01F06CEF01F060EF01F04F
:1002D800000EE8CF63F3000E5B27020E5C23000ECE
:1002E8005D23000E5E2383EF01F080BC7EEF01F0FA
:1002F80080EF01F083EF01F0000E01014E6F21EE57
:1003080062F0DF50D8B48BEF01F08DEF01F079EF98
:1003180001F05BC161F05CC162F05DC163F05EC178
:1003280064F0630E0001656F010E666F5CEC1EF0F1
:10033800AAEC24F001014C6F4C29D8B4A6EF01F0C7
:10034800A8EF01F09CEF01F0000EE8CF62F1000E7B
:100358005B27020E5C23000E5D23000E5E234E0514
:10036800D8B4B9EF01F0BBEF01F047EF01F0F29A12
:10037800000E0001616F000E606FE5EC28F0F2944A
:10038800F2A4C9EF01F0CBEF01F0C4EF01F0F28A5B
:10039800000E0101616F000E606F020E615DD8A052
:1003A800D8EF01F0DAEF01F0DCEF01F0E8EF01F04F
:1003B800630E6025D96E010E6121DA6EFF0EDF6EC5
:1003C800604B612BD1EF01F05BC161F05CC162F061
:1003D8005DC163F05EC164F0630E0001656F010EDC
:1003E800666F5CEC1EF0AAEC24F001014C6F4C29FE
:1003F800D8B401EF02F003EF02F0F7EF01F0AF0E0F
:100408000001CD6F760ECE6FC6EC26F013EF02F02A
:10041800B90E0001CD6F730ECE6FC6EC26F0000E3C
:10042800346E89908B8AD30E0001CD6F7F0ECE6F0C
:10043800C6EC26F024EC28F00009D8B426EF02F028
:1004480028EF02F01EEF02F0B2EC26F001015F6F18
:10045800740E0001CD6F7F0ECE6F5FC1CFF0D06BF1
:10046800C6EC26F0EEEF0CF0EA0ECD6F720ECE6FF2
:10047800C6EC26F0890E0001CD6F7C0ECE6FC6EC5F
:1004880026F077EF02F09E0ECD6F790ECE6FC6EC98
:1004980026F0C7EF02F0BF0ECD6F790ECE6FC6EC17
:1004A80026F0C7EF02F0E00ECD6F790ECE6FC6ECE6
:1004B80026F0C7EF02F03A0ECD6F790ECE6FC6EC7C
:1004C80026F0C7EF02F0EC0ECD6F730ECE6F0B0E59
:1004D80003EC28F00001E16FE151CF6FD06BC6EC5F
:1004E80026F0C7EF02F00B0E03EC28F00001E16FD5
:1004F800E26BE251000AD8B484EF02F067EF02F031
:10050800E151000AD8B447EF02F0010AD8B44FEF1E
:1005180002F0030AD8B457EF02F0010AD8B45FEF2B
:1005280002F067EF02F0CB0ECD6F770ECE6FC6EC00
:1005380026F02FEF03F0A50ECD6F770ECE6FC6EC29
:1005480026F02FEF03F07F0ECD6F770ECE6FC6EC3F
:1005580026F02FEF03F0580ECD6F770ECE6FC6EC56
:1005680026F02FEF03F0160ECD6F750ECE6F0C0E22
:1005780003EC28F00001E16FE151CF6FD06BC6ECBE
:1005880026F02FEF03F00C0E03EC28F00001E16FCA
:10059800E26BE251000AD8B4D4EF02F0B7EF02F0F0
:1005A800E151000AD8B497EF02F0010AD8B49FEFDE
:1005B80002F0030AD8B4A7EF02F0010AD8B4AFEFEB
:1005C80002F0B7EF02F0200ECD6F7A0ECE6FC6ECB8
:1005D80026F09BEF03F03F0ECD6F7A0ECE6FC6EC80
:1005E80026F09BEF03F0D70ECD6F7A0ECE6FC6ECD8
:1005F80026F09BEF03F0B90ECD6F7A0ECE6FC6ECE6
:1006080026F09BEF03F09B0ECD6F7A0ECE6FC6ECF3
:1006180026F09BEF03F07D0ECD6F7A0ECE6FC6EC01
:1006280026F09BEF03F02F0ECD6F7B0ECE6FC6EC3E
:1006380026F09BEF03F0520ECD6F730ECE6F0E0EA9
:1006480003EC28F00001E16FE151CF6FD06BC6ECED
:1006580026F09BEF03F00E0E03EC28F00001E16F8B
:10066800E26BE251000AD8B43CEF03F01FEF03F04D
:10067800E151000AD8B4E7EF02F0010AD8B4EFEF6D
:1006880002F0030AD8B4F7EF02F0010AD8B4FFEF7A
:1006980002F0070AD8B407EF03F0010AD8B40FEF45
:1006A80003F0030AD8B417EF03F01FEF03F00A0EA4
:1006B800CD6F7F0ECE6FC6EC26F0FAEF03F01D0E5D
:1006C800CD6F7F0ECE6FC6EC26F0FAEF03F0300E3A
:1006D800CD6F7F0ECE6FC6EC26F0FAEF03F05E0EFC
:1006E800CD6F7D0ECE6FC6EC26F0FAEF03F0750ED7
:1006F800CD6F7D0ECE6FC6EC26F0FAEF03F08C0EB0
:10070800CD6F7D0ECE6FC6EC26F0FAEF03F07D0EAE
:10071800CD6F790ECE6F0D0E03EC28F00001E16F5E
:10072800E151CF6FD06BC6EC26F0FAEF03F00D0E57
:1007380003EC28F00001E16FE26BE251000AD8B443
:10074800A8EF03F08BEF03F0E151000AD8B473EF80
:1007580003F0010AD8B47BEF03F0030AD8B483EF9F
:1007680003F0010AD8B45BEF03F0070AD8B463EFCB
:1007780003F0010AD8B46BEF03F08BEF03F0A70E78
:10078800CD6F7E0ECE6F500ECF6FC30ED06F000EA2
:10079800D16F000ED26FC6EC26F0A70E0001CD6F08
:1007A8007E0ECE6F130ED06F880ECF6FC6EC26F07C
:1007B80016EF04F0A70ECD6F7E0ECE6F010ED06F30
:1007C800F40ECF6FC6EC26F016EF04F0010ECD6FD5
:1007D8007A0ECE6F0D0E03EC28F00001E16FE151A7
:1007E800CF6FD06BC6EC26F016EF04F00F0E03ECBB
:1007F80028F00001E16FE26BE251000AD8B407EF7C
:1008080004F0EAEF03F0E151000AD8B4C3EF03F0B3
:10081800010AD8B4D1EF03F0030AD8B4DEEF03F02D
:10082800EAEF03F0EA0E0001CD6F720ECE6FC6EC50
:1008380026F0AC0E0001CD6F7F0ECE6FC6EC26F011
:10084800920E0001CD6F7E0ECE6FC6EC26F0D30E51
:100858000001CD6F7C0ECE6FC6EC26F0170E00019E
:10086800CD6F790ECE6FC6EC26F0EA0E0001CD6F83
:10087800720ECE6FC6EC26F0BB0E0001CD6F7C0E5B
:10088800CE6FC6EC26F0170E0001CD6F780ECE6F36
:10089800C6EC26F0DA0E0001CD6F760ECE6F020E92
:1008A800D06F000ECF6FC6EC26F0EA0E0001CD6FB8
:1008B800720ECE6FC6EC26F01F0E0001CD6F710EC2
:1008C800CE6FC6EC26F00F0E0001CD6F720ECE6F04
:1008D800C6EC26F0B50E0001CD6F720ECE6FC6ECD9
:1008E80026F05E0E0001CD6F700ECE6FC6EC26F0BE
:1008F8009F0E0001CD6F700ECE6FC6EC26F0EA0E8B
:100908000001CD6F720ECE6FC6EC26F0A20E00016C
:10091800CD6F7C0ECE6FC6EC26F01F0E0001CD6F9A
:10092800740ECE6FC6EC26F0300E0001CD6F770E38
:10093800CE6FC6EC26F0FF0E0001CD6F750ECE6FA0
:10094800C6EC26F0480E0001CD6F720ECE6FC6ECD5
:1009580026F01E0E0001CD6F730ECE6FC6EC26F08A
:10096800F40E0001CD6F780ECE6FC6EC26F0EA0EBD
:100978000001CD6F720ECE6FC6EC26F04C0E000152
:10098800CD6F6F0ECE6FC6EC26F02C0E0001CD6F2A
:10099800760ECE6FC6EC26F0EA0E0001CD6F720E11
:1009A800CE6FC6EC26F0D30E0001CD6F7F0ECE6F52
:1009B800C6EC26F01EEF02F0000E0101616F000E7A
:1009C800606F615109E1280E605DD8A0EEEF04F078
:1009D800F0EF04F0F2EF04F0FEEF04F0200E000157
:1009E800CD6F6E0ECE6FC6EC26F00101604B612B09
:1009F800E5EF04F0D30E0001CD6F7F0ECE6FC6EC8D
:100A080026F0FF001EEF02F0000E0101616F000EDC
:100A1800606F615109E1280E605DD8A016EF05F0FE
:100A280018EF05F01AEF05F026EF05F0200E00018B
:100A3800CD6F6E0ECE6FC6EC26F00101604B612BB8
:100A48000DEF05F0D30E0001CD6F7F0ECE6FC6EC13
:100A580026F01EEF02F0120ECD6F7B0ECE6FC6ECA5
:100A680026F0D70E0001CD6F6F0ECE6FC6EC26F0C4
:100A7800CF0E0001CD6F6D0ECE6FC6EC26F01C0EAA
:100A88000001CD6F700ECE6FC6EC26F0BB0E0001D4
:100A9800CD6F7B0ECE6FC6EC26F0D30E0001CD6F66
:100AA8007F0ECE6FC6EC26F01EEF02F0000EE96F47
:100AB800000E346E5BEC29F0000EA9EC1EF0010E5E
:100AC800C3EC1CF0B90E0001CD6F7D0ECE6FC6ECE5
:100AD80026F0D30E0001CD6F7F0ECE6FC6EC26F048
:100AE8001EEF02F0000EE96F000E346E2D0E0101AC
:100AF8005F19D8A482EF05F084EF05F095EF05F0B3
:100B0800000E545F020E555B000E565B000E575BDD
:100B1800BB0E0001CD6F7F0ECE6FC6EC26F0A4EFA2
:100B280005F0000E5427020E5523000E5623000E22
:100B38005723C60E0001CD6F7F0ECE6FC6EC26F090
:100B4800430E0001CD6F7F0ECE6FC6EC26F0E30E8C
:100B58000001CD6F7F0ECE6F56C1CFF057C1D0F0D8
:100B6800D16BD26BC6EC26F0FC0E0001CD6F7F0E68
:100B7800CE6FC6EC26F0E30E0001CD6F7F0ECE6F70
:100B8800FF0E010154150001CF6FFF0E010155152D
:100B98000001D06F000E010156150001D16F000E43
:100BA800010157150001D26FC6EC26F0D30E0001E3
:100BB800CD6F7F0ECE6FC6EC26F01EEF02F0000E52
:100BC800E96F000E346E54C161F055C162F056C130
:100BD80063F057C164F0640E656F030E666F6BECCB
:100BE8001DF0D00E0001CD6F7E0ECE6FC6EC26F044
:100BF800E30E0001CD6F7F0ECE6F56C1CFF057C107
:100C0800D0F0D16BD26BC6EC26F0FC0E0001CD6F94
:100C18007F0ECE6FC6EC26F0E30E0001CD6F7F0E7F
:100C2800CE6FFF0E010154150001CF6FFF0E0101B9
:100C380055150001D06F000E010156150001D16F46
:100C4800000E010157150001D26FC6EC26F0200EE8
:100C58000001CD6F6E0ECE6FC6EC26F0640E00015B
:100C6800D76F030ED86F5FEC15F0D30E0001CD6F70
:100C78007F0ECE6FC6EC26F01EEF02F0F29E5FEC00
:100C880028F00B0E03EC28F0E3EC25F00C0E03EC37
:100C980028F0C9EC25F00E0E03EC28F0FDEC25F049
:100CA80068EC28F0F28EE40E0001CD6F7E0ECE6F58
:100CB800C6EC26F0D30E0001CD6F7F0ECE6FC6ECCA
:100CC80026F01EEF02F0190ECD6F7D0ECE6FC6EC2A
:100CD80026F0300E0001CD6F7D0ECE6FC6EC26F0EB
:100CE800270E0001CD6F7E0ECE6FC6EC26F0110EDA
:100CF8000001CD6F7E0ECE6FC6EC26F0FB0E000114
:100D0800CD6F7D0ECE6FC6EC26F0E50E0001CD6FDF
:100D18007D0ECE6FC6EC26F07D0E0001CD6F7E0EE7
:100D2800CE6FC6EC26F024EC28F00009D8A49FEF7B
:100D380006F0A1EF06F097EF06F0B2EC26F00101FD
:100D48005F6F5F51D00FFDEC25F001015F51D00FAF
:100D58000001606F0E0EE3EC23F0D10E0001CD6FA1
:100D68007F0ECE6F5FC1CFF0D06BC6EC26F01EEFC2
:100D780002F0620ECD6F780ECE6FC6EC26F0870EAD
:100D88000001CD6F780ECE6FC6EC26F0AC0E0001D8
:100D9800CD6F780ECE6FC6EC26F0F10E0001CD6F48
:100DA800770ECE6FC6EC26F024EC28F00009D8A404
:100DB800E0EF06F0E2EF06F0D8EF06F0B2EC26F02E
:100DC80001015F6F5F51D00FE3EC25F001015F5126
:100DD800D00F0001606F0B0EE3EC23F0D10E000181
:100DE800CD6F7F0ECE6F5FC1CFF0D06BC6EC26F013
:100DF8001EEF02F0D10ECD6F750ECE6FC6EC26F049
:100E0800A30E0001CD6F750ECE6FC6EC26F0450E11
:100E18000001CD6F750ECE6FC6EC26F0740E000182
:100E2800CD6F750ECE6FC6EC26F024EC28F00009C5
:100E3800D8A421EF07F023EF07F019EF07F0B2EC81
:100E480026F001015F6F5F51D00FC9EC25F0010159
:100E58005F51D00F0001606F0C0EE3EC23F0D10E50
:100E68000001CD6F7F0ECE6F5FC1CFF0D06BC6ECA7
:100E780026F01EEF02F03E0ECD6F7C0ECE6F000EF8
:100E8800D06F000ECF6FC6EC26F0570E0001CD6F65
:100E98007C0ECE6F000ED06F010ECF6FC6EC26F021
:100EA800700E0001CD6F7C0ECE6F000ED06F020E5B
:100EB800CF6FC6EC26F0F00E0001CD6F7B0ECE6F23
:100EC800000ED06F030ECF6FC6EC26F00A0E00019D
:100ED800CD6F7C0ECE6F000ED06F040ECF6FC6ECB8
:100EE80026F0240E0001CD6F7C0ECE6F000ED06F61
:100EF800050ECF6FC6EC26F024EC28F00009D8A424
:100F080088EF07F08AEF07F080EF07F0B2EC26F0E1
:100F180001015F6F5F51D00F0001606F0D0EE3ECB0
:100F280023F0D10E0001CD6F7F0ECE6F5FC1CFF0E1
:100F3800D06BC6EC26F01EEF02F05E0ECD6F7A0E77
:100F4800CE6F000ED06F000ECF6F500ED16FC30E54
:100F5800D26F000ED36F000ED46FC6EC26F05E0E73
:100F68000001CD6F7A0ECE6F000ED06F010ECF6FDD
:100F7800130ED26F880ED16FC6EC26F05E0E0001FC
:100F8800CD6F7A0ECE6F000ED06F020ECF6F010EAE
:100F9800D26FF40ED16FC6EC26F024EC28F00009CD
:100FA800D8A4D9EF07F0DBEF07F0D1EF07F0B2ECE8
:100FB80026F001015F6F5F51D00F0001606F0F0EC7
:100FC800E3EC23F0D10E0001CD6F7F0ECE6F5FC131
:100FD800CFF0D06BC6EC26F004EF08F0C30E3E6EDF
:100FE800500E3D6E1EEF02F0130E3E6E880E3D6EE3
:100FF8001EEF02F0010E3E6EF40E3D6E1EEF02F083
:10100800D00E0001E16FFF0EE26F01015F51000198
:10101800E36FE46BE151E327E251E423E451000A72
:10102800D8B419EF08F0F8EF07F0E351000AD8B484
:10103800F2EF07F0010AD8B4F8EF07F0030AD8B4C2
:10104800FEEF07F0F8EF07F0580ECD6F760ECE6F73
:10105800C6EC26F069EC19F00101586F200E00016A
:10106800CD6F6E0ECE6FC6EC26F07F0E0001CD6FF1
:10107800720ECE6F58C1CFF0D06BC6EC26F069EC7B
:1010880019F001014F6F200E0001CD6F6E0ECE6F6B
:10109800C6EC26F0F29E58C16FF04FC170F0680E92
:1010A80014EC21F0700E0001CD6F6E0ECE6F58C19A
:1010B800CFF0D06B4FC1D1F0D26BC6EC26F0F28ED8
:1010C800D30E0001CD6F7F0ECE6FC6EC26F01EEF5B
:1010D80002F0580ECD6F760ECE6FC6EC26F069EC96
:1010E80019F00101586F200E0001CD6F6E0ECE6F02
:1010F800C6EC26F0F29E840E0001CD6F740ECE6F02
:10110800000ED06F680ECF6F58C1D1F0D26B58C1A6
:101118006FF0680E18EC20F00001E16FE151D36F19
:10112800D46BC6EC26F0F28ED30E0001CD6F7F0E85
:10113800CE6FC6EC26F01EEF02F0F29E000E010103
:10114800616F000E606F615109E11E0E605DD8A0ED
:10115800B0EF08F0B2EF08F0B4EF08F0F7EF08F0DE
:1011680060C160F061C161F0000E0001636F140E90
:10117800626FDAEC26F0770E000160250101446FFA
:101188006B0E000161210101456F3D0E0001CD6F1D
:101198007E0ECE6F550E01016025F66E6B0E612135
:1011A800F76E0800F5500001CF6FD06B44C1D1F045
:1011B80045C1D2F0550E01016025F66E6B0E612116
:1011C800F76E0800F5CF6FF0680E18EC20F00001FC
:1011D800E16FE151D36FD46BC6EC26F00101604B8F
:1011E800612BA7EF08F0F28ED30E0001CD6F7F0EB2
:1011F800CE6FC6EC26F01EEF02F0F29E470ECD6FC2
:101208007D0ECE6FC6EC26F03B0E00016F6F680EA8
:1012180018EC20F00001E16FE151E36FE26B3C0E46
:101228006F6F680E18EC20F00001E46FE451E211D2
:101238000101506F0001E3510101516F3D0E0001A2
:101248006F6F680E18EC20F00001E16FE151E36F59
:10125800E26B3E0E6F6F680E18EC20F00001E46F31
:10126800E451E2110101526F0001E3510101536F92
:101278003F0E00016F6F680E18EC20F00001E16F5F
:10128800E151E36FE26B400E6F6F680E18EC20F0CF
:101298000001E46FE451E2110101596F0001E351CB
:1012A80001015A6F790E0001CD6F7F0ECE6F50C1CC
:1012B800CFF051C1D0F050C1D1F051C1D2F0C6EC3D
:1012C80026F08A0E0001CD6F7F0ECE6F52C1CFF08F
:1012D80053C1D0F052C1D1F053C1D2F0C6EC26F0C0
:1012E8009B0E0001CD6F7F0ECE6F59C1CFF05AC152
:1012F800D0F059C1D1F05AC1D2F0C6EC26F0F28E26
:10130800D30E0001CD6F7F0ECE6FC6EC26F01EEF18
:1013180002F0F70ECD6F7E0ECE6FC6EC26F0430EB0
:1013280000016F6F680E18EC20F00001E16FE151C9
:10133800E36FE26B440E6F6F680E18EC20F000014B
:10134800E46FE451E2110101506F0001E351010122
:10135800516F450E00016F6F680E18EC20F0000108
:10136800E16FE151E36FE26B460E6F6F680E18ECA8
:1013780020F00001E46FE451E2110101526F000115
:10138800E3510101536F470E00016F6F680E18ECAF
:1013980020F00001E16FE151E36FE26B480E6F6FDF
:1013A800680E18EC20F00001E46FE451E21101012D
:1013B800596F0001E35101015A6F790E0001CD6F99
:1013C8007F0ECE6F50C1CFF051C1D0F050C1D1F0D7
:1013D80051C1D2F0C6EC26F08A0E0001CD6F7F0E07
:1013E800CE6F52C1CFF053C1D0F052C1D1F053C12A
:1013F800D2F0C6EC26F09B0E0001CD6F7F0ECE6FAB
:1014080059C1CFF05AC1D0F059C1D1F05AC1D2F068
:10141800C6EC26F0D30E0001CD6F7F0ECE6FC6EC62
:1014280026F01EEF02F0840ECD6F760ECE6F010E01
:10143800D06F000ECF6FC6EC26F0000EE8CF63F336
:10144800010E346EF28E23EE63F0DF50D8B42FEF26
:101458000AF031EF0AF027EF0AF0000E346E560E4C
:101468000001CD6F7F0ECE6FC6EC26F0000E010195
:10147800616F000E606F020E615DD8A046EF0AF042
:1014880048EF0AF04AEF0AF07AEF0AF0640E602596
:10149800D96E030E6121DA6EDF500001E16FE15170
:1014A800E36FE26B650E01016025D96E030E6121C1
:1014B800DA6EDF500001E46FE451E2110101596F67
:1014C8000001E35101015A6F850E0001CD6F7F0EB7
:1014D800CE6F59C1CFF05AC1D0F0C6EC26F0020E3B
:1014E80001016027000E61233FEF0AF0D30E0001CF
:1014F800CD6F7F0ECE6FC6EC26F01EEF02F0680EA1
:10150800CD6F7B0ECE6FC6EC26F0E60E0001CD6FD8
:10151800740ECE6FC6EC26F0000E01015B6F000E54
:101528005C6F000E5D6F000E5E6F000EE8CF63F318
:10153800000EE8CF62F1010E346E03EF0BF023EEDC
:1015480063F0DF50D8B4ABEF0AF0ADEF0AF0A3EFC9
:101558000AF05BC161F05CC162F05DC163F05EC11D
:1015680064F0640E0001656F030E666F5CEC1EF09C
:10157800AAEC24F001014C6F4C29D8B4C6EF0AF04C
:10158800C8EF0AF0BCEF0AF0000EE8CF63F3000ED4
:101598005B27020E5C23000E5D23000E5E2321EE06
:1015A80062F0DF50D8B4DBEF0AF0DDEF0AF0D3EFDA
:1015B8000AF05BC161F05CC162F05DC163F05EC1BD
:1015C80064F0630E0001656F010E666F5CEC1EF03F
:1015D800AAEC24F001014C6F4C29D8B4F6EF0AF0BC
:1015E800F8EF0AF0ECEF0AF0000EE8CF62F1000E17
:1015F8005B27020E5C23000E5D23000E5E2324ECA5
:1016080028F00009D8B40BEF0BF00DEF0BF0A3EFA7
:101618000AF0000E346EF29A000E0001616F000E9F
:10162800606FE5EC28F0F294F2A41DEF0BF01FEFC9
:101638000BF018EF0BF0F28A000E0101616F000E3B
:10164800606F020E615DD8A02CEF0BF02EEF0BF04F
:1016580030EF0BF03CEF0BF0630E6025D96E010EF6
:101668006121DA6EFF0EDF6E604B612B25EF0BF008
:101678005BC161F05CC162F05DC163F05EC164F0A2
:10168800630E0001656F010E666F5CEC1EF0AAEC3C
:1016980024F001014C6F4C29D8B455EF0BF057EFEB
:1016A8000BF04BEF0BF0B2EC26F05BC1E1F05CC144
:1016B800E2F05DC1E3F05EC1E4F00A0E6AEF0BF000
:1016C8000001D890E433E333E233E133E82E64EFEA
:1016D8000BF0E1C048F1E2C049F15E0ECD6F710E2A
:1016E800CE6F48C1CFF049C1D0F0020ED26F000EC4
:1016F800D16FC6EC26F0D30E0001CD6F7F0ECE6FF2
:10170800C6EC26F01EEF02F0000EE96F000E346EF4
:10171800230ECD6F6E0ECE6FC6EC26F0D60E0001EE
:10172800CD6F710ECE6FC6EC26F0920E0001CD6F14
:101738006F0ECE6FC6EC26F09C0E0001CD6F710EB9
:10174800CE6FC6EC26F05C0E0001CD6F790ECE6F21
:10175800C6EC26F0CF0E0001CD6F7D0ECE6FC6EC25
:1017680026F0520E0001CD6F740ECE6FC6EC26F037
:10177800040E0001CD6F6F0ECE6FC6EC26F0BC0EC6
:101788000001CD6F7E0ECE6FC6EC26F0840E0001F0
:10179800CD6F7B0ECE6FC6EC26F024EC28F0000946
:1017A800D8B4D9EF0BF0DBEF0BF0D1EF0BF0B2ECC4
:1017B80026F0000E01014B6F000E4A6F000E5B6FA2
:1017C800000E5C6F000E5D6F000E5E6F000E4D6FB9
:1017D8008AEF0CF05BC161F05CC162F05DC163F03F
:1017E8005EC164F0640E0001656F030E666F6BECFA
:1017F8001DF0000E0101476F000E466F000E616F6D
:10180800000E606F020E615DD8A00DEF0CF00FEFB7
:101818000CF011EF0CF033EF0CF0640E6025D96E6C
:10182800030E6121DA6EDE28D8B41DEF0CF01FEF2D
:101838000CF02DEF0CF0640E6025D96E030E6121BB
:10184800DA6EDF50D8A42BEF0CF02DEF0CF02FEF51
:101858000CF0464B472B604B612B06EF0CF0020E49
:1018680047194611D8A43BEF0CF03DEF0CF041EFBF
:101878000CF0010E4D6F8AEF0CF0000E5B27020E84
:101888005C23000E5D23000E5E234A4B4B2B000E9B
:10189800616F000E606F020E615DD8A056EF0CF00C
:1018A80058EF0CF05AEF0CF08AEF0CF0640E60253C
:1018B800D96E030E6121DA6EDF500001E16FE1514C
:1018C800E36FE26B650E01016025D96E030E61219D
:1018D800DA6EDF500001E46FE451E2110101596F43
:1018E8000001E35101015A6F850E0001CD6F7F0E93
:1018F800CE6F59C1CFF05AC1D0F0C6EC26F0020E17
:1019080001016027000E61234FEF0CF04D51D8A460
:1019180090EF0CF092EF0CF09CEF0CF024EC28F018
:101928000009D8B49AEF0CF09CEF0CF0EEEF0BF036
:10193800B2EC26F0680E0001CD6F7E0ECE6F4AC164
:10194800CFF04BC1D0F0C6EC26F0B60E0001CD6F3B
:10195800740ECE6FC6EC26F09C0E0001CD6F710E92
:10196800CE6FC6EC26F05C0E0001CD6F790ECE6FFF
:10197800C6EC26F0CF0E0001CD6F7D0ECE6FC6EC03
:1019880026F03D0E0001CD6F780ECE6FC6EC26F026
:10199800BC0E0001CD6F7E0ECE6FC6EC26F0D30EC6
:1019A8000001CD6F7F0ECE6FC6EC26F01EEF02F061
:1019B800680ECD6F7F0ECE6F5FC1CFF0D06BC6ECD7
:1019C80026F0D30E0001CD6F7F0ECE6FC6EC26F049
:1019D8001EEF02F001015F510001E16FE26BE2517D
:1019E800000AD8B4FAEF0CF0DCEF0CF0E1512B0A46
:1019F800D8B476EF05F0060AD8B476EF05F0120AE7
:101A0800D8B438EF02F07E0AD8B4A1EF08F0040A7F
:101A1800D8B43FEF07F0030AD8B4FEEF06F0140A73
:101A2800D8B483EF0AF0010AD8B4A1EF07F0090A85
:101A3800D8B4E0EF04F03B0AD8B401EF09F0030A88
:101A4800D8B4E3EF05F0060AD8B467EF06F0020A47
:101A5800D8B4BDEF06F0010AD8B48DEF09F00E0A2C
:101A6800D8B45AEF05F0070AD8B417EF0AF0010AFC
:101A7800D8B442EF06F01D0AD8B46DEF08F0010A99
:101A8800D8B488EF0BF0060AD8B42FEF05F0020A95
:101A9800D8B428EF08F00D0AD8B408EF05F0DCEF49
:101AA8000CF047EF00F0A6C0D9FFA7C0DAFFDECFE1
:101AB800F6FFDDCFF7FF0800F550250AD8A467EF39
:101AC8000DF069EF0DF02DEF10F0A6C0D9FFA7C0FB
:101AD800DAFFDE2A000EDD22000E236E000E226ED3
:101AE80022C024F023C025F00001E769E869000E50
:101AF800B96F000EB86FC7EF0DF02480A6C0D9FFEC
:101B0800A7C0DAFFDE2A000EDD22C7EF0DF024821F
:101B180082EF0DF0248482EF0DF0248682EF0DF021
:101B2800248882EF0DF0000EB96F010EB86FC7EF71
:101B38000DF0A6C0D9FFA7C0DAFFDECFF6FFDDCFD4
:101B4800F7FF0800F550AA6FAB6BAB51000AD8B489
:101B5800B0EF0DF097EF0DF0AA51200AD8B491EF2D
:101B68000DF0030AD8B494EF0DF0080AD8B48EEF3C
:101B78000DF0060AD8B481EF0DF01D0AD8B48BEF2A
:101B88000DF097EF0DF0B851B911D8B4CEEF0DF0B4
:101B9800D0EF0DF09DEF0DF024A0D5EF0DF0D7EFAD
:101BA8000DF0D8EF0DF02492A6C0D9FFA7C0DAFF38
:101BB800DECFF6FFDDCFF7FF0800F5502A0AD8A4DC
:101BC800E8EF0DF0EAEF0DF013EF0EF0A6C0D9FF25
:101BD800A7C0DAFFDE2A000EDD22A8C0D9FFA9C0FF
:101BE800DAFFDFCFAAF0020EDE26DFCFABF0000E61
:101BF800DD22AAC0D9FFABC0DAFFDECF22F0DDCFED
:101C080023F023BE0CEF0EF00AEF0EF057EF0EF0A4
:101C18002480226C231ED8B0232A57EF0EF0A6C0CA
:101C2800D9FFA7C0DAFFDECF67F0DDCF68F027EC79
:101C380017F067C022F068C023F02AEF0EF0A6C0A4
:101C4800D9FFA7C0DAFFDE2A000EDD22D00E000180
:101C5800AA6FFF0EAB6FA6C0D9FFA7C0DAFFDECF11
:101C6800F6FFDDCFF7FF0800F550AC6FAD6BAA515A
:101C7800AC27AB51AD23AD510AE10A0EAC5DD8A03B
:101C880048EF0EF04BEF0EF0010E4CEF0EF0000E89
:101C9800BA6FBB6BBA51BB11D8A455EF0EF057EF12
:101CA8000EF023EF0EF0A6C0D9FFA7C0DAFFDECFF3
:101CB800F6FFDDCFF7FF0800F550630AD8A467EFF9
:101CC8000EF069EF0EF090EF0EF0A6C0D9FFA7C096
:101CD800DAFFDE2A000EDD22A8C0D9FFA9C0DAFF8C
:101CE800DFCFAAF0020EDE26DFCFABF0000EDD223A
:101CF800AAC0D9FFABC0DAFFDF50C46FA4C06BF035
:101D0800A5C06CF0C4C06DF05FEC1AF06BC0A4F015
:101D18006CC0A5F049EF10F0A6C0D9FFA7C0DAFF44
:101D2800DECFF6FFDDCFF7FF0800F550640AD8B420
:101D3800A0EF0EF0A2EF0EF0B4EF0EF0A6C0D9FFA0
:101D4800A7C0DAFFDECFF6FFDDCFF7FF0800F550BA
:101D5800690AD8A4B2EF0EF0B4EF0EF0F4EF0EF06B
:101D6800A6C0D9FFA7C0DAFFDE2A000EDD22A8C070
:101D7800D9FFA9C0DAFFDFCFAAF0020EDE26DFCF37
:101D8800ABF0000EDD22AAC0D9FFABC0DAFFDECF70
:101D9800AEF0DDCFAFF0000EAFBFFF0EB06FB16F8A
:101DA800B26FB36FB46FB56FA4C07DF0A5C07EF0FD
:101DB800AEC07FF0AFC080F0B0C081F0B1C082F09B
:101DC800B2C083F0B3C084F0B4C085F0B5C086F06B
:101DD8004AEC10F07DC0A4F07EC0A5F049EF10F0E9
:101DE800A6C0D9FFA7C0DAFFDECFF6FFDDCFF7FF29
:101DF8000800F550730AD8A404EF0FF006EF0FF0AF
:101E080031EF0FF0A6C0D9FFA7C0DAFFDE2A000E17
:101E1800DD22A8C0D9FFA9C0DAFFDFCFAAF0020EE1
:101E2800DE26DFCFABF0000EDD22AAC0D9FFABC0A3
:101E3800DAFFDECFB6F0DDCFB7F0A4C06BF0A5C0F7
:101E48006CF0B6C06DF0B7C06EF055EC16F06BC014
:101E5800A4F06CC0A5F049EF10F0A6C0D9FFA7C048
:101E6800DAFFDECFF6FFDDCFF7FF0800F550750A81
:101E7800D8A441EF0FF043EF0FF084EF0FF0A6C0A6
:101E8800D9FFA7C0DAFFDE2A000EDD22A8C0D9FFDD
:101E9800A9C0DAFFDFCFAAF0020EDE26DFCFABF053
:101EA800000EDD22AAC0D9FFABC0DAFFDECFACF04E
:101EB800DDCFADF0ACC0BCF0ADC0BDF0BE6BBF6B4C
:101EC800C06BC16BC26BC36BA4C07DF0A5C07EF0B4
:101ED800BCC07FF0BDC080F0BEC081F0BFC082F042
:101EE800C0C083F0C1C084F0C2C085F0C3C086F012
:101EF8005CEC14F07DC0A4F07EC0A5F049EF10F0B2
:101F0800A6C0D9FFA7C0DAFFDECFF6FFDDCFF7FF07
:101F18000800F550780AD8B494EF0FF096EF0FF058
:101F2800A8EF0FF0A6C0D9FFA7C0DAFFDECFF6FFF3
:101F3800DDCFF7FF0800F550580AD8A4A6EF0FF038
:101F4800A8EF0FF0F6EF0FF0A6C0D9FFA7C0DAFF91
:101F5800DECFF6FFDDCFF7FF0800F5CFC4F0A6C04F
:101F6800D9FFA7C0DAFFDE2A000EDD22A8C0D9FFFC
:101F7800A9C0DAFFDFCFAAF0020EDE26DFCFABF072
:101F8800000EDD22AAC0D9FFABC0DAFFDECFACF06D
:101F9800DDCFADF0ACC0BCF0ADC0BDF0BE6BBF6B6B
:101FA800C06BC16BC26BC36BA4C07DF0A5C07EF0D3
:101FB800BCC07FF0BDC080F0BEC081F0BFC082F061
:101FC800C0C083F0C1C084F0C2C085F0C3C086F031
:101FD800C4C087F0BCEC11F07DC0A4F07EC0A5F0B1
:101FE80049EF10F0A6C0D9FFA7C0DAFFDECFF6FF91
:101FF800DDCFF7FF0800F550250AD8A406EF10F04A
:1020080008EF10F020EF10F0A6C0D9FFA7C0DAFF44
:10201800DE2A000EDD22000E636F250E626FA4C05B
:1020280064F0A5C065F0BEEC1DF0000E0001A56FC0
:10203800010EA46F49EF10F0A6C0D9FFA7C0DAFFC0
:10204800DE2A000EDD22000EA56F000EA46F49EFF8
:1020580010F0A6C0D9FFA7C0DAFFDECFF6FFDDCFAC
:10206800F7FF0800F5500001626F636BA4C064F0CD
:10207800A5C065F0BEEC1DF0A6C0D9FFA7C0DAFF69
:10208800DE2A000EDD2219EF10F012007FC097F053
:1020980080C098F081C099F082C09AF083C09BF00C
:1020A80084C09CF085C09DF086C09EF000019EBF54
:1020B80060EF10F063EF10F0010E64EF10F0000E07
:1020C800956F966B95519611D8B46DEF10F06FEF30
:1020D80010F07FEF10F09E1F9D1F9C1F9B1F9A1FE3
:1020E800991F981F976D000E982399239A239B2375
:1020F8009C239D239E23E8BF84EF10F086EF10F009
:1021080087EF10F02492E8BF94EF10F0E85106E151
:10211800E705D8B092EF10F094EF10F09AEF10F0B6
:10212800000E926F010E916F9EEF10F0E7C091F0D4
:10213800E8C092F022C093F023C094F09551961114
:10214800D8A4A9EF10F0ABEF10F0B2EF10F024A470
:10215800B0EF10F0B2EF10F0B5EF10F09307D8A081
:102168009407000EA06F1F0E9F6F000E0101436FB2
:102178003BEF11F09F07D8A0A007240E9F25D96E2A
:10218800010EA021DA6E97C060F098C061F099C086
:1021980062F09AC063F09BC064F09CC065F09DC07B
:1021A80066F09EC067F00A0E686F000E696F000E39
:1021B8006A6F000E6B6F000E6C6F000E6D6F000E75
:1021C8006E6F000E6F6FB6EC18F060C087F061C0DC
:1021D80088F062C089F063C08AF064C08BF065C083
:1021E8008CF066C08DF067C08EF087C072F089C031
:1021F80073F04AEC24F000017251300FDF6E910742
:10220800D8A092079307D8A0940797C060F098C009
:1022180061F099C062F09AC063F09BC064F09CC002
:1022280065F09DC066F09EC067F00A0E686F000EEC
:10223800696F000E6A6F000E6B6F000E6C6F000EF8
:102248006D6F000E6E6F000E6F6FF1EC17F060C0CF
:1022580097F061C098F062C099F063C09AF064C0CA
:102268009BF065C09CF066C09DF067C09EF00001C1
:10227800A0BF47EF11F0A05108E19F05D8A047EF94
:1022880011F049EF11F079EF11F097519811991168
:102298009A119B119C119D119E11D8A456EF11F013
:1022A80058EF11F0BEEF10F092BF65EF11F09251A8
:1022B80006E19105D8B063EF11F065EF11F0BEEFBC
:1022C80010F094BF70EF11F0945108E19305D8A075
:1022D80070EF11F072EF11F079EF11F024B277EF8F
:1022E80011F079EF11F0BEEF10F095519611D8A4C6
:1022F80080EF11F082EF11F089EF11F024A487EF3D
:1023080011F089EF11F0A7EF11F09F07D8A0A007EF
:1023180095519611D8A493EF11F095EF11F09BEF1A
:1023280011F0000E906F2B0E8F6F9FEF11F0000EC3
:10233800906F2D0E8F6F240E9F25D96E010EA02150
:10234800DA6E8FC0DFFF7DC072F07EC073F0240E9E
:102358009F25746F010EA021756F93C076F094C00D
:1023680077F0A1EC1BF072C07DF073C07EF0120014
:102378000001E8BFC2EF11F0C4EF11F0C5EF11F092
:102388002492E8BFD2EF11F0E85106E1E705D8B092
:10239800D0EF11F0D2EF11F0D8EF11F0000E956FD9
:1023A800010E946FDCEF11F0E7C094F0E8C095F0EF
:1023B80022C096F023C097F024A8E5EF11F0E7EFCC
:1023C80011F0EBEF11F0FE0E9627FF0E97237FC05A
:1023D80098F080C099F081C09AF082C09BF083C0C9
:1023E8009CF084C09DF085C09EF086C09FF0000ED2
:1023F800A16F1F0EA06F000E0101436FB8EF12F01E
:10240800A007D8A0A1070F0E9815A26FA36BA3BFB2
:1024180017EF12F0A35109E10A0EA25DD8A017EF39
:1024280012F019EF12F021EF12F0570EA225A26F49
:10243800000EA321A36F27EF12F0300EA225A26F82
:10244800000EA321A36FBF0E886FFF0E896F8751FF
:102458008A6F8B6B88518A2789518B238B510AE1AC
:102468001A0E8A5DD8A03BEF12F03EEF12F0010E73
:102478003FEF12F0000E906F916B90519111D8B40C
:1024880048EF12F04AEF12F07AEF12F09F0E886FC1
:10249800FF0E896F200EA2118A6F000EA3118B6F99
:1024A80088518A2789518B238B510AE11A0E8A5D3C
:1024B800D8A061EF12F064EF12F0010E65EF12F090
:1024C800000E926F936B92519311D8B46EEF12F085
:1024D80070EF12F07AEF12F0A2C066F0A3C067F0B6
:1024E800C4EC22F066C0A2F067C0A3F0240E00017D
:1024F800A025D96E010EA121DA6EA2C0DFFF9407D4
:10250800D8A095079607D8A0970798C088F099C0D3
:1025180089F09AC08AF09BC08BF09CC08CF09DC05B
:102528008DF09EC08EF09FC08FF0050EA5EF12F0C3
:10253800D8908F338E338D338C338B338A338933F2
:102548008833E82E9CEF12F088C098F089C099F083
:102558008AC09AF08BC09BF08CC09CF08DC09DF017
:102568008EC09EF08FC09FF00001A1BFC5EF12F092
:10257800A15109E1020EA05DD8A0C5EF12F0C7EF86
:1025880012F0F7EF12F0985199119A119B119C11C2
:102598009D119E119F11D8A4D4EF12F0D6EF12F01E
:1025A80004EF12F095BFE3EF12F0955106E19405A0
:1025B800D8B0E1EF12F0E3EF12F004EF12F097BF9A
:1025C800EEEF12F0975108E19605D8A0EEEF12F061
:1025D800F0EF12F0F7EF12F024B2F5EF12F0F7EF88
:1025E80012F004EF12F024A8FCEF12F0FEEF12F044
:1025F80014EF13F0A007D8A0A107240EA025D96EC8
:10260800010EA121DA6E87C0DFFFA007D8A0A107BD
:10261800240EA025D96E010EA121DA6E300EDF6ED0
:102628007DC072F07EC073F0240EA025746F010E79
:10263800A121756F96C076F097C077F0A1EC1BF0DA
:1026480072C07DF073C07EF012008BB22EEF13F0D3
:1026580031EF13F0010E32EF13F0000EFF0A136E84
:1026680013468B501318FD0B13188B6E3404D8A423
:1026780040EF13F042EF13F03DEF14F05CEF13F06E
:102688003B0E156E83EF13F03D0E156E83EF13F0BE
:102698003F0E156E83EF13F0430E156E83EF13F0A4
:1026A800450E156E83EF13F0470E156E83EF13F08A
:1026B8000D0E4CEC28F0136E146A1450000AD8B4AE
:1026C80068EF13F04CEF13F01350000AD8B444EF3E
:1026D80013F0010AD8B448EF13F0030AD8B44CEF4A
:1026E80013F0010AD8B450EF13F0070AD8B454EF26
:1026F80013F0010AD8B458EF13F04CEF13F03F046D
:10270800D8A489EF13F08BEF13F099EF13F0322A66
:10271800630E326492EF13F094EF13F096EF13F018
:10272800000E3F6E8A9AA5EF13F032063250D8A4F5
:10273800A0EF13F0A2EF13F0A4EF13F0010E3F6E19
:102748008A8A3350D8A4ABEF13F0ADEF13F0F1EF52
:1027580013F023EE63F0DF50D8A4B5EF13F0B7EF12
:1027680013F0F1EF13F015C010F0680E8CEC21F0A7
:10277800136E640E2624D96E030E2720DA6E13C05A
:10278800DFFF1528106E680E8CEC21F0136E650EB5
:102798002624D96E030E2720DA6E13C0DFFF020E3F
:1027A8002626000E2722020E275CD8A0DEEF13F0A3
:1027B800E0EF13F03DEF14F0010EE8CF63F3010EE4
:1027C800336E000E276E000E266E000E0D6E720E12
:1027D8000C6E0EEC28F03DEF14F03304D8A4F7EF9C
:1027E80013F0F9EF13F03DEF14F021EE62F0DF5033
:1027F800D8A401EF14F003EF14F03DEF14F015C066
:1028080010F0680E8CEC21F0136E630E2624D96E3E
:10281800010E2720DA6E13C0DFFF1528106E680E30
:102828008CEC21F0136E640E2624D96E010E27203D
:10283800DA6E13C0DFFF020E2626000E2722020ED4
:10284800275CD8A02AEF14F02CEF14F03DEF14F019
:10285800010EE8CF62F1000E336E000E276E000EF7
:10286800266E000E0D6E620E0C6E0EEC28F03DEF1B
:1028780014F03450D8A443EF14F045EF14F050EF9F
:1028880014F0000E336E000E276E000E266E000E3A
:10289800326E010E3F6E8A9A61EC27F03D50015C62
:1028A800096E3E5002580A6E1BEC29F0F294120091
:1028B8000001E8BF62EF14F064EF14F065EF14F064
:1028C8002492E8BF72EF14F0E85106E1E705D8B0AA
:1028D80070EF14F072EF14F078EF14F0000E906FB0
:1028E800010E8F6F7CEF14F0E7C08FF0E8C090F016
:1028F80022C091F023C092F07FC093F080C094F082
:1029080081C095F082C096F083C097F084C098F09B
:1029180085C099F086C09AF0000E9C6F1F0E9B6FC1
:10292800000E0101436F10EF15F09B07D8A09C071C
:10293800240E9B25D96E010E9C21DA6E93C060F09F
:1029480094C061F095C062F096C063F097C064F0DF
:1029580098C065F099C066F09AC067F00A0E686F73
:10296800000E696F000E6A6F000E6B6F000E6C6FC1
:10297800000E6D6F000E6E6F000E6F6F38EC1BF05F
:1029880060C087F061C088F062C089F063C08AF0D7
:1029980064C08BF065C08CF066C08DF067C08EF0A7
:1029A80000018751300FDF6E8F07D8A0900791077D
:1029B800D8A0920793C060F094C061F095C062F00F
:1029C80096C063F097C064F098C065F099C066F04F
:1029D8009AC067F00A0E686F000E696F000E6A6F82
:1029E800000E6B6F000E6C6F000E6D6F000E6E6F39
:1029F800000E6F6FE6EC19F060C093F061C094F0C0
:102A080062C095F063C096F064C097F065C098F016
:102A180066C099F067C09AF000019B519C11D8B428
:102A280018EF15F01AEF15F04AEF15F093519411BD
:102A3800951196119711981199119A11D8A427EF09
:102A480015F029EF15F099EF14F090BF36EF15F057
:102A5800905106E18F05D8B034EF15F036EF15F038
:102A680099EF14F092BF41EF15F0925108E19105EA
:102A7800D8A041EF15F043EF15F04AEF15F024B256
:102A880048EF15F04AEF15F099EF14F07DC072F099
:102A98007EC073F0240E9B25746F010E9C21756F08
:102AA80091C076F092C077F0A1EC1BF072C07DF077
:102AB80073C07EF01200D30E0001CD6F6F0ECE6F83
:102AC800C6EC26F0000E0001E06F000EDF6FDF514C
:102AD800E011D8B472EF15F074EF15F089EF15F026
:102AE800070EDF15D96F000EE015DA6FD951DA112C
:102AF800D8A481EF15F083EF15F089EF15F0EA0EF1
:102B0800CD6F7F0ECE6FC6EC26F00001DF51E011CD
:102B1800D8B491EF15F093EF15F0ECEF15F00F0E18
:102B2800DF15D96F000EE015DA6FD951DA11D8A484
:102B3800A0EF15F0A2EF15F0ECEF15F0E90ECD6F50
:102B48007F0ECE6FC6EC26F0F00E0001DF25DB6F9E
:102B5800FF0EE021DC6FDBEF15F0DB51D725D96ED6
:102B6800DC51D821DA6E200EDF60BDEF15F0BFEF23
:102B780015F0C7EF15F0EE0ECD6F7F0ECE6FC6ECD9
:102B880026F0D8EF15F0F70ECD6F7F0ECE6FDB5124
:102B9800D725D96EDC51D821DA6EDF50D96FD951DB
:102BA800CF6FD06BC6EC26F00001DB4BDC2BDF517E
:102BB800DB5DE051DC59D8A0E4EF15F0E6EF15F045
:102BC800B1EF15F0200ECD6F6E0ECE6FC6EC26F06D
:102BD800D80E0001CD6F7F0ECE6FDF51D725D96E8D
:102BE800E051D821DA6EDF50D96FD951CF6FD06B51
:102BF800C6EC26F00001DF4BE02B020EE05DD8A00A
:102C080008EF16F00AEF16F06BEF15F0E80ECD6F2F
:102C18007F0ECE6FC6EC26F0F00E0001DF25DD6FCB
:102C2800FF0EE021DE6F43EF16F0DD51D725D96E98
:102C3800DE51D821DA6E200EDF6025EF16F027EF7F
:102C480016F02FEF16F0EE0ECD6F7F0ECE6FC6EC9E
:102C580026F040EF16F0F70ECD6F7F0ECE6FDD51E8
:102C6800D725D96EDE51D821DA6EDF50D96FD95108
:102C7800CF6FD06BC6EC26F00001DD4BDE2BDF51A9
:102C8800DD5DE051DE59D8A04CEF16F04EEF16F09E
:102C980019EF16F0200ECD6F6E0ECE6FC6EC26F033
:102CA800120020EE36F010EE70F0060EDBCFE3FFD8
:102CB800E806FCE26DC07BF06EC07CF000017B5141
:102CC8007C11D8A46AEF16F06CEF16F070EF16F0CE
:102CD800700E7B6F000E7C6F7BC060F07CC061F073
:102CE8001EEC23F060C07FF061C080F0E7C07DF08B
:102CF800E8C07EF000017EBF84EF16F086EF16F084
:102D08009BEF16F07F517D5D7E51800A6F6F805179
:102D1800800A6F59D8A093EF16F095EF16F097EF49
:102D280016F09BEF16F07DC07FF07EC080F07FC06C
:102D38007DF080C07EF022C079F023C07AF024B004
:102D4800A8EF16F0AAEF16F0C8EF16F0B9EF16F0D4
:102D5800000E636F200E626F6BC064F06CC065F08C
:102D6800BEEC1DF000017F4B802B79517F5D8051B7
:102D7800800A6F6F7A51800A6F59D8A0C6EF16F093
:102D8800C8EF16F0ACEF16F0000E786F000E776FF4
:102D9800EEEF16F07BC0F6FF7CC0F7FFF86A050E71
:102DA800F76403D00800F55005D0F6CFE9FFF7CF58
:102DB800EAFFEF5000016F6F6F51626F636B6BC07A
:102DC80064F06CC065F0BEEC1DF000017B4B7C2B01
:102DD800774B782B7D51775D7851800A6F6F7E51E4
:102DE800800A6F59D8A0FBEF16F0FDEF16F0CEEF72
:102DF80016F024A002EF17F004EF17F022EF17F0F7
:102E080013EF17F0000E636F200E626F6BC064F053
:102E18006CC065F0BEEC1DF000017F4B802B795132
:102E28007F5D8051800A6F6F7A51800A6F59D8A0F0
:102E380020EF17F022EF17F006EF17F07FC06BF0C6
:102E480080C06CF01200000E0001756F000E746FE8
:102E5800000E6E6F000E6D6F34EF17F0674B682B26
:102E6800010E736F67C0F6FF68C0F7FF0800F550E2
:102E7800200AD8B442EF17F044EF17F061EF17F0CB
:102E8800F70E696FFF0E6A6F67C0F6FF68C0F7FF3D
:102E98000800F5506B6F6C6B69516B276A516C2396
:102EA8006C5109E1050E6B5DD8A05DEF17F05FEF7F
:102EB80017F061EF17F0000E736F73C06FF0706B4F
:102EC8006F517011D8A46BEF17F06DEF17F032EF58
:102ED80017F077EF17F0000E6E6F010E6D6F674BEE
:102EE800682BADEF17F067C0F6FF68C0F7FF080062
:102EF800F550696F6A6B6A51000AD8B486EF17F00B
:102F0800ADEF17F069512B0AD8B473EF17F0060A22
:102F1800D8B46FEF17F0ADEF17F074C060F075C05C
:102F280061F0000E636F0A0E626FDAEC26F067C07C
:102F3800F6FF68C0F7FF0800F5500001605F000E5B
:102F4800615B300E6025746F000E6121756F73EF41
:102F580017F0D00E696FFF0E6A6F67C0F6FF68C082
:102F6800F7FF0800F5506B6F6C6B69516B276A515E
:102F78006C236C510AE10A0E6B5DD8A0C6EF17F0FE
:102F8800C9EF17F0010ECAEF17F0000E716F726BE0
:102F980071517211D8A4D3EF17F0D5EF17F091EF54
:102FA80017F06D516E11D8A4DCEF17F0DEEF17F0B3
:102FB800ECEF17F074C069F075C06AF0691F6A1FFA
:102FC800694B6A2B69C067F06AC068F0F0EF17F0C8
:102FD80074C067F075C068F01200000E0001716FD0
:102FE8006FBFFBEF17F0F9EF17F00DEF18F06F1F39
:102FF8006E1F6D1F6C1F6B1F6A1F691F686D000EA7
:1030080069236A236B236C236D236E236F23010EC0
:10301800716F67BF14EF18F012EF18F026EF18F071
:10302800671F661F651F641F631F621F611F606D36
:10303800000E6123622363236423652366236723C9
:10304800010E711B20EE72F0070EDE6AE806FDE243
:10305800685169116A116B116C116D116E116F1144
:10306800D8B439EF18F03BEF18F08DEF18F0010ED7
:10307800706F49EF18F0D890683769376A376B373F
:103088006C376D376E376F37702B6FAF4EEF18F0A8
:1030980050EF18F03FEF18F0D89072377337743745
:1030A800753776377737783779376851605D695182
:1030B80061596A5162596B5163596C5164596D5128
:1030C80065596E5166596F516759D8A06EEF18F05F
:1030D80070EF18F081EF18F06851605F6951615B1B
:1030E8006A51625B6B51635B6C51645B6D51655BEC
:1030F8006E51665B6F51675B7281D8906F336E3328
:103108006D336C336B336A3369336833702F50EF28
:1031180018F07151D8B493EF18F095EF18F0A5EFA7
:1031280018F0791F781F771F761F751F741F731F7C
:10313800726D000E73237423752376237723782307
:10314800792372C060F073C061F074C062F075C01A
:1031580063F076C064F077C065F078C066F079C037
:1031680067F01200000E0001716F67BFC0EF18F022
:10317800BEEF18F0D2EF18F0671F661F651F641FB7
:10318800631F621F611F606D000E6123622363234A
:103198006423652366236723010E716F6FBFD9EF20
:1031A80018F0D7EF18F0E9EF18F06F1F6E1F6D1FBA
:1031B8006C1F6B1F6A1F691F686D000E69236A23E5
:1031C8006B236C236D236E236F23685169116A1179
:1031D8006B116C116D116E116F11D8B4F6EF18F0F8
:1031E800F8EF18F040EF19F0010E706F06EF19F0C4
:1031F800D890683769376A376B376C376D376E37F1
:103208006F37702B6FAF0BEF19F00DEF19F0FCEF64
:1032180018F06851605D695161596A5162596B5182
:1032280063596C5164596D5165596E5166596F51A6
:103238006759D8A022EF19F024EF19F034EF19F0EC
:103248006851605F6951615B6A51625B6B51635B96
:103258006C51645B6D51655B6E51665B6F51675B6A
:10326800D8906F336E336D336C336B336A33693395
:103278006833702F0DEF19F07151D8B446EF19F07B
:1032880048EF19F058EF19F0671F661F651F641F94
:10329800631F621F611F606D000E61236223632339
:1032A800642365236623672360C060F061C061F012
:1032B80062C062F063C063F064C064F065C065F02A
:1032C80066C066F067C067F01200F00E0001CD6FAF
:1032D8007F0ECE6FC6EC26F024EC28F00009D8A4A7
:1032E80078EF19F07AEF19F070EF19F0000E00017D
:1032F800D76FD7EF19F02F0ED86585EF19F087EF44
:1033080019F09FEF19F03A0ED8618DEF19F08FEF91
:1033180019F09FEF19F0F70ECD6F7F0ECE6FD8C062
:10332800CFF0D06BC6EC26F00001D751100DF3504A
:10333800D825D00FD76FD8C066F0676BC4EC22F0E1
:103348000001675109E1410E665DD8A0AEEF19F0A2
:10335800B0EF19F0D7EF19F0D8C066F0676BC4EC7E
:1033680022F00001675107E1470E665DD8B0BFEF54
:1033780019F0C1EF19F0D7EF19F0F70ECD6F7F0EE6
:10338800CE6FD8C0CFF0D06BC6EC26F0D8C066F0B0
:103398000001676BC4EC22F00001D751100DF35007
:1033A8006625C90FD76FB2EC26F00001D86F0D0E55
:1033B800D819D8A4E2EF19F0E4EF19F07FEF19F06B
:1033C800D751120020EE70F0070EDE6AE806FDE223
:1033D8000001685169116A116B116C116D116E1140
:1033E8006F11D8B4FAEF19F0FCEF19F04EEF1AF09C
:1033F800010E786F0AEF1AF0D890683769376A3784
:103408006B376C376D376E376F37782B6FAF0FEFC1
:103418001AF011EF1AF000EF1AF0D89070377137E0
:103428007237733774377537763777376851605D19
:10343800695161596A5162596B5163596C516459A8
:103448006D5165596E5166596F516759D8A02FEF64
:103458001AF031EF1AF042EF1AF06851605F6951C3
:10346800615B6A51625B6B51635B6C51645B6D516C
:10347800655B6E51665B6F51675B7081D8906F3387
:103488006E336D336C336B336A3369336833782F3B
:1034980011EF1AF070C060F071C061F072C062F094
:1034A80073C063F074C064F075C065F076C066F0F0
:1034B80077C067F0120022502310D8A466EF1AF0E4
:1034C80068EF1AF06EEF1AF022C071F023C072F0A4
:1034D80075EF1AF0FF0E22240001716FFF0E2320F2
:1034E800726F24A07AEF1AF07CEF1AF086EF1AF0C8
:1034F8006DC062F00001636B6BC064F06CC065F076
:10350800BEEC1DF0000172BF8CEF1AF08EEF1AF0BE
:1035180090EF1AF094EF1AF0000E726F000E716FB0
:10352800000E706F000E6F6FA7EF1AF0000E636F3A
:10353800200E626F6BC064F06CC065F0BEEC1DF0CD
:1035480000016F4B702B71516F5D7051800A6E6F67
:103558007251800A6E59D8A0B4EF1AF0B6EF1AF07B
:103568009AEF1AF024B0BBEF1AF0BDEF1AF0C6EFCD
:103578001AF06DC062F0636B6BC064F06CC065F0EC
:10358800BEEC1DF0010E00016F256B6F000E70215F
:103598006C6F120040A2D3EF1AF005EF1CF038EC64
:1035A80028F00009D8B4DBEF1AF0DDEF1AF01BEFB2
:1035B8001BF0EBEF1AF0A7EC28F037EF1BF09EECAE
:1035C80028F037EF1BF08CEC28F037EF1BF012C116
:1035D80069F013C16AF021EE06F002D8FEEF1AF086
:1035E8000500FA6EDE50FD6EDE50FE6EF850FF6E7E
:1035F800FA50120000016B6F6C6B6C51000AD8B462
:1036080008EF1BF0E7EF1AF06B51010AD8B4E7EFA7
:103618001AF0030AD8B4DFEF1AF0010AD8B4E3EFBE
:103628001AF0070AD8B4E7EF1AF0E7EF1AF0010129
:1036380023911DC1D9FF1EC1DAFF1D4B1E2BDF5080
:1036480016EC29F001011F07D8A020071F512011EF
:10365800D8A431EF1BF033EF1BF036EF1BF0060E4A
:1036680037EF1BF0030E12000001685169116A114F
:103678006B116C116D116E116F11D8B446EF1BF000
:1036880048EF1BF090EF1BF0010E706F56EF1BF028
:10369800D890683769376A376B376C376D376E374C
:1036A8006F37702B6FAF5BEF1BF05DEF1BF04CEFCC
:1036B8001BF06851605D695161596A5162596B51DB
:1036C80063596C5164596D5165596E5166596F5102
:1036D8006759D8A072EF1BF074EF1BF084EF1BF052
:1036E8006851605F6951615B6A51625B6B51635BF2
:1036F8006C51645B6D51655B6E51665B6F51675BC6
:10370800D8906F336E336D336C336B336A336933F0
:103718006833702F5DEF1BF060C060F061C061F02E
:1037280062C062F063C063F064C064F065C065F0B5
:1037380066C066F067C067F0120024A0A6EF1BF011
:10374800A8EF1BF0B2EF1BF074C06BF075C06CF003
:1037580072C06DF073C06EF0BFEC23F0000177BF4C
:10376800B8EF1BF0BAEF1BF0C0EF1BF076C07BF090
:1037780077C07CF0C4EF1BF0000E7C6F000E7B6FEF
:10378800000E7A6F000E796FD7EF1BF0000E636F93
:10379800200E626F72C064F073C065F0BEEC1DF05D
:1037A8000001794B7A2B7B51795D7A51800A786FC9
:1037B8007C51800A7859D8A0E4EF1BF0E6EF1BF0A3
:1037C800CAEF1BF024B0EBEF1BF0EDEF1BF0F7EFA7
:1037D8001BF074C06BF075C06CF072C06DF073C0F4
:1037E8006EF0BFEC23F074C060F075C061F01EECA1
:1037F80023F000017B516025726F7C516121736F4A
:10380800120042EC28F00009D8B40DEF1CF00FEFBD
:103818001CF04CEF1CF01DEF1CF045EC29F068EF94
:103828001CF041EC29F068EF1CF039EC29F068EF46
:103838001CF012C10AF013C10BF021EE06F002D8F9
:1038480030EF1CF00500FA6EDE50FD6EDE50FE6EA5
:10385800F850FF6EFA5012000C6E0D6A0D50000AF7
:10386800D8B439EF1CF019EF1CF00C50010AD8B489
:1038780019EF1CF0030AD8B411EF1CF0010AD8B4F0
:1038880015EF1CF0070AD8B419EF1CF019EF1CF05B
:10389800010123911DC1D9FF1EC1DAFF1D4B1E2B4B
:1038A800DF5049EC29F001011F07D8A020071F515C
:1038B8002011D8A462EF1CF064EF1CF067EF1CF035
:1038C800060E68EF1CF0030E120040A26EEF1CF00B
:1038D80017EF1DF05FEC29F01DC1D9FF1EC1DAFFFB
:1038E800DF6E01011D4B1E2B1F07D8A020071F519B
:1038F8002011D8B482EF1CF084EF1CF089EF1CF083
:103908004DEC29F0050EC2EF1CF0238794EF1CF054
:1039180071EC28F0C2EF1CF07AEC28F0C2EF1CF032
:103928000CC169F00DC16AF002D8A5EF1CF00500C2
:10393800FA6E0051FD6E0151FE6EF850FF6EFA509E
:10394800120000016B6F6C6B6C51000AD8B4AFEFBA
:103958001CF090EF1CF06B51010AD8B490EF1CF0EA
:10396800030AD8B48CEF1CF0010AD8B48CEF1CF011
:10397800070AD8B490EF1CF090EF1CF01200000179
:10398800DB6F0001DB51F5EC1EF08A98FF0E7EEC30
:1039980027F0410E7EEC27F0000E7EEC27F0000E9B
:1039A8007EEC27F0000E7EEC27F0000E7EEC27F070
:1039B800FF0E7EEC27F0FF0E7EEC27F0FF0E7EEC6C
:1039C80027F00001DC6F8A88DC51D8A4EEEF1CF0E8
:1039D800F0EF1CF0C9EF1CF0DB05D8A4F6EF1CF0E3
:1039E800F8EF1CF001EF1DF0D60ECD6F7B0ECE6FF9
:1039F800DCC0CFF0D06BC6EC26F047EC23F000011A
:103A0800DC6FDB05D8A40BEF1DF00DEF1DF016EFF2
:103A18001DF04C0ECD6F7B0ECE6FDCC0CFF0D06B9F
:103A2800C6EC26F0120071EC29F01DC1D9FF1EC1A9
:103A3800DAFFDF6E01011D4B1E2B1F07D8A02007E0
:103A48001F512011D8B42BEF1DF02DEF1DF032EFD0
:103A58001DF053EC29F0050E6AEF1DF023873DEFAA
:103A68001DF02DEC29F06AEF1DF031EC29F06AEF1A
:103A78001DF00CC10AF00DC10BF002D84EEF1DF07D
:103A88000500FA6E0051FD6E0151FE6EF850FF6E92
:103A9800FA5012000C6E0D6A0D50000AD8B457EF98
:103AA8001DF039EF1DF00C50010AD8B439EF1DF0A4
:103AB800030AD8B435EF1DF0010AD8B435EF1DF06C
:103AC800070AD8B439EF1DF039EF1DF012008A98B3
:103AD800FF0E7EEC27F0510E7EEC27F000016451BA
:103AE8007EEC27F0000163517EEC27F00001625163
:103AF8007EEC27F0000161517EEC27F0FF0E7EEC92
:103B080027F0FF0E7EEC27F0FF0AD8B48EEF1DF0E9
:103B180090EF1DF085EF1DF0FF0E7EEC27F0FF0AF9
:103B2800D8B499EF1DF09BEF1DF090EF1DF0000E3B
:103B38000001686F000E676F67516525D96E68517F
:103B48006621DA6EFF0E7EEC27F0DF6E0001674B10
:103B5800682B020E685DD8A0B4EF1DF0B6EF1DF01B
:103B6800A0EF1DF0FF0E7EEC27F0FF0E7EEC27F095
:103B78008A881200000164516511D8B4C6EF1DF09F
:103B8800C8EF1DF0D1EF1DF064516511D8A4CFEF37
:103B98001DF0D1EF1DF0D6EF1DF06251D0EC28F0EA
:103BA80009EF1EF020EE04F06451D9266551DA229F
:103BB800DE50DE10D8B4E3EF1DF0E5EF1DF000EFA6
:103BC8001EF020EE04F06451D9266551DA2210EE79
:103BD80002F06451E1266551E222DE50E65CE650CF
:103BE800800A6A6FDE50800A6A59D8B0FEEF1DF06D
:103BF80000EF1EF009EF1EF020EE02F06451D92606
:103C08006551DA22DE2A000EDD2262C062F0000170
:103C1800636B120005500610D8B415EF1EF017EFAD
:103C28001EF020EF1EF005500610D8A41EEF1EF05F
:103C380020EF1EF025EF1EF0035020EC29F058EF7E
:103C48001EF020EE04F00550D9260650DA22DE5088
:103C5800DE10D8B432EF1EF034EF1EF04FEF1EF036
:103C680020EE04F00550D9260650DA2210EE02F0B4
:103C78000550E1260650E222DE50E65CE650800A56
:103C88000B6EDE50800A0B58D8B04DEF1EF04FEF88
:103C98001EF058EF1EF020EE02F00550D92606500F
:103CA800DA22DE2A000EDD2203C003F0046A1200C5
:103CB8008A98FF0E7EEC27F0580E7EEC27F0000164
:103CC80064517EEC27F0000163517EEC27F000017F
:103CD80062517EEC27F0000161517EEC27F0FF0E67
:103CE8007EEC27F0FF0E7EEC27F0FF0AD8B47FEFBA
:103CF8001EF081EF1EF076EF1EF0FF0E7EEC27F02F
:103D0800FF0E7EEC27F0FF0E7EEC27F0FE0E7EEC19
:103D180027F0000E0001686F000E676F6751652578
:103D2800D96E68516621DA6EDF507EEC27F000010B
:103D3800674B682B020E685DD8A0A5EF1EF0A7EFB1
:103D48001EF092EF1EF08A8812000001616F6CBAB3
:103D5800B0EF1EF0B2EF1EF0F4EF1EF0000161515B
:103D6800040D010EF326000EF422730EF324F66EF2
:103D78006B0EF420F76E0800F5CF6DFF6151040D4E
:103D8800730EF324F66E6B0EF420F76E0800F5CF71
:103D98006CFF000E6B6E6151040D020EF326000ECF
:103DA800F422730EF324F66E6B0EF420F76E0800FF
:103DB800F5CF6EFF6151040D030EF326000EF422B9
:103DC800730EF324F66E6B0EF420F76E0800F5CF31
:103DD80060F0604793506019FD0B6019936E6C8A10
:103DE80012000001D76F000E0001DA6F000ED96FC4
:103DF800FF0E7EEC27F00001D94BDA2BDABF0EEF6D
:103E08001FF0DA5109E10A0ED95DD8A00EEF1FF0B4
:103E180010EF1FF0FCEF1EF08A98FF0E7EEC27F0E3
:103E2800400E7EEC27F0000E7EEC27F0000E7EECB4
:103E380027F0000E7EEC27F0000E7EEC27F0950EA2
:103E48007EEC27F0FF0E7EEC27F0FF0E7EEC27F0CD
:103E58000001D86F8A88D705D8A435EF1FF037EF4F
:103E68001FF040EF1FF0A00ECD6F7B0ECE6FD8C0B5
:103E7800CFF0D06BC6EC26F012000001606F010E87
:103E88000001616F010123B54CEF1FF04EEF1FF0E9
:103E980089EF1FF060C01CF12393238523910E0E38
:103EA800216F010E1B6FF40E1A6F2387BC0E006F73
:103EB800510E016F000E0C6F000E0D6FBC0E026FDD
:103EC800510E036F000E0E6F000E0F6FBC0E046FC5
:103ED800510E056F000E106F000E116FBC0E066FAD
:103EE800510E076F000E126F000E136FAE0E086FA3
:103EF800510E096F000E146F000E156F6DEC29F04E
:103F080012EC27F0000E0001616F000161511200F0
:103F1800016E010E026E010123B595EF1FF097EFB8
:103F28001FF0D1EF1FF001C01CF1239323852391CB
:103F38000E0E216F010E1B6FF40E1A6F2387EE0E03
:103F4800006F520E016F000E0C6F000E0D6FEE0E1B
:103F5800026F520E036F000E0E6F000E0F6FEE0E03
:103F6800046F520E056F000E106F000E116FEE0EEB
:103F7800066F520E076F000E126F000E136FEA0ED7
:103F8800086F520E096F000E146F000E156F83EC48
:103F980029F023EC27F0000E026E0250120040A216
:103FA800D8EF1FF098EF20F001012387E9EF1FF009
:103FB80095EC28F017EF20F05DEC29F0030E17EFD1
:103FC80020F08CEC28F017EF20F00CC169F00DC13F
:103FD8006AF002D8FAEF1FF00500FA6E0051FD6E84
:103FE8000151FE6EF850FF6EFA50120000016B6F1F
:103FF8006C6B6C51000AD8B404EF20F0E5EF1FF0A9
:104008006B51010AD8B4E5EF1FF0030AD8B4DCEF0E
:104018001FF0010AD8B4DCEF1FF0070AD8B4E0EFAC
:104028001FF0E5EF1FF012000001706F000E000195
:10403800716F0001705141EC1FF00009D8B427EFEF
:1040480020F029EF20F01DEF20F0B20E0001656F7F
:104058004A0E666F710E676F000E686FBEEC27F030
:104068006F0E0001606F000E616F000E636F010E2E
:10407800626FEEEC26F0000E0001656F000E666FB1
:10408800000E676F000E686FB2EC27F025EC29F080
:1040980015EC26F0E806D8B454EF20F056EF20F0DF
:1040A8004CEF20F00001715112000001646F000113
:1040B80060516111D8B463EF20F065EF20F07FEF15
:1040C80020F06451020D000EF324D96E010EF42085
:1040D800DA6E60C0DEFF61C0DDFF6451020D0C0EB8
:1040E800F324D96E010EF420DA6E62C0DEFF63C0DD
:1040F800DDFF97EF20F06451020D000EF324D96E16
:10410800010EF420DA6EBC0EDE6E510EDD6E6451C7
:10411800020D0C0EF324D96E010EF420DA6E000E97
:10412800DE6E000EDD6E120001012387A9EF20F07C
:104138003DEC29F0D6EF20F06FEC29F0030ED6EF16
:1041480020F039EC29F0D6EF20F00CC10AF00DC1AF
:104158000BF002D8BAEF20F00500FA6E0051FD6EA0
:104168000151FE6EF850FF6EFA5012000C6E0D6A87
:104178000D50000AD8B4C3EF20F0A5EF20F00C5082
:10418800010AD8B4A5EF20F0030AD8B49CEF20F0B8
:10419800010AD8B49CEF20F0070AD8B4A0EF20F0A9
:1041A800A5EF20F01200056E01500210D8B4DFEF21
:1041B80020F0E1EF20F0FBEF20F00550020D000E9B
:1041C800F324D96E010EF420DA6E01C0DEFF02C0BE
:1041D800DDFF0550020D0C0EF324D96E010EF420FC
:1041E800DA6E03C0DEFF04C0DDFF13EF21F00550D7
:1041F800020D000EF324D96E010EF420DA6EEE0ED5
:10420800DE6E520EDD6E0550020D0C0EF324D96ED3
:10421800010EF420DA6E000EDE6E000EDD6E120066
:104228000001716F0001715141EC1FF00009D8B411
:1042380020EF21F022EF21F016EF21F03E0E0001D1
:10424800656F4A0E666F700E676F000E686FBEEC82
:1042580027F06F0E0001606F000E616F000E636F34
:10426800010E626FEEEC26F0000E0001656F000E85
:10427800666F000E676F000E686FB2EC27F025ECD2
:1042880029F015EC26F0E806D8B44DEF21F04FEFF1
:1042980021F045EF21F0120040A255EF21F0C6EFC2
:1042A80021F001012391020E226F63EF21F095ECBA
:1042B80028F08BEF21F08CEC28F08BEF21F010C167
:1042C80069F011C16AF021EE04F002D876EF21F00E
:1042D8000500FA6EDE50FD6EDE50FE6EF850FF6E81
:1042E800FA50120000016B6F6C6B6C51000AD8B465
:1042F80080EF21F05FEF21F06B51020AD8B45BEF39
:1043080021F0010AD8B45BEF21F05FEF21F0120031
:10431800116E000E126E11508CEC1FF00009D8B40B
:1043280098EF21F09AEF21F08FEF21F0E00E066E62
:104338004C0E076E120E086E000E096ED6EC27F0B2
:10434800100E016E000E026E000E046E010E036E5A
:1043580000EC27F0000E066E000E076E000E086EC9
:10436800000E096ECAEC27F029EC29F09CEC26F027
:10437800E806D8B4C2EF21F0C4EF21F0BAEF21F07B
:104388001250120001012391020E226FD4EF21F086
:104398003DEC29F0FBEF21F039EC29F0FBEF21F09F
:1043A80010C10AF011C10BF021EE04F002D8E7EFBA
:1043B80021F00500FA6EDE50FD6EDE50FE6EF850FC
:1043C800FF6EFA5012000C6E0D6A0D50000AD8B438
:1043D800F0EF21F0D0EF21F00C50020AD8B4CCEF66
:1043E80021F0010AD8B4CCEF21F0D0EF21F012006F
:1043F800FA0EF66E510EF76E000EF86E00EE36F0FD
:1044080010EE0AF00900F5CFEEFFE550E150FAE1B1
:1044180001EE62F014EE02F0EE6AE550E150FCE1C4
:10442800E250FAE101EE00F0440EEE6AE806FDE122
:104438000001E96BE86BE76BE66BE56B00EE22F0D9
:10444800140EEE6AE806FDE140904092000EF86E08
:10445800000149EF00F06DEC29F0010123A137EFCD
:1044680022F039EF22F046EF22F038EC28F000096C
:10447800D8B441EF22F043EF22F046EF22F00F0EBE
:104488000101216F01012151020D350EF324F66E51
:104498006B0EF420F76E02D85EEF22F00500FA6E7C
:1044A8000900F550FD6E0900F550FE6EF850FF6EDC
:1044B800FA5012000101216F120083EC29F001016A
:1044C80023A169EF22F06BEF22F078EF22F042ECA3
:1044D80028F00009D8B473EF22F075EF22F078EFD6
:1044E80022F00F0E0101216F01012151020D350E3D
:1044F800F324F66E6B0EF420F76E02D890EF22F0DC
:104508000500FA6E0900F550FD6E0900F550FE6EC3
:10451800F850FF6EFA5012000101216F1200C7C057
:10452800CBF0C8C0CCF0000E0001E66F000EE56FBE
:10453800B1EF22F0C5C0A4F0C6C0A5F0CB0EA66F9F
:10454800000EA76FC9C0A8F0CAC0A9F057EC0DF0BB
:104558000001A451E527A551E623CBC0F6FFCCC046
:10456800F7FF0800F5500009D8A4BDEF22F0BFEF0F
:1045780022F09EEF22F0E5C0C5F0E6C0C6F01200BA
:104588009F0E0001686FFF0E696F66C06AF067C012
:104598006BF068516A2769516B236B510AE11A0E57
:1045A8006A5DD8A0DAEF22F0DDEF22F0010EDEEF2F
:1045B80022F0000E6C6F6D6B6C516D11D8B4E7EF83
:1045C80022F0E9EF22F0EFEF22F05F0E6615666F3A
:1045D800676BF3EF22F066C066F067C067F0120001
:1045E800010E0001666F200E60196111D8B4FFEF4B
:1045F80022F001EF23F01AEF23F0F70E626FFF0E9F
:10460800636F60C064F061C065F0625164276351F4
:104618006523655109E1050E645DD8A016EF23F006
:1046280018EF23F01AEF23F0000E666F66C060F0F3
:10463800616B120060C062F061C063F027EF23F085
:104648000001604B612B60C0F6FF61C0F7FFF86A9C
:10465800050EF76403D00800F55005D0F6CFE9FF42
:10466800F7CFEAFFEF500009D8A43DEF23F03FEF62
:1046780023F024EF23F000016251605D606F635105
:104688006159616F12008A98FF0E7EEC27F0500E78
:104698007EEC27F0000E7EEC27F0000E7EEC27F073
:1046A800020E7EEC27F0000E7EEC27F0FF0E7EEC6B
:1046B80027F0FF0E7EEC27F0FF0E7EEC27F00001BE
:1046C800616F8A886129D8B46CEF23F06EEF23F00C
:1046D80047EF23F06151120000016D6F010E0001D8
:1046E8006E6F010123B37BEF23F07DEF23F095EF8D
:1046F80023F02383000E00016E6F6D51D8B487EF4D
:1047080023F089EF23F08EEF23F0010E0101216FD2
:1047180091EF23F0020E0101216F67EC29F043ECC1
:1047280027F000016E51120040A29DEF23F06BEFBD
:1047380024F0000120EE02F06951D9266A51DA22EC
:10474800DECF60F0DDCF61F069C0D9FF6AC0DAFF63
:10475800DECF62F0DDCF63F0EEEC26F0000E000154
:10476800656F000E666F000E676F000E686FBEEC17
:1047780027F0020E1200000E0001716F000E706F1C
:10478800D2EF23F06FC062F0636B6DC064F06EC04F
:1047980065F0BEEC1DF00001704B712B70516B255C
:1047A800D96E71516C21DA6EDF506F6F6F51D8A4DA
:1047B800E0EF23F0E2EF23F0C6EF23F01200000150
:1047C800616F000EF2BE010E0001626F61C0A9FFA9
:1047D80060C0A8FFA69EA69CA684F29E550EA76E52
:1047E800AA0EA76EA682A6B2FCEF23F0FEEF23F076
:1047F800F7EF23F0A694000162B102D0F29E01D037
:10480800F28E1200080EB86E900EAB6E240EAC6ECF
:104818008A0EAF6E000EB06E000E0001606F000EC3
:10482800616F0CEC29F0000E0001606F000E616FE3
:1048380007EC29F0000E0001606F000E616F11ECAB
:1048480029F0000E356E12000E6E010E0F6E01017A
:1048580023B331EF24F033EF24F048EF24F023831F
:10486800000E0F6E0E50D8B43CEF24F03EEF24F04B
:1048780042EF24F0010E216F44EF24F0020E216F65
:104888007DEC29F052EC27F00F501200000173BFA5
:1048980058EF24F0735106E17205D8B056EF24F0B2
:1048A80058EF24F066EF24F072C074F073C075F00E
:1048B800741F751F744B752B74C072F075C073F03C
:1048C8006AEF24F072C072F073C073F0120020EE29
:1048D80002F00A50D9260B50DA22DECF01F0DDCFE4
:1048E80002F00AC0D9FF0BC0DAFFDECF03F0DDCF3C
:1048F80004F000EC27F0000E066E000E076E000EA6
:10490800086E000E096ED6EC27F0020E12009F0EFC
:104918000001626FFF0E636F200E6011646F000E5E
:104928006111656F625164276351652365510AE11E
:104938001A0E645DD8A0A3EF24F0A6EF24F0010EB0
:10494800A7EF24F0000E606F616B12008A980D0EBD
:104958007EEC27F00001616F8A886129D8A4B7EF3F
:1049680024F0B9EF24F0BCEF24F0FF0EC7EF24F0D9
:10497800FF0E7EEC27F0FF0E7EEC27F0FF0E7EEC9C
:1049880027F00001615112009F0E0001626FFF0EB7
:10499800636F60C064F061C065F062516427635161
:1049A800652365510AE11A0E645DD8A0DEEF24F094
:1049B800E1EF24F0010EE2EF24F0000E606F616B6E
:1049C8001200BF0E0001626FFF0E636F60C064F0DB
:1049D80061C065F0625164276351652365510AE13E
:1049E8001A0E645DD8A0FBEF24F0FEEF24F0010E50
:1049F800FFEF24F0000E606F616B1200D00E000113
:104A0800626FFF0E636F60C064F061C065F0625151
:104A180064276351652365510AE10A0E645DD8A0D5
:104A280018EF25F01BEF25F0010E1CEF25F0000E06
:104A3800606F616B120040A224EF25F044EF26F06E
:104A480069C060F06AC061F0000E0001636F010E7A
:104A5800626FEEEC26F0000E0001656F000E666FC7
:104A6800000E676F000E686FBEEC27F0040E120090
:104A780040A241EF25F05AEF26F069C060F06AC005
:104A880061F0000E0001636F020E626FEEEC26F01B
:104A9800000E0001656F000E666F000E676F000E56
:104AA800686FBEEC27F0020E120040A25EEF25F000
:104AB80070EF26F069C060F06AC061F0000E000176
:104AC800636F010E626FEEEC26F0000E0001656F59
:104AD800000E666F000E676F000E686FBEEC27F061
:104AE800020E120040A27BEF25F086EF26F069C087
:104AF80060F06AC061F0000E0001636F020E626F21
:104B0800EEEC26F0000E0001656F000E666F000ED9
:104B1800676F000E686FBEEC27F0040E1200F29467
:104B28002F50D76E2EC0D6FF30503110D8B49FEF1B
:104B380025F0A1EF25F0AEEF25F002D8AEEF25F075
:104B48000500FA6E3050FD6E3150FE6EF850FF6E63
:104B5800FA5012001200D59CD768D668D650D7CF25
:104B680062F00001636B62C063F0626B62112E6ECB
:104B780063512F6EF294F28A0A0E606F530E616FC2
:104B880002EC29F0930ED56E12000001726FF29EAE
:104B98001B0E00016F6F680E18EC20F00001736F98
:104BA800E70E73177239E842F80B73131B0E6F6F19
:104BB80073C070F0680E14EC21F0F28E1200000140
:104BC800726FF29E1C0E00016F6F680E18EC20F0D9
:104BD8000001736FE70E73177239E842F80B73130D
:104BE8001C0E6F6F73C070F0680E14EC21F0F28E1B
:104BF80012000001726FF29E1A0E00016F6F680EAC
:104C080018EC20F00001736FF80E731772517313CC
:104C18001A0E6F6F73C070F0680E14EC21F0F28EEC
:104C28001200010E0001606F010123B31EEF26F090
:104C380020EF26F02AEF26F023951C696DEC29F069
:104C480069EC29F06BEC29F022C160F00001605199
:104C58001200000E896E000E8A6E000E8B6EFE0E1C
:104C6800926EC50E936E9D0E946E000E0F013A6FF4
:104C7800210E396F2E0E386F000E616EF18E120004
:104C88000AC001F00BC002F0000E046E010E036EA4
:104C980000EC27F0000E066E000E076E000E086E80
:104CA800000E096ED6EC27F0040E12000AC001F0BF
:104CB8000BC002F0000E046E020E036E00EC27F02B
:104CC800000E066E000E076E000E086E000E096ECE
:104CD800D6EC27F0020E12000AC001F00BC002F059
:104CE800000E046E010E036E00EC27F0000E066E37
:104CF800000E076E000E086E000E096ED6EC27F047
:104D0800020E12000AC001F00BC002F0000E046E81
:104D1800020E036E00EC27F0000E066E000E076E02
:104D2800000E086E000E096ED6EC27F0040E120075
:104D3800010E016E010123B3A4EF26F0A6EF26F0C1
:104D4800B0EF26F023951C6983EC29F07FEC29F05D
:104D580081EC29F022C101F0015012009EAAB7EFA0
:104D680026F0B9EF26F0B2EF26F0000E356EABA2B2
:104D7800C0EF26F0C2EF26F0C4EF26F0AB98AB8860
:104D8800AE501200CF0E0001D56F000ED66F000E88
:104D9800C56F000EC66FCDC0C7F0CEC0C8F0D50E27
:104DA800C96F000ECA6F93EC22F012000001605127
:104DB8006203F3CF64F0F4CF65F060516303F350FE
:104DC800652761516203F350652764C060F065C0D0
:104DD80061F01200010123A7F4EF26F0F6EF26F0A8
:104DE800FFEF26F060C01DF161C01EF162C01FF127
:104DF80063C020F123971200010123A706EF27F0D3
:104E080008EF27F011EF27F001C01DF102C01EF1D5
:104E180003C01FF104C020F123971200C6BA17EF90
:104E280027F019EF27F022EF27F0000EC76E080EC3
:104E3800C66E000EC56E270EC86EC68A1200C6BAA8
:104E480028EF27F02AEF27F033EF27F0000EC76E80
:104E5800080EC66E000EC56E270EC86EC68A1200F2
:104E680059EC29F02EEC28F056EC28F02DEC26F021
:104E780070EC27F0AFEC25F006EC24F0120049EFB7
:104E880027F0B0EC28F02FEC22F0010123B34FEF0C
:104E980027F051EF27F045EF27F0120058EF27F0E1
:104EA800B8EC28F061EC22F0010123B35EEF27F0A3
:104EB80060EF27F054EF27F01200D6CF07F0D7CFD6
:104EC80008F00850036E0750056E03C006F005C0D1
:104ED80001F006C002F01200700ED36E040ED26EFE
:104EE800400E9B6ED2AE7BEF27F07DEF27F076EF7A
:104EF80027F012000001606F60C06FFFA4AE87EF5B
:104F080027F089EF27F082EF27F0A49E6F50120058
:104F180040A291EF27F0C0EF28F0010123811C5136
:104F28001C2516EC29F0030E120040A29EEF27F074
:104F3800C8EF28F001012381D8801C3516EC29F030
:104F4800050E12000001606F9EA8ADEF27F0AFEFCD
:104F580027F0A8EF27F060C0ADFF120065C060F031
:104F680066C061F067C062F068C063F0020E59EC79
:104F780020F0120065C060F066C061F067C062F0A2
:104F880068C063F0000E59EC20F0120006C001F072
:104F980007C002F008C003F009C004F0020ED7EC05
:104FA80020F0120006C001F007C002F008C003F0AC
:104FB80009C004F0000ED7EC20F0120040A2E7EF81
:104FC80027F0EBEF28F001012393000E226F0E0E5D
:104FD800120040A2F2EF27F0F1EF28F0010123912F
:104FE80061EC29F0040E120040A2FDEF27F0F7EF64
:104FF80028F001012393000E226F0E0E120000010B
:10500800606F60C0A9FFA69CA69EA68000F000F075
:10501800A85012000CC003F00DC004F0000E056E7D
:10502800000E066E0EEC1EF01200016E9EA81FEF19
:1050380028F021EF28F01AEF28F001C0ADFF120088
:105048009EBA29EF28F02CEF28F0010E2DEF28F05A
:10505800000E1200000EC76E080EC66E000EC56E5A
:10506800270EC86EC69A1200C5BC3DEF28F040EF67
:1050780028F0010E41EF28F0000E1200C5BC47EFE2
:1050880028F04AEF28F0010E4BEF28F0000E12002E
:10509800016E01C0A9FFA69CA69EA68000F000F0A4
:1050A800A8501200400E6D6E010E6C6E010E6E6EF1
:1050B80093926C9A12006B0E00016F6F800E706FE6
:1050C800680E14EC21F012006B0E00016F6F000ED9
:1050D800706F680E14EC21F0120040A276EF28F0F1
:1050E8002DEF29F050EC29F0090E120040A27FEFB5
:1050F80028F031EF29F050EC29F00A0E120040A2F6
:1051080088EF28F035EF29F04DEC29F0050E120054
:1051180040A291EF28F039EF29F063EC29F0000E56
:10512800120040A29AEF28F03DEF29F065EC29F033
:10513800010E120040A2A3EF28F041EF29F065EC20
:1051480029F0020E120040A2ACEF28F045EF29F03A
:1051580065EC29F0010E12009EA6B5EF28F0B7EF16
:1051680028F0B0EF28F012009EA6BDEF28F0BFEFA0
:1051780028F0B8EF28F01200010123811C511C25EA
:1051880049EC29F0030E120001012381D8801C3557
:1051980049EC29F0050E12000001616F0001615110
:1051A800A6EC27F0120040A2DCEF28F075EF29F0FA
:1051B800050E120040A2E3EF28F077EF29F0010E68
:1051C800120000016151D76E60C0D6FF12000101C4
:1051D8002393000E226F0E0E12000101239173EC2F
:1051E80029F0040E120001012393000E226F0E0E07
:1051F8001200286E756C6C290088130160C030F0AD
:1052080061C031F0120060C02AF061C02BF01200BA
:1052180060C02CF061C02DF0120060C028F061C0A1
:1052280029F012000001606F60C0C9FF12000A5027
:10523800D76E09C0D6FF1200026E025019EC28F092
:105248001200000E70EC23F01200000E28EC24F07F
:10525800120056EC29F0090E120056EC29F00A0E3D
:10526800120053EC29F0050E120079EC29F0000E1B
:1052780012007BEC29F0010E12007BEC29F0020EE3
:1052880012007BEC29F0010E1200016E01C0C9FF6B
:105298001200C59AC5881200C58AC5881200C59A29
:1052A800C5881200C58AC5881200D09E12006C9A63
:1052B80012009E861200C9501200C5861200C584CD
:1052C8001200C5821200C58012009D961200C69A6F
:1052D80012009E9612009E861200C9501200C586C2
:1052E8001200050E1200010E1200C5841200C582BC
:1052F8001200C58012009D961200C69A12009E9652
:04530800120012007D
:106B340000F04F324F184F9C35D238DA4FA63F4EF3
:106B4400513C512A5118510651F450E250C44FA0FF
:106B5400420D0E0F10191A1B1C2337383A3B3C3DCB
:106B64003E3F4041424344454647486A6B6C750189
:106B740040010053454C465F544553545F58000050
:106B84000000000000000053454C465F5445535438
:106B94005F5900000000000000000053454C465FB0
:106BA400544553545F5A0000000000000000005395
:106BB400454C465F544553545F41000000000000BB
:106BC400000000534D504C52545F4449560000009D
:106BD40000000000000000434F4E464947000000FB
:106BE40000000000000000000000004759524F5F01
:106BF400434F4E464947000000000000000000419A
:106C04004343454C5F434F4E464947000000000054
:106C14000000004649464F5F454E0000000000005A
:106C240000000000000000494E545F50494E5F438D
:106C34004647000000000000000000494E545F4534
:106C44004E41424C45000000000000000000004995
:106C54004E545F535441545553000000000000004B
:106C6400000000414343454C5F584F55545F480072
:106C740000000000000000414343454C5F584F555D
:106C8400545F4C0000000000000000414343454CA9
:106C94005F594F55545F4800000000000000004158
:106CA4004343454C5F594F55545F4C00000000006E
:106CB400000000414343454C5F5A4F55545F480020
:106CC40000000000000000414343454C5F5A4F550B
:106CD400545F4C000000000000000054454D505F1C
:106CE4004F55545F480000000000000000000054AD
:106CF400454D505F4F55545F4C00000000000000AC
:106D04000000004759524F5F584F55545F480000E8
:106D1400000000000000004759524F5F584F55547F
:106D24005F4C0000000000000000004759524F5F14
:106D3400594F55545F480000000000000000004710
:106D440059524F5F594F55545F4C000000000000EA
:106D54000000004759524F5F5A4F55545F48000096
:106D6400000000000000004759524F5F5A4F55542D
:106D74005F4C000000000000000000555345525FC6
:106D84004354524C0000000000000000000000507A
:106D940057525F4D474D545F310000000000000022
:106DA4000000005057525F4D474D545F32000000C1
:106DB4000000000000000057484F5F414D5F495FED
:106DC4004D5055363035300000000020202020532F
:106DD40074657020323A20507265737320626F7448
:106DE400746F6D20627574746F6E20746F20737489
:106DF400617274207265636F7264696E672020200B
:106E0400202020466C617368696E6720302E3548F7
:106E14007A20677265656E204C4544200D0A005344
:106E2400706F6F6C696E67207468652053442063CB
:106E34006172642077696C6C206175746F6D617424
:106E44006963616C6C79207465726D696E617465D7
:106E5400207768656E20454F4620697320656E6310
:106E64006F756E74657265642E0D0A004932433184
:106E74005F577269746531427974655265676973E5
:106E8400746572284D5055363035305F4445564947
:106E940043455F414444524553532C2030782530B8
:106EA40032782C203078253032782920636F6D7049
:106EB4006C6574650D0A00496E206175746F6E6FA0
:106EC4006D6F7573207265636F7264206D6F646596
:106ED400202D20707265737320626F74746F6D203F
:106EE400627574746F6E20746F2073746172742091
:106EF40064617461206C6F6767696E672E0D0A00A8
:106F04004C6F672066696C65206E616D653A202060
:106F140042726F77736520616E642070726F766958
:106F240064652061202E63737620657874656E73C2
:106F3400696F6E20746F20796F75722066696C6555
:106F4400206E616D650D0A00523A205265636F72BE
:106F54006420646174612066726F6D204D505536F3
:106F640030353020286163636F7264696E67207402
:106F74006F20636F6E66696775726174696F6E29DD
:106F840020746F20534420636172640D0A00546FAF
:106F94002073706F6F6C207465726D696E616C2004
:106FA400636F6E74656E747320696E746F206120F4
:106FB40066696C6520666F6C6C6F772074686573A6
:106FC4006520696E737472756374696F6E733A0DBC
:106FD4000A0A00202020205374657020313A205280
:106FE40065736574202B20746F7020627574746FE0
:106FF4006E20707265737365642020202020202029
:10700400202020202020202020202059656C6C6F17
:1070140077204C45440D0A002020202053746570CD
:1070240020333A2050726573732075707065722036
:10703400627574746F6E20746F2073746F70206C3B
:107044006F6767696E672020202020202020202081
:10705400526564204C45440D0A00453A205365743A
:10706400207468652074797065206F66206461748B
:10707400612074686174206973206C6F676765644C
:1070840020616E642073746F726520696E205049AC
:107094004320454550524F4D0D0A00533A20536545
:1070A40074207468652073616D706C6520726174FE
:1070B40065206F6620746865204D50553630353034
:1070C40020616E642073746F726520696E2050496C
:1070D4004320454550524F4D0D0A00496E6974696D
:1070E400616C697A696E673A20616363656C657285
:1070F4006174696F6E207363616C652C20677972AB
:107104006F73636F7065207363616C652C20646CAE
:107114007066207363616C650D0A00643A207365C0
:1071240074206469676974616C206C6F7720706186
:1071340073732066696C746572207363616C652077
:10714400616E642073746F726520696E20504943C8
:1071540020454550524F4D0D0A000D0A4A7573746F
:107164002077726F746520257520626C6F636B7372
:1071740020746F20534420636172642E2045616340
:107184006820626C6F636B206861732025752062D0
:10719400797465732E0D0A005269676874206D6FE7
:1071A40075736520636C69636B206F6E207468650A
:1071B400207570706572206C656674206F6620742B
:1071C40068652050755454592077696E646F770D43
:1071D4000A00596F75206D6179207465726D696E4E
:1071E4006174652073706F6F6C696E6720617420C1
:1071F400616E7974696D6520776974682061206BAC
:10720400657970726573732E0D0A00663A20736592
:107214007420616363656C65726F6D65746572205B
:10722400465352207363616C6520616E64207374ED
:107234006F726520696E2050494320454550524F76
:107244004D0D0A00613A20726561642061636365D3
:107254006C65726174696F6E20646174612072651B
:10726400676973746572732066726F6D20746865E4
:10727400204D5055363035300D0A00456E74657218
:107284002031206F7220322064696769742076612E
:107294006C756520746F20777269746520746F2033
:1072A40061646472657373203078253032780D0A16
:1072B40000463A20736574206779726F73636F7048
:1072C4006520465352207363616C6520616E6420AF
:1072D40073746F726520696E205049432045455090
:1072E400524F4D0D0A002D2D2D2D2D2D2D2D2D2DD3
:1072F4002D2D2D2D2D2D2D2D2D2D2D2D2D2D2D2DBA
